{
  "contractName": "VoteCore",
  "abi": [
    {
      "inputs": [],
      "stateMutability": "nonpayable",
      "type": "constructor"
    },
    {
      "inputs": [],
      "name": "EnforcedPause",
      "type": "error"
    },
    {
      "inputs": [],
      "name": "ExpectedPause",
      "type": "error"
    },
    {
      "inputs": [
        {
          "internalType": "address",
          "name": "owner",
          "type": "address"
        }
      ],
      "name": "OwnableInvalidOwner",
      "type": "error"
    },
    {
      "inputs": [
        {
          "internalType": "address",
          "name": "account",
          "type": "address"
        }
      ],
      "name": "OwnableUnauthorizedAccount",
      "type": "error"
    },
    {
      "anonymous": false,
      "inputs": [
        {
          "indexed": false,
          "internalType": "address",
          "name": "agentId",
          "type": "address"
        },
        {
          "indexed": false,
          "internalType": "bytes",
          "name": "data",
          "type": "bytes"
        },
        {
          "indexed": false,
          "internalType": "uint256",
          "name": "unit",
          "type": "uint256"
        }
      ],
      "name": "AgentCreated",
      "type": "event"
    },
    {
      "anonymous": false,
      "inputs": [
        {
          "indexed": false,
          "internalType": "address",
          "name": "managerId",
          "type": "address"
        },
        {
          "indexed": false,
          "internalType": "bytes",
          "name": "data",
          "type": "bytes"
        },
        {
          "indexed": false,
          "internalType": "enum PollingLib.State",
          "name": "state",
          "type": "uint8"
        }
      ],
      "name": "ManagerCreated",
      "type": "event"
    },
    {
      "anonymous": false,
      "inputs": [
        {
          "indexed": true,
          "internalType": "address",
          "name": "previousOwner",
          "type": "address"
        },
        {
          "indexed": true,
          "internalType": "address",
          "name": "newOwner",
          "type": "address"
        }
      ],
      "name": "OwnershipTransferred",
      "type": "event"
    },
    {
      "anonymous": false,
      "inputs": [
        {
          "indexed": false,
          "internalType": "uint256",
          "name": "partyId",
          "type": "uint256"
        },
        {
          "indexed": false,
          "internalType": "bytes",
          "name": "data",
          "type": "bytes"
        }
      ],
      "name": "PartyCreated",
      "type": "event"
    },
    {
      "anonymous": false,
      "inputs": [
        {
          "indexed": false,
          "internalType": "address",
          "name": "account",
          "type": "address"
        }
      ],
      "name": "Paused",
      "type": "event"
    },
    {
      "anonymous": false,
      "inputs": [
        {
          "indexed": false,
          "internalType": "bytes",
          "name": "data",
          "type": "bytes"
        },
        {
          "indexed": false,
          "internalType": "uint256",
          "name": "endsAt",
          "type": "uint256"
        },
        {
          "indexed": false,
          "internalType": "uint256",
          "name": "startAt",
          "type": "uint256"
        },
        {
          "indexed": false,
          "internalType": "uint256",
          "name": "numOfVotes",
          "type": "uint256"
        },
        {
          "indexed": false,
          "internalType": "uint256[]",
          "name": "units",
          "type": "uint256[]"
        }
      ],
      "name": "PollCreated",
      "type": "event"
    },
    {
      "anonymous": false,
      "inputs": [
        {
          "indexed": false,
          "internalType": "uint256",
          "name": "pollId",
          "type": "uint256"
        }
      ],
      "name": "PollEnded",
      "type": "event"
    },
    {
      "anonymous": false,
      "inputs": [
        {
          "indexed": false,
          "internalType": "uint256",
          "name": "pollId",
          "type": "uint256"
        },
        {
          "indexed": false,
          "internalType": "uint256",
          "name": "newEndAt",
          "type": "uint256"
        }
      ],
      "name": "PollResumed",
      "type": "event"
    },
    {
      "anonymous": false,
      "inputs": [
        {
          "indexed": false,
          "internalType": "address",
          "name": "account",
          "type": "address"
        }
      ],
      "name": "Unpaused",
      "type": "event"
    },
    {
      "anonymous": false,
      "inputs": [
        {
          "indexed": false,
          "internalType": "uint256",
          "name": "pollId",
          "type": "uint256"
        },
        {
          "indexed": false,
          "internalType": "address",
          "name": "voterId",
          "type": "address"
        },
        {
          "indexed": false,
          "internalType": "uint256",
          "name": "partyId",
          "type": "uint256"
        }
      ],
      "name": "VoteCasted",
      "type": "event"
    },
    {
      "anonymous": false,
      "inputs": [
        {
          "indexed": false,
          "internalType": "address",
          "name": "voterId",
          "type": "address"
        },
        {
          "indexed": false,
          "internalType": "bytes",
          "name": "data",
          "type": "bytes"
        },
        {
          "indexed": false,
          "internalType": "uint256",
          "name": "unit",
          "type": "uint256"
        }
      ],
      "name": "VoterCreated",
      "type": "event"
    },
    {
      "anonymous": false,
      "inputs": [
        {
          "indexed": false,
          "internalType": "address",
          "name": "voterId",
          "type": "address"
        }
      ],
      "name": "VoterSuspended",
      "type": "event"
    },
    {
      "anonymous": false,
      "inputs": [
        {
          "indexed": false,
          "internalType": "address",
          "name": "voterId",
          "type": "address"
        }
      ],
      "name": "VoterUnSuspended",
      "type": "event"
    },
    {
      "inputs": [],
      "name": "owner",
      "outputs": [
        {
          "internalType": "address",
          "name": "",
          "type": "address"
        }
      ],
      "stateMutability": "view",
      "type": "function"
    },
    {
      "inputs": [],
      "name": "paused",
      "outputs": [
        {
          "internalType": "bool",
          "name": "",
          "type": "bool"
        }
      ],
      "stateMutability": "view",
      "type": "function"
    },
    {
      "inputs": [],
      "name": "renounceOwnership",
      "outputs": [],
      "stateMutability": "nonpayable",
      "type": "function"
    },
    {
      "inputs": [
        {
          "internalType": "address",
          "name": "newOwner",
          "type": "address"
        }
      ],
      "name": "transferOwnership",
      "outputs": [],
      "stateMutability": "nonpayable",
      "type": "function"
    },
    {
      "inputs": [
        {
          "internalType": "uint256",
          "name": "pollId",
          "type": "uint256"
        },
        {
          "internalType": "address",
          "name": "voterId",
          "type": "address"
        },
        {
          "internalType": "uint256",
          "name": "partyId",
          "type": "uint256"
        }
      ],
      "name": "castVote",
      "outputs": [],
      "stateMutability": "nonpayable",
      "type": "function"
    },
    {
      "inputs": [
        {
          "internalType": "uint256",
          "name": "pollId",
          "type": "uint256"
        }
      ],
      "name": "votesCount",
      "outputs": [
        {
          "internalType": "uint256",
          "name": "",
          "type": "uint256"
        }
      ],
      "stateMutability": "view",
      "type": "function"
    },
    {
      "inputs": [
        {
          "internalType": "address",
          "name": "lookUpId",
          "type": "address"
        }
      ],
      "name": "isManager",
      "outputs": [
        {
          "internalType": "bool",
          "name": "",
          "type": "bool"
        }
      ],
      "stateMutability": "view",
      "type": "function"
    },
    {
      "inputs": [
        {
          "internalType": "address",
          "name": "lookUpId",
          "type": "address"
        }
      ],
      "name": "isAgent",
      "outputs": [
        {
          "internalType": "bool",
          "name": "",
          "type": "bool"
        }
      ],
      "stateMutability": "view",
      "type": "function"
    },
    {
      "inputs": [
        {
          "internalType": "uint256",
          "name": "lookUpId",
          "type": "uint256"
        }
      ],
      "name": "isParty",
      "outputs": [
        {
          "internalType": "bool",
          "name": "",
          "type": "bool"
        }
      ],
      "stateMutability": "view",
      "type": "function"
    },
    {
      "inputs": [
        {
          "components": [
            {
              "internalType": "bytes",
              "name": "data",
              "type": "bytes"
            },
            {
              "internalType": "bool",
              "name": "suspended",
              "type": "bool"
            },
            {
              "internalType": "uint256",
              "name": "numOfVotes",
              "type": "uint256"
            },
            {
              "internalType": "uint256",
              "name": "unit",
              "type": "uint256"
            }
          ],
          "internalType": "struct PollingLib.Voter",
          "name": "voter",
          "type": "tuple"
        },
        {
          "internalType": "address",
          "name": "voterId",
          "type": "address"
        }
      ],
      "name": "createVoter",
      "outputs": [],
      "stateMutability": "nonpayable",
      "type": "function"
    },
    {
      "inputs": [
        {
          "internalType": "address",
          "name": "voter",
          "type": "address"
        }
      ],
      "name": "suspendVoter",
      "outputs": [],
      "stateMutability": "nonpayable",
      "type": "function"
    },
    {
      "inputs": [
        {
          "internalType": "address",
          "name": "voter",
          "type": "address"
        }
      ],
      "name": "unSuspendVoter",
      "outputs": [],
      "stateMutability": "nonpayable",
      "type": "function"
    },
    {
      "inputs": [
        {
          "components": [
            {
              "internalType": "bytes",
              "name": "data",
              "type": "bytes"
            },
            {
              "internalType": "uint256",
              "name": "endAt",
              "type": "uint256"
            },
            {
              "internalType": "uint256",
              "name": "startAt",
              "type": "uint256"
            },
            {
              "internalType": "uint256",
              "name": "numOfVotes",
              "type": "uint256"
            },
            {
              "internalType": "uint256[]",
              "name": "units",
              "type": "uint256[]"
            },
            {
              "internalType": "string",
              "name": "nftUri",
              "type": "string"
            }
          ],
          "internalType": "struct PollingLib.Poll",
          "name": "poll",
          "type": "tuple"
        }
      ],
      "name": "createPoll",
      "outputs": [],
      "stateMutability": "nonpayable",
      "type": "function"
    },
    {
      "inputs": [
        {
          "components": [
            {
              "internalType": "bytes",
              "name": "data",
              "type": "bytes"
            }
          ],
          "internalType": "struct PollingLib.Party",
          "name": "party",
          "type": "tuple"
        },
        {
          "internalType": "uint256",
          "name": "partyId",
          "type": "uint256"
        }
      ],
      "name": "createParty",
      "outputs": [],
      "stateMutability": "nonpayable",
      "type": "function"
    },
    {
      "inputs": [
        {
          "internalType": "uint256",
          "name": "pollId",
          "type": "uint256"
        }
      ],
      "name": "endPoll",
      "outputs": [],
      "stateMutability": "nonpayable",
      "type": "function"
    },
    {
      "inputs": [
        {
          "internalType": "uint256",
          "name": "pollId",
          "type": "uint256"
        },
        {
          "internalType": "uint256",
          "name": "newEndAt",
          "type": "uint256"
        }
      ],
      "name": "resumePoll",
      "outputs": [],
      "stateMutability": "nonpayable",
      "type": "function"
    },
    {
      "inputs": [
        {
          "components": [
            {
              "internalType": "bytes",
              "name": "data",
              "type": "bytes"
            },
            {
              "internalType": "uint256",
              "name": "unit",
              "type": "uint256"
            }
          ],
          "internalType": "struct PollingLib.Agent",
          "name": "agent",
          "type": "tuple"
        },
        {
          "internalType": "address",
          "name": "agentId",
          "type": "address"
        }
      ],
      "name": "createAgent",
      "outputs": [],
      "stateMutability": "nonpayable",
      "type": "function"
    },
    {
      "inputs": [
        {
          "components": [
            {
              "internalType": "bytes",
              "name": "data",
              "type": "bytes"
            },
            {
              "internalType": "enum PollingLib.State",
              "name": "state",
              "type": "uint8"
            }
          ],
          "internalType": "struct PollingLib.Manager",
          "name": "manager",
          "type": "tuple"
        },
        {
          "internalType": "address",
          "name": "managerId",
          "type": "address"
        }
      ],
      "name": "createManager",
      "outputs": [],
      "stateMutability": "nonpayable",
      "type": "function"
    }
  ],
  "bytecode": "0x608060405234801562000010575f80fd5b5062000021620000c460201b60201c565b5f805f6101000a81548160ff0219169083151502179055505f73ffffffffffffffffffffffffffffffffffffffff168173ffffffffffffffffffffffffffffffffffffffff1603620000ac575f6040517f1e4fbdf7000000000000000000000000000000000000000000000000000000008152600401620000a39190620001d1565b60405180910390fd5b620000bd81620000cb60201b60201c565b50620001ec565b5f33905090565b5f8060019054906101000a900473ffffffffffffffffffffffffffffffffffffffff169050815f60016101000a81548173ffffffffffffffffffffffffffffffffffffffff021916908373ffffffffffffffffffffffffffffffffffffffff1602179055508173ffffffffffffffffffffffffffffffffffffffff168173ffffffffffffffffffffffffffffffffffffffff167f8be0079c531659141344cd1fd0a4f28419497f9722a3daafe3b4186f6b6457e060405160405180910390a35050565b5f73ffffffffffffffffffffffffffffffffffffffff82169050919050565b5f620001b9826200018e565b9050919050565b620001cb81620001ad565b82525050565b5f602082019050620001e65f830184620001c0565b92915050565b61275f80620001fa5f395ff3fe608060405234801561000f575f80fd5b5060043610610114575f3560e01c80638d2e368f116100a0578063b7adcdfa1161006f578063b7adcdfa146102b2578063bc0fde43146102ce578063f2fde38b146102ea578063f3ae241514610306578063f43b87781461033657610114565b80638d2e368f146102405780638da5cb5b1461025c578063a0cc6a861461027a578063b11964781461029657610114565b80636d67160c116100e75780636d67160c146101b2578063715018a6146101ce5780637e77eb23146101d8578063814783b4146101f45780638c5f91701461021057610114565b80631ffbb064146101185780632dc7639d1461014857806350a6491a146101645780635c975abb14610194575b5f80fd5b610132600480360381019061012d9190611321565b610352565b60405161013f9190611366565b60405180910390f35b610162600480360381019061015d919061154f565b6103ae565b005b61017e600480360381019061017991906115dc565b610480565b60405161018b9190611616565b60405180910390f35b61019c61049d565b6040516101a99190611366565b60405180910390f35b6101cc60048036038101906101c79190611698565b6104b1565b005b6101d66105a5565b005b6101f260048036038101906101ed91906116f2565b6105b8565b005b61020e60048036038101906102099190611995565b61091f565b005b61022a600480360381019061022591906115dc565b610a5e565b6040516102379190611366565b60405180910390f35b61025a60048036038101906102559190611321565b610a8e565b005b610264610b6f565b60405161027191906119eb565b60405180910390f35b610294600480360381019061028f9190611abf565b610b97565b005b6102b060048036038101906102ab9190611321565b610cb4565b005b6102cc60048036038101906102c79190611b6e565b610d95565b005b6102e860048036038101906102e39190611bc8565b610e55565b005b61030460048036038101906102ff9190611321565b610f3c565b005b610320600480360381019061031b9190611321565b610fc0565b60405161032d9190611366565b60405180910390f35b610350600480360381019061034b91906115dc565b61101c565b005b5f8060065f8473ffffffffffffffffffffffffffffffffffffffff1673ffffffffffffffffffffffffffffffffffffffff1681526020019081526020015f2090505f815f0180546103a290611c33565b90501415915050919050565b6103b66110be565b8160075f8373ffffffffffffffffffffffffffffffffffffffff1673ffffffffffffffffffffffffffffffffffffffff1681526020019081526020015f205f820151815f0190816104079190611e0a565b506020820151816001015f6101000a81548160ff0219169083602381111561043257610431611ed9565b5b02179055509050507f2fa5a0920f27f1de71e565721c355263664bfdcd6d929c910beda9c84ad4022d81835f0151846020015160405161047493929190611fbc565b60405180910390a15050565b5f60045f8381526020019081526020015f20600301549050919050565b5f805f9054906101000a900460ff16905090565b6104c16104bc611145565b610fc0565b610500576040517f08c379a00000000000000000000000000000000000000000000000000000000081526004016104f790612052565b60405180910390fd5b8160065f8373ffffffffffffffffffffffffffffffffffffffff1673ffffffffffffffffffffffffffffffffffffffff1681526020019081526020015f205f820151815f0190816105519190611e0a565b50602082015181600101559050507f63e76268d0a955fdb3fdf61ff46fc23b80d4a24790233b174dfac9a29818109b81835f0151846020015160405161059993929190612070565b60405180910390a15050565b6105ad6110be565b6105b65f61114c565b565b6105c061120f565b5f60045f8581526020019081526020015f2090505f60055f8573ffffffffffffffffffffffffffffffffffffffff1673ffffffffffffffffffffffffffffffffffffffff1681526020019081526020015f209050806001015f9054906101000a900460ff1615610665576040517f08c379a000000000000000000000000000000000000000000000000000000000815260040161065c906120f6565b60405180910390fd5b428260010154106106ab576040517f08c379a00000000000000000000000000000000000000000000000000000000081526004016106a29061215e565b60405180910390fd5b42826002015410156106f2576040517f08c379a00000000000000000000000000000000000000000000000000000000081526004016106e9906121c6565b60405180910390fd5b5f60095f8781526020019081526020015f205f8673ffffffffffffffffffffffffffffffffffffffff1673ffffffffffffffffffffffffffffffffffffffff1681526020019081526020015f205414610780576040517f08c379a00000000000000000000000000000000000000000000000000000000081526004016107779061222e565b60405180910390fd5b5f805b83600401805490508110156107d75782600301548460040182815481106107ad576107ac61224c565b5b905f5260205f200154036107c457600191506107d7565b80806107cf906122a6565b915050610783565b5080610818576040517f08c379a000000000000000000000000000000000000000000000000000000000815260040161080f90612337565b60405180910390fd5b61082184610a5e565b610860576040517f08c379a00000000000000000000000000000000000000000000000000000000081526004016108579061239f565b60405180910390fd5b8360095f8881526020019081526020015f205f8773ffffffffffffffffffffffffffffffffffffffff1673ffffffffffffffffffffffffffffffffffffffff1681526020019081526020015f205050600183600301546108c091906123bd565b83600301819055505f8360050180546108d890611c33565b905050507fe7ee74ca1f4bb1b82b14f87794c45b3e59c39e372b862fb97a6316b43355b69e86868660405161090f939291906123f0565b60405180910390a1505050505050565b61092f61092a611145565b610fc0565b61096e576040517f08c379a000000000000000000000000000000000000000000000000000000000815260040161096590612052565b60405180910390fd5b61097661120f565b8060045f60025481526020019081526020015f205f820151815f01908161099d9190611e0a565b5060208201518160010155604082015181600201556060820151816003015560808201518160040190805190602001906109d8929190611250565b5060a08201518160050190816109ee9190612487565b5090505060025f815480929190610a04906122a6565b91905055507f425423c9f3488191cf3d29df3104f6424a318d578c44d324fbe5dc1006580d6d815f01518260200151836040015184606001518560800151604051610a5395949392919061260d565b60405180910390a150565b5f8060085f8481526020019081526020015f2090505f815f018054610a8290611c33565b90501415915050919050565b610a9e610a99611145565b610352565b610add576040517f08c379a0000000000000000000000000000000000000000000000000000000008152600401610ad490612052565b60405180910390fd5b600160055f8373ffffffffffffffffffffffffffffffffffffffff1673ffffffffffffffffffffffffffffffffffffffff1681526020019081526020015f206001015f6101000a81548160ff0219169083151502179055507fb7bcc3f1429e9e01104a9ddc1d004407670c768ec4afa6ee93468a617af2370981604051610b6491906119eb565b60405180910390a150565b5f8060019054906101000a900473ffffffffffffffffffffffffffffffffffffffff16905090565b610ba7610ba2611145565b610352565b610be6576040517f08c379a0000000000000000000000000000000000000000000000000000000008152600401610bdd90612052565b60405180910390fd5b8160055f8373ffffffffffffffffffffffffffffffffffffffff1673ffffffffffffffffffffffffffffffffffffffff1681526020019081526020015f205f820151815f019081610c379190611e0a565b506020820151816001015f6101000a81548160ff02191690831515021790555060408201518160020155606082015181600301559050507fd97d45526d52726ccd696e104f7597764ec430a1110009e207e1ffdcaf1a968c81835f01518460600151604051610ca893929190612070565b60405180910390a15050565b610cc4610cbf611145565b610352565b610d03576040517f08c379a0000000000000000000000000000000000000000000000000000000008152600401610cfa90612052565b60405180910390fd5b600160055f8373ffffffffffffffffffffffffffffffffffffffff1673ffffffffffffffffffffffffffffffffffffffff1681526020019081526020015f206001015f6101000a81548160ff0219169083151502179055507fb7bcc3f1429e9e01104a9ddc1d004407670c768ec4afa6ee93468a617af2370981604051610d8a91906119eb565b60405180910390a150565b610da5610da0611145565b610fc0565b610de4576040517f08c379a0000000000000000000000000000000000000000000000000000000008152600401610ddb90612052565b60405180910390fd5b610dec61120f565b8160085f8381526020019081526020015f205f820151815f019081610e119190611e0a565b509050507f69d650e82226046ae6c611923881402d0b25416e493ef3d46aed213d3be89e4d81835f0151604051610e4992919061266c565b60405180910390a15050565b610e65610e60611145565b610fc0565b610ea4576040517f08c379a0000000000000000000000000000000000000000000000000000000008152600401610e9b90612052565b60405180910390fd5b428111610ee6576040517f08c379a0000000000000000000000000000000000000000000000000000000008152600401610edd906126e4565b60405180910390fd5b8060045f8481526020019081526020015f20600101819055507f229fc85594800ec48ab3f1ef11b9275bbe2ef32ef63eac3ac3dabe23a548b4d58282604051610f30929190612702565b60405180910390a15050565b610f446110be565b5f73ffffffffffffffffffffffffffffffffffffffff168173ffffffffffffffffffffffffffffffffffffffff1603610fb4575f6040517f1e4fbdf7000000000000000000000000000000000000000000000000000000008152600401610fab91906119eb565b60405180910390fd5b610fbd8161114c565b50565b5f8060075f8473ffffffffffffffffffffffffffffffffffffffff1673ffffffffffffffffffffffffffffffffffffffff1681526020019081526020015f2090505f815f01805461101090611c33565b90501415915050919050565b61102c611027611145565b610fc0565b61106b576040517f08c379a000000000000000000000000000000000000000000000000000000000815260040161106290612052565b60405180910390fd5b4260045f8381526020019081526020015f20600101819055507f14d4cfc1c2a6f37c8f97ad80fc12bd9d943ea6d4dd7684137850125597ce9bf7816040516110b39190611616565b60405180910390a150565b6110c6611145565b73ffffffffffffffffffffffffffffffffffffffff166110e4610b6f565b73ffffffffffffffffffffffffffffffffffffffff161461114357611107611145565b6040517f118cdaa700000000000000000000000000000000000000000000000000000000815260040161113a91906119eb565b60405180910390fd5b565b5f33905090565b5f8060019054906101000a900473ffffffffffffffffffffffffffffffffffffffff169050815f60016101000a81548173ffffffffffffffffffffffffffffffffffffffff021916908373ffffffffffffffffffffffffffffffffffffffff1602179055508173ffffffffffffffffffffffffffffffffffffffff168173ffffffffffffffffffffffffffffffffffffffff167f8be0079c531659141344cd1fd0a4f28419497f9722a3daafe3b4186f6b6457e060405160405180910390a35050565b61121761049d565b1561124e576040517fd93c066500000000000000000000000000000000000000000000000000000000815260040160405180910390fd5b565b828054828255905f5260205f2090810192821561128a579160200282015b8281111561128957825182559160200191906001019061126e565b5b509050611297919061129b565b5090565b5b808211156112b2575f815f90555060010161129c565b5090565b5f604051905090565b5f80fd5b5f80fd5b5f73ffffffffffffffffffffffffffffffffffffffff82169050919050565b5f6112f0826112c7565b9050919050565b611300816112e6565b811461130a575f80fd5b50565b5f8135905061131b816112f7565b92915050565b5f60208284031215611336576113356112bf565b5b5f6113438482850161130d565b91505092915050565b5f8115159050919050565b6113608161134c565b82525050565b5f6020820190506113795f830184611357565b92915050565b5f80fd5b5f601f19601f8301169050919050565b7f4e487b71000000000000000000000000000000000000000000000000000000005f52604160045260245ffd5b6113c982611383565b810181811067ffffffffffffffff821117156113e8576113e7611393565b5b80604052505050565b5f6113fa6112b6565b905061140682826113c0565b919050565b5f80fd5b5f80fd5b5f80fd5b5f67ffffffffffffffff82111561143157611430611393565b5b61143a82611383565b9050602081019050919050565b828183375f83830152505050565b5f61146761146284611417565b6113f1565b90508281526020810184848401111561148357611482611413565b5b61148e848285611447565b509392505050565b5f82601f8301126114aa576114a961140f565b5b81356114ba848260208601611455565b91505092915050565b602481106114cf575f80fd5b50565b5f813590506114e0816114c3565b92915050565b5f604082840312156114fb576114fa61137f565b5b61150560406113f1565b90505f82013567ffffffffffffffff8111156115245761152361140b565b5b61153084828501611496565b5f830152506020611543848285016114d2565b60208301525092915050565b5f8060408385031215611565576115646112bf565b5b5f83013567ffffffffffffffff811115611582576115816112c3565b5b61158e858286016114e6565b925050602061159f8582860161130d565b9150509250929050565b5f819050919050565b6115bb816115a9565b81146115c5575f80fd5b50565b5f813590506115d6816115b2565b92915050565b5f602082840312156115f1576115f06112bf565b5b5f6115fe848285016115c8565b91505092915050565b611610816115a9565b82525050565b5f6020820190506116295f830184611607565b92915050565b5f604082840312156116445761164361137f565b5b61164e60406113f1565b90505f82013567ffffffffffffffff81111561166d5761166c61140b565b5b61167984828501611496565b5f83015250602061168c848285016115c8565b60208301525092915050565b5f80604083850312156116ae576116ad6112bf565b5b5f83013567ffffffffffffffff8111156116cb576116ca6112c3565b5b6116d78582860161162f565b92505060206116e88582860161130d565b9150509250929050565b5f805f60608486031215611709576117086112bf565b5b5f611716868287016115c8565b93505060206117278682870161130d565b9250506040611738868287016115c8565b9150509250925092565b5f67ffffffffffffffff82111561175c5761175b611393565b5b602082029050602081019050919050565b5f80fd5b5f61178361177e84611742565b6113f1565b905080838252602082019050602084028301858111156117a6576117a561176d565b5b835b818110156117cf57806117bb88826115c8565b8452602084019350506020810190506117a8565b5050509392505050565b5f82601f8301126117ed576117ec61140f565b5b81356117fd848260208601611771565b91505092915050565b5f67ffffffffffffffff8211156118205761181f611393565b5b61182982611383565b9050602081019050919050565b5f61184861184384611806565b6113f1565b90508281526020810184848401111561186457611863611413565b5b61186f848285611447565b509392505050565b5f82601f83011261188b5761188a61140f565b5b813561189b848260208601611836565b91505092915050565b5f60c082840312156118b9576118b861137f565b5b6118c360c06113f1565b90505f82013567ffffffffffffffff8111156118e2576118e161140b565b5b6118ee84828501611496565b5f830152506020611901848285016115c8565b6020830152506040611915848285016115c8565b6040830152506060611929848285016115c8565b606083015250608082013567ffffffffffffffff81111561194d5761194c61140b565b5b611959848285016117d9565b60808301525060a082013567ffffffffffffffff81111561197d5761197c61140b565b5b61198984828501611877565b60a08301525092915050565b5f602082840312156119aa576119a96112bf565b5b5f82013567ffffffffffffffff8111156119c7576119c66112c3565b5b6119d3848285016118a4565b91505092915050565b6119e5816112e6565b82525050565b5f6020820190506119fe5f8301846119dc565b92915050565b611a0d8161134c565b8114611a17575f80fd5b50565b5f81359050611a2881611a04565b92915050565b5f60808284031215611a4357611a4261137f565b5b611a4d60806113f1565b90505f82013567ffffffffffffffff811115611a6c57611a6b61140b565b5b611a7884828501611496565b5f830152506020611a8b84828501611a1a565b6020830152506040611a9f848285016115c8565b6040830152506060611ab3848285016115c8565b60608301525092915050565b5f8060408385031215611ad557611ad46112bf565b5b5f83013567ffffffffffffffff811115611af257611af16112c3565b5b611afe85828601611a2e565b9250506020611b0f8582860161130d565b9150509250929050565b5f60208284031215611b2e57611b2d61137f565b5b611b3860206113f1565b90505f82013567ffffffffffffffff811115611b5757611b5661140b565b5b611b6384828501611496565b5f8301525092915050565b5f8060408385031215611b8457611b836112bf565b5b5f83013567ffffffffffffffff811115611ba157611ba06112c3565b5b611bad85828601611b19565b9250506020611bbe858286016115c8565b9150509250929050565b5f8060408385031215611bde57611bdd6112bf565b5b5f611beb858286016115c8565b9250506020611bfc858286016115c8565b9150509250929050565b7f4e487b71000000000000000000000000000000000000000000000000000000005f52602260045260245ffd5b5f6002820490506001821680611c4a57607f821691505b602082108103611c5d57611c5c611c06565b5b50919050565b5f81519050919050565b5f819050815f5260205f209050919050565b5f6020601f8301049050919050565b5f82821b905092915050565b5f60088302611cc97fffffffffffffffffffffffffffffffffffffffffffffffffffffffffffffffff82611c8e565b611cd38683611c8e565b95508019841693508086168417925050509392505050565b5f819050919050565b5f611d0e611d09611d04846115a9565b611ceb565b6115a9565b9050919050565b5f819050919050565b611d2783611cf4565b611d3b611d3382611d15565b848454611c9a565b825550505050565b5f90565b611d4f611d43565b611d5a818484611d1e565b505050565b5b81811015611d7d57611d725f82611d47565b600181019050611d60565b5050565b601f821115611dc257611d9381611c6d565b611d9c84611c7f565b81016020851015611dab578190505b611dbf611db785611c7f565b830182611d5f565b50505b505050565b5f82821c905092915050565b5f611de25f1984600802611dc7565b1980831691505092915050565b5f611dfa8383611dd3565b9150826002028217905092915050565b611e1382611c63565b67ffffffffffffffff811115611e2c57611e2b611393565b5b611e368254611c33565b611e41828285611d81565b5f60209050601f831160018114611e72575f8415611e60578287015190505b611e6a8582611def565b865550611ed1565b601f198416611e8086611c6d565b5f5b82811015611ea757848901518255600182019150602085019450602081019050611e82565b86831015611ec45784890151611ec0601f891682611dd3565b8355505b6001600288020188555050505b505050505050565b7f4e487b71000000000000000000000000000000000000000000000000000000005f52602160045260245ffd5b5f82825260208201905092915050565b5f5b83811015611f33578082015181840152602081019050611f18565b5f8484015250505050565b5f611f4882611c63565b611f528185611f06565b9350611f62818560208601611f16565b611f6b81611383565b840191505092915050565b60248110611f8757611f86611ed9565b5b50565b5f819050611f9782611f76565b919050565b5f611fa682611f8a565b9050919050565b611fb681611f9c565b82525050565b5f606082019050611fcf5f8301866119dc565b8181036020830152611fe18185611f3e565b9050611ff06040830184611fad565b949350505050565b5f82825260208201905092915050565b7f556e417574686f72697a656400000000000000000000000000000000000000005f82015250565b5f61203c600c83611ff8565b915061204782612008565b602082019050919050565b5f6020820190508181035f83015261206981612030565b9050919050565b5f6060820190506120835f8301866119dc565b81810360208301526120958185611f3e565b90506120a46040830184611607565b949350505050565b7f566f7465722069732073757370656e64656400000000000000000000000000005f82015250565b5f6120e0601283611ff8565b91506120eb826120ac565b602082019050919050565b5f6020820190508181035f83015261210d816120d4565b9050919050565b7f506f6c6c2068617320656e6465640000000000000000000000000000000000005f82015250565b5f612148600e83611ff8565b915061215382612114565b602082019050919050565b5f6020820190508181035f8301526121758161213c565b9050919050565b7f506f6c6c20686173206e6f7420737461727465640000000000000000000000005f82015250565b5f6121b0601483611ff8565b91506121bb8261217c565b602082019050919050565b5f6020820190508181035f8301526121dd816121a4565b9050919050565b7f416c72656164792063617374656420766f7465000000000000000000000000005f82015250565b5f612218601383611ff8565b9150612223826121e4565b602082019050919050565b5f6020820190508181035f8301526122458161220c565b9050919050565b7f4e487b71000000000000000000000000000000000000000000000000000000005f52603260045260245ffd5b7f4e487b71000000000000000000000000000000000000000000000000000000005f52601160045260245ffd5b5f6122b0826115a9565b91507fffffffffffffffffffffffffffffffffffffffffffffffffffffffffffffffff82036122e2576122e1612279565b5b600182019050919050565b7f566f74657220756e6974206e6f7420696e2074686520706f6c6c20756e6974735f82015250565b5f612321602083611ff8565b915061232c826122ed565b602082019050919050565b5f6020820190508181035f83015261234e81612315565b9050919050565b7f506172747920646f6573206e6f742065786973740000000000000000000000005f82015250565b5f612389601483611ff8565b915061239482612355565b602082019050919050565b5f6020820190508181035f8301526123b68161237d565b9050919050565b5f6123c7826115a9565b91506123d2836115a9565b92508282019050808211156123ea576123e9612279565b5b92915050565b5f6060820190506124035f830186611607565b61241060208301856119dc565b61241d6040830184611607565b949350505050565b5f81519050919050565b5f819050815f5260205f209050919050565b601f821115612482576124538161242f565b61245c84611c7f565b8101602085101561246b578190505b61247f61247785611c7f565b830182611d5f565b50505b505050565b61249082612425565b67ffffffffffffffff8111156124a9576124a8611393565b5b6124b38254611c33565b6124be828285612441565b5f60209050601f8311600181146124ef575f84156124dd578287015190505b6124e78582611def565b86555061254e565b601f1984166124fd8661242f565b5f5b82811015612524578489015182556001820191506020850194506020810190506124ff565b86831015612541578489015161253d601f891682611dd3565b8355505b6001600288020188555050505b505050505050565b5f81519050919050565b5f82825260208201905092915050565b5f819050602082019050919050565b612588816115a9565b82525050565b5f612599838361257f565b60208301905092915050565b5f602082019050919050565b5f6125bb82612556565b6125c58185612560565b93506125d083612570565b805f5b838110156126005781516125e7888261258e565b97506125f2836125a5565b9250506001810190506125d3565b5085935050505092915050565b5f60a0820190508181035f8301526126258188611f3e565b90506126346020830187611607565b6126416040830186611607565b61264e6060830185611607565b818103608083015261266081846125b1565b90509695505050505050565b5f60408201905061267f5f830185611607565b81810360208301526126918184611f3e565b90509392505050565b7f54696d6520697320696e207468652070617374000000000000000000000000005f82015250565b5f6126ce601383611ff8565b91506126d98261269a565b602082019050919050565b5f6020820190508181035f8301526126fb816126c2565b9050919050565b5f6040820190506127155f830185611607565b6127226020830184611607565b939250505056fea2646970667358221220778fa6a56572e31d0f1f1ddc4f7bd4449f620303735d13c32aa3e0c02d8e66fb64736f6c63430008140033",
  "immutableReferences": {},
  "source": "// SPDX-License-Identifier: MIT\r\npragma solidity ^0.8.20;\r\n\r\nimport {IVoteCore} from \"./interfaces/IVoteCore.sol\";\r\nimport {PollingLib} from \"./libraries/PollingLib.sol\";\r\n\r\nimport {Context} from \"@openzeppelin/contracts/utils/Context.sol\";\r\nimport {Ownable} from \"@openzeppelin/contracts/access/Ownable.sol\";\r\nimport {Pausable} from \"@openzeppelin/contracts/utils/Pausable.sol\";\r\nimport {IERC721} from \"@openzeppelin/contracts/token/ERC721/IERC721.sol\";\r\n\r\n/// @title I-Vote Core\r\n/// @author Arogundade Ibrahim\r\n/// @notice A simple replace for traditional elections\r\ncontract VoteCore is IVoteCore, Context, Pausable, Ownable {\r\n    // vote nft\r\n    IERC721 private _voteNft;\r\n\r\n    // Unique Id Trackers\r\n    uint256 private _pollId;\r\n\r\n    // Polling Units: Unit Unique Id => Unit object\r\n    mapping(uint256 => PollingLib.Uint) private _units;\r\n\r\n    // Polls: Poll Unique Id => Poll object\r\n    mapping(uint256 => PollingLib.Poll) private _polls;\r\n\r\n    // Voters: Voter Unique Id => Voter object\r\n    mapping(address => PollingLib.Voter) private _voters;\r\n\r\n    // Agent: Voter Unique Id => Agent object\r\n    mapping(address => PollingLib.Agent) private _agents;\r\n\r\n    // Managers: Manager Unique Id => Manager object\r\n    mapping(address => PollingLib.Manager) private _managers;\r\n\r\n    // Parties: Party Unique Id => Party object\r\n    mapping(uint256 => PollingLib.Party) private _parties;\r\n\r\n    // Votes: Poll Unique Id => Voter Unique Id => Party Unique Id\r\n    mapping(uint256 => mapping(address => uint256)) private _votes;\r\n\r\n    constructor() Ownable(_msgSender()) {}\r\n\r\n    // ============= Voter Functions ============= //\r\n\r\n    function castVote(\r\n        uint256 pollId,\r\n        address voterId,\r\n        uint256 partyId\r\n    ) external override whenNotPaused {\r\n        PollingLib.Poll storage poll = _polls[pollId];\r\n        PollingLib.Voter storage voter = _voters[voterId];\r\n\r\n        // check the voter is not suspended\r\n        require(!voter.suspended, \"Voter is suspended\");\r\n\r\n        // check poll duration\r\n        require(poll.endAt < block.timestamp, \"Poll has ended\");\r\n        require(poll.startAt >= block.timestamp, \"Poll has not started\");\r\n\r\n        // check voter entry\r\n        require(_votes[pollId][voterId] == uint256(0), \"Already casted vote\");\r\n\r\n        // check voter uint is in the poll units\r\n        bool isInUint = false;\r\n        for (uint256 index = 0; index < poll.units.length; index++) {\r\n            if (poll.units[index] == voter.unit) {\r\n                isInUint = true;\r\n                break;\r\n            }\r\n        }\r\n        require(isInUint, \"Voter unit not in the poll units\");\r\n\r\n        // check party exists\r\n        require(isParty(partyId), \"Party does not exist\");\r\n\r\n        // otherwise cast vote\r\n        _votes[pollId][voterId] == partyId;\r\n        poll.numOfVotes = poll.numOfVotes + 1;\r\n\r\n        // mint nft to voter --if-exists\r\n        if (bytes(poll.nftUri).length != 0) {\r\n            // _voteNft.transferFrom(address, to, tokenId);;\r\n        }\r\n\r\n        emit VoteCasted(pollId, voterId, partyId);\r\n    }\r\n\r\n    // ============= View Functions ============= //\r\n\r\n    function votesCount(uint256 pollId) public view override returns (uint256) {\r\n        return _polls[pollId].numOfVotes;\r\n    }\r\n\r\n    function isManager(address lookUpId) public view override returns (bool) {\r\n        PollingLib.Manager storage manager = _managers[lookUpId];\r\n        return manager.data.length != 0;\r\n    }\r\n\r\n    function isAgent(address lookUpId) public view override returns (bool) {\r\n        PollingLib.Agent storage agent = _agents[lookUpId];\r\n        return agent.data.length != 0;\r\n    }\r\n\r\n    function isParty(uint256 lookUpId) public view override returns (bool) {\r\n        PollingLib.Party storage party = _parties[lookUpId];\r\n        return party.data.length != 0;\r\n    }\r\n\r\n    // ============= Agents Functions ============= //\r\n\r\n    function createVoter(\r\n        PollingLib.Voter memory voter,\r\n        address voterId\r\n    ) external override onlyAgent {\r\n        _voters[voterId] = voter;\r\n\r\n        emit VoterCreated(voterId, voter.data, voter.unit);\r\n    }\r\n\r\n    function suspendVoter(address voter) external override onlyAgent {\r\n        _voters[voter].suspended = true;\r\n\r\n        emit VoterSuspended(voter);\r\n    }\r\n\r\n    function unSuspendVoter(address voter) external override onlyAgent {\r\n        _voters[voter].suspended = true;\r\n\r\n        emit VoterSuspended(voter);\r\n    }\r\n\r\n    // ============= Managers Functions ============= //\r\n\r\n    function createPoll(\r\n        PollingLib.Poll memory poll\r\n    ) external override onlyManager whenNotPaused {\r\n        _polls[_pollId] = poll;\r\n\r\n        // increment Poll Id trackers\r\n        _pollId++;\r\n\r\n        emit PollCreated(\r\n            poll.data,\r\n            poll.endAt,\r\n            poll.startAt,\r\n            poll.numOfVotes,\r\n            poll.units\r\n        );\r\n    }\r\n\r\n    function createParty(\r\n        PollingLib.Party memory party,\r\n        uint256 partyId\r\n    ) external override onlyManager whenNotPaused {\r\n        _parties[partyId] = party;\r\n\r\n        emit PartyCreated(partyId, party.data);\r\n    }\r\n\r\n    function endPoll(uint256 pollId) external onlyManager {\r\n        _polls[pollId].endAt = block.timestamp;\r\n\r\n        emit PollEnded(pollId);\r\n    }\r\n\r\n    function resumePoll(\r\n        uint256 pollId,\r\n        uint256 newEndAt\r\n    ) external override onlyManager {\r\n        require(newEndAt > block.timestamp, \"Time is in the past\");\r\n        _polls[pollId].endAt = newEndAt;\r\n\r\n        emit PollResumed(pollId, newEndAt);\r\n    }\r\n\r\n    function createAgent(\r\n        PollingLib.Agent memory agent,\r\n        address agentId\r\n    ) external override onlyManager {\r\n        _agents[agentId] = agent;\r\n\r\n        emit AgentCreated(agentId, agent.data, agent.unit);\r\n    }\r\n\r\n    // ============= Creator Functions ============= //\r\n\r\n    function createManager(\r\n        PollingLib.Manager memory manager,\r\n        address managerId\r\n    ) external override onlyOwner {\r\n        _managers[managerId] = manager;\r\n\r\n        emit ManagerCreated(managerId, manager.data, manager.state);\r\n    }\r\n\r\n    // ============= Modifiers ============= //\r\n\r\n    modifier onlyManager() {\r\n        require(isManager(_msgSender()), \"UnAuthorized\");\r\n        _;\r\n    }\r\n\r\n    modifier onlyAgent() {\r\n        require(isAgent(_msgSender()), \"UnAuthorized\");\r\n        _;\r\n    }\r\n}\r\n",
  "sourcePath": "C:\\Users\\DELL\\Documents\\i-vote\\solidity\\contracts\\VoteCore.sol",
  "compiler": {
    "name": "solc",
    "version": "0.8.20+commit.a1b79de6.Emscripten.clang"
  },
  "schemaVersion": "3.4.11",
  "updatedAt": "2023-11-17T09:23:10.329Z",
  "devdoc": {
    "author": "Arogundade Ibrahim",
    "errors": {
      "EnforcedPause()": [
        {
          "details": "The operation failed because the contract is paused."
        }
      ],
      "ExpectedPause()": [
        {
          "details": "The operation failed because the contract is not paused."
        }
      ],
      "OwnableInvalidOwner(address)": [
        {
          "details": "The owner is not a valid owner account. (eg. `address(0)`)"
        }
      ],
      "OwnableUnauthorizedAccount(address)": [
        {
          "details": "The caller account is not authorized to perform an operation."
        }
      ]
    },
    "events": {
      "Paused(address)": {
        "details": "Emitted when the pause is triggered by `account`."
      },
      "Unpaused(address)": {
        "details": "Emitted when the pause is lifted by `account`."
      }
    },
    "kind": "dev",
    "methods": {
      "owner()": {
        "details": "Returns the address of the current owner."
      },
      "paused()": {
        "details": "Returns true if the contract is paused, and false otherwise."
      },
      "renounceOwnership()": {
        "details": "Leaves the contract without owner. It will not be possible to call `onlyOwner` functions. Can only be called by the current owner. NOTE: Renouncing ownership will leave the contract without an owner, thereby disabling any functionality that is only available to the owner."
      },
      "transferOwnership(address)": {
        "details": "Transfers ownership of the contract to a new account (`newOwner`). Can only be called by the current owner."
      }
    },
    "title": "I-Vote Core",
    "version": 1
  },
  "userdoc": {
    "kind": "user",
    "methods": {},
    "notice": "A simple replace for traditional elections",
    "version": 1
  }
}