{
  "contractName": "VoteCore",
  "abi": [
    {
      "inputs": [],
      "stateMutability": "nonpayable",
      "type": "constructor"
    },
    {
      "inputs": [],
      "name": "EnforcedPause",
      "type": "error"
    },
    {
      "inputs": [],
      "name": "ExpectedPause",
      "type": "error"
    },
    {
      "inputs": [
        {
          "internalType": "address",
          "name": "owner",
          "type": "address"
        }
      ],
      "name": "OwnableInvalidOwner",
      "type": "error"
    },
    {
      "inputs": [
        {
          "internalType": "address",
          "name": "account",
          "type": "address"
        }
      ],
      "name": "OwnableUnauthorizedAccount",
      "type": "error"
    },
    {
      "anonymous": false,
      "inputs": [
        {
          "indexed": false,
          "internalType": "address",
          "name": "agentId",
          "type": "address"
        },
        {
          "indexed": false,
          "internalType": "bytes",
          "name": "data",
          "type": "bytes"
        },
        {
          "indexed": false,
          "internalType": "uint256",
          "name": "unit",
          "type": "uint256"
        }
      ],
      "name": "AgentCreated",
      "type": "event"
    },
    {
      "anonymous": false,
      "inputs": [
        {
          "indexed": false,
          "internalType": "address",
          "name": "managerId",
          "type": "address"
        },
        {
          "indexed": false,
          "internalType": "bytes",
          "name": "data",
          "type": "bytes"
        },
        {
          "indexed": false,
          "internalType": "enum PollingLib.State",
          "name": "state",
          "type": "uint8"
        }
      ],
      "name": "ManagerCreated",
      "type": "event"
    },
    {
      "anonymous": false,
      "inputs": [
        {
          "indexed": true,
          "internalType": "address",
          "name": "previousOwner",
          "type": "address"
        },
        {
          "indexed": true,
          "internalType": "address",
          "name": "newOwner",
          "type": "address"
        }
      ],
      "name": "OwnershipTransferred",
      "type": "event"
    },
    {
      "anonymous": false,
      "inputs": [
        {
          "indexed": false,
          "internalType": "uint256",
          "name": "partyId",
          "type": "uint256"
        },
        {
          "indexed": false,
          "internalType": "bytes",
          "name": "data",
          "type": "bytes"
        }
      ],
      "name": "PartyCreated",
      "type": "event"
    },
    {
      "anonymous": false,
      "inputs": [
        {
          "indexed": false,
          "internalType": "address",
          "name": "account",
          "type": "address"
        }
      ],
      "name": "Paused",
      "type": "event"
    },
    {
      "anonymous": false,
      "inputs": [
        {
          "indexed": false,
          "internalType": "uint256",
          "name": "pollId",
          "type": "uint256"
        },
        {
          "indexed": false,
          "internalType": "bytes",
          "name": "data",
          "type": "bytes"
        },
        {
          "indexed": false,
          "internalType": "uint256",
          "name": "endsAt",
          "type": "uint256"
        },
        {
          "indexed": false,
          "internalType": "uint256",
          "name": "startAt",
          "type": "uint256"
        },
        {
          "indexed": false,
          "internalType": "uint256",
          "name": "numOfVotes",
          "type": "uint256"
        },
        {
          "indexed": false,
          "internalType": "uint256",
          "name": "unit",
          "type": "uint256"
        }
      ],
      "name": "PollCreated",
      "type": "event"
    },
    {
      "anonymous": false,
      "inputs": [
        {
          "indexed": false,
          "internalType": "uint256",
          "name": "pollId",
          "type": "uint256"
        }
      ],
      "name": "PollEnded",
      "type": "event"
    },
    {
      "anonymous": false,
      "inputs": [
        {
          "indexed": false,
          "internalType": "uint256",
          "name": "pollId",
          "type": "uint256"
        },
        {
          "indexed": false,
          "internalType": "uint256",
          "name": "newEndAt",
          "type": "uint256"
        }
      ],
      "name": "PollResumed",
      "type": "event"
    },
    {
      "anonymous": false,
      "inputs": [
        {
          "indexed": false,
          "internalType": "uint256",
          "name": "unitId",
          "type": "uint256"
        },
        {
          "indexed": false,
          "internalType": "enum PollingLib.State",
          "name": "state",
          "type": "uint8"
        },
        {
          "indexed": false,
          "internalType": "uint256",
          "name": "localGovernment",
          "type": "uint256"
        },
        {
          "indexed": false,
          "internalType": "uint256",
          "name": "numOfAccreditedVoters",
          "type": "uint256"
        }
      ],
      "name": "UnitCreated",
      "type": "event"
    },
    {
      "anonymous": false,
      "inputs": [
        {
          "indexed": false,
          "internalType": "address",
          "name": "account",
          "type": "address"
        }
      ],
      "name": "Unpaused",
      "type": "event"
    },
    {
      "anonymous": false,
      "inputs": [
        {
          "indexed": false,
          "internalType": "uint256",
          "name": "pollId",
          "type": "uint256"
        },
        {
          "indexed": false,
          "internalType": "address",
          "name": "voterId",
          "type": "address"
        },
        {
          "indexed": false,
          "internalType": "uint256",
          "name": "partyId",
          "type": "uint256"
        }
      ],
      "name": "VoteCasted",
      "type": "event"
    },
    {
      "anonymous": false,
      "inputs": [
        {
          "indexed": false,
          "internalType": "address",
          "name": "voterId",
          "type": "address"
        },
        {
          "indexed": false,
          "internalType": "bytes",
          "name": "data",
          "type": "bytes"
        },
        {
          "indexed": false,
          "internalType": "uint256",
          "name": "unit",
          "type": "uint256"
        }
      ],
      "name": "VoterCreated",
      "type": "event"
    },
    {
      "anonymous": false,
      "inputs": [
        {
          "indexed": false,
          "internalType": "address",
          "name": "voterId",
          "type": "address"
        }
      ],
      "name": "VoterSuspended",
      "type": "event"
    },
    {
      "anonymous": false,
      "inputs": [
        {
          "indexed": false,
          "internalType": "address",
          "name": "voterId",
          "type": "address"
        }
      ],
      "name": "VoterUnSuspended",
      "type": "event"
    },
    {
      "inputs": [],
      "name": "owner",
      "outputs": [
        {
          "internalType": "address",
          "name": "",
          "type": "address"
        }
      ],
      "stateMutability": "view",
      "type": "function",
      "constant": true
    },
    {
      "inputs": [],
      "name": "paused",
      "outputs": [
        {
          "internalType": "bool",
          "name": "",
          "type": "bool"
        }
      ],
      "stateMutability": "view",
      "type": "function",
      "constant": true
    },
    {
      "inputs": [],
      "name": "renounceOwnership",
      "outputs": [],
      "stateMutability": "nonpayable",
      "type": "function"
    },
    {
      "inputs": [
        {
          "internalType": "address",
          "name": "newOwner",
          "type": "address"
        }
      ],
      "name": "transferOwnership",
      "outputs": [],
      "stateMutability": "nonpayable",
      "type": "function"
    },
    {
      "inputs": [
        {
          "internalType": "uint256",
          "name": "pollId",
          "type": "uint256"
        },
        {
          "internalType": "address",
          "name": "voterId",
          "type": "address"
        },
        {
          "internalType": "uint256",
          "name": "partyId",
          "type": "uint256"
        }
      ],
      "name": "castVote",
      "outputs": [],
      "stateMutability": "nonpayable",
      "type": "function"
    },
    {
      "inputs": [
        {
          "internalType": "uint256",
          "name": "pollId",
          "type": "uint256"
        }
      ],
      "name": "votesCount",
      "outputs": [
        {
          "internalType": "uint256",
          "name": "",
          "type": "uint256"
        }
      ],
      "stateMutability": "view",
      "type": "function",
      "constant": true
    },
    {
      "inputs": [
        {
          "internalType": "address",
          "name": "lookUpId",
          "type": "address"
        }
      ],
      "name": "isManager",
      "outputs": [
        {
          "internalType": "bool",
          "name": "",
          "type": "bool"
        }
      ],
      "stateMutability": "view",
      "type": "function",
      "constant": true
    },
    {
      "inputs": [
        {
          "internalType": "address",
          "name": "lookUpId",
          "type": "address"
        }
      ],
      "name": "isAgent",
      "outputs": [
        {
          "internalType": "bool",
          "name": "",
          "type": "bool"
        }
      ],
      "stateMutability": "view",
      "type": "function",
      "constant": true
    },
    {
      "inputs": [
        {
          "internalType": "uint256",
          "name": "lookUpId",
          "type": "uint256"
        }
      ],
      "name": "isParty",
      "outputs": [
        {
          "internalType": "bool",
          "name": "",
          "type": "bool"
        }
      ],
      "stateMutability": "view",
      "type": "function",
      "constant": true
    },
    {
      "inputs": [
        {
          "components": [
            {
              "internalType": "bytes",
              "name": "data",
              "type": "bytes"
            },
            {
              "internalType": "bool",
              "name": "suspended",
              "type": "bool"
            },
            {
              "internalType": "uint256",
              "name": "numOfVotes",
              "type": "uint256"
            },
            {
              "internalType": "uint256",
              "name": "unit",
              "type": "uint256"
            }
          ],
          "internalType": "struct PollingLib.Voter",
          "name": "voter",
          "type": "tuple"
        },
        {
          "internalType": "address",
          "name": "voterId",
          "type": "address"
        }
      ],
      "name": "createVoter",
      "outputs": [],
      "stateMutability": "nonpayable",
      "type": "function"
    },
    {
      "inputs": [
        {
          "components": [
            {
              "internalType": "bytes",
              "name": "data",
              "type": "bytes"
            },
            {
              "internalType": "uint256",
              "name": "endAt",
              "type": "uint256"
            },
            {
              "internalType": "uint256",
              "name": "startAt",
              "type": "uint256"
            },
            {
              "internalType": "uint256",
              "name": "numOfVotes",
              "type": "uint256"
            },
            {
              "internalType": "uint256",
              "name": "unit",
              "type": "uint256"
            },
            {
              "internalType": "string",
              "name": "nftUri",
              "type": "string"
            }
          ],
          "internalType": "struct PollingLib.Poll",
          "name": "poll",
          "type": "tuple"
        }
      ],
      "name": "createPoll",
      "outputs": [],
      "stateMutability": "nonpayable",
      "type": "function"
    },
    {
      "inputs": [
        {
          "internalType": "address",
          "name": "voter",
          "type": "address"
        }
      ],
      "name": "suspendVoter",
      "outputs": [],
      "stateMutability": "nonpayable",
      "type": "function"
    },
    {
      "inputs": [
        {
          "internalType": "address",
          "name": "voter",
          "type": "address"
        }
      ],
      "name": "unSuspendVoter",
      "outputs": [],
      "stateMutability": "nonpayable",
      "type": "function"
    },
    {
      "inputs": [
        {
          "components": [
            {
              "internalType": "enum PollingLib.State",
              "name": "state",
              "type": "uint8"
            },
            {
              "internalType": "uint256",
              "name": "localGovernment",
              "type": "uint256"
            },
            {
              "internalType": "uint256",
              "name": "numOfAccreditedVoters",
              "type": "uint256"
            }
          ],
          "internalType": "struct PollingLib.Unit",
          "name": "unit",
          "type": "tuple"
        }
      ],
      "name": "createUnit",
      "outputs": [],
      "stateMutability": "nonpayable",
      "type": "function"
    },
    {
      "inputs": [
        {
          "components": [
            {
              "internalType": "bytes",
              "name": "data",
              "type": "bytes"
            }
          ],
          "internalType": "struct PollingLib.Party",
          "name": "party",
          "type": "tuple"
        },
        {
          "internalType": "uint256",
          "name": "partyId",
          "type": "uint256"
        }
      ],
      "name": "createParty",
      "outputs": [],
      "stateMutability": "nonpayable",
      "type": "function"
    },
    {
      "inputs": [
        {
          "internalType": "uint256",
          "name": "pollId",
          "type": "uint256"
        }
      ],
      "name": "endPoll",
      "outputs": [],
      "stateMutability": "nonpayable",
      "type": "function"
    },
    {
      "inputs": [
        {
          "internalType": "uint256",
          "name": "pollId",
          "type": "uint256"
        },
        {
          "internalType": "uint256",
          "name": "newEndAt",
          "type": "uint256"
        }
      ],
      "name": "resumePoll",
      "outputs": [],
      "stateMutability": "nonpayable",
      "type": "function"
    },
    {
      "inputs": [
        {
          "components": [
            {
              "internalType": "bytes",
              "name": "data",
              "type": "bytes"
            },
            {
              "internalType": "uint256",
              "name": "unit",
              "type": "uint256"
            }
          ],
          "internalType": "struct PollingLib.Agent",
          "name": "agent",
          "type": "tuple"
        },
        {
          "internalType": "address",
          "name": "agentId",
          "type": "address"
        }
      ],
      "name": "createAgent",
      "outputs": [],
      "stateMutability": "nonpayable",
      "type": "function"
    },
    {
      "inputs": [
        {
          "components": [
            {
              "internalType": "bytes",
              "name": "data",
              "type": "bytes"
            },
            {
              "internalType": "enum PollingLib.State",
              "name": "state",
              "type": "uint8"
            }
          ],
          "internalType": "struct PollingLib.Manager",
          "name": "manager",
          "type": "tuple"
        },
        {
          "internalType": "address",
          "name": "managerId",
          "type": "address"
        }
      ],
      "name": "createManager",
      "outputs": [],
      "stateMutability": "nonpayable",
      "type": "function"
    },
    {
      "inputs": [
        {
          "internalType": "address",
          "name": "voteNft",
          "type": "address"
        }
      ],
      "name": "setVoteNft",
      "outputs": [],
      "stateMutability": "nonpayable",
      "type": "function"
    }
  ],
  "bytecode": "0x608060405234801562000010575f80fd5b5062000021620000c460201b60201c565b5f805f6101000a81548160ff0219169083151502179055505f73ffffffffffffffffffffffffffffffffffffffff168173ffffffffffffffffffffffffffffffffffffffff1603620000ac575f6040517f1e4fbdf7000000000000000000000000000000000000000000000000000000008152600401620000a39190620001d1565b60405180910390fd5b620000bd81620000cb60201b60201c565b50620001ec565b5f33905090565b5f8060019054906101000a900473ffffffffffffffffffffffffffffffffffffffff169050815f60016101000a81548173ffffffffffffffffffffffffffffffffffffffff021916908373ffffffffffffffffffffffffffffffffffffffff1602179055508173ffffffffffffffffffffffffffffffffffffffff168173ffffffffffffffffffffffffffffffffffffffff167f8be0079c531659141344cd1fd0a4f28419497f9722a3daafe3b4186f6b6457e060405160405180910390a35050565b5f73ffffffffffffffffffffffffffffffffffffffff82169050919050565b5f620001b9826200018e565b9050919050565b620001cb81620001ad565b82525050565b5f602082019050620001e65f830184620001c0565b92915050565b6128e680620001fa5f395ff3fe608060405234801561000f575f80fd5b506004361061012a575f3560e01c80638da5cb5b116100ab578063bc0fde431161006f578063bc0fde4314610300578063c79383c51461031c578063f2fde38b14610338578063f3ae241514610354578063f43b8778146103845761012a565b80638da5cb5b14610272578063a0cc6a8614610290578063a852f80d146102ac578063b1196478146102c8578063b7adcdfa146102e45761012a565b80636d67160c116100f25780636d67160c146101e4578063715018a6146102005780637e77eb231461020a5780638c5f9170146102265780638d2e368f146102565761012a565b80631ffbb0641461012e5780632dc7639d1461015e57806350a6491a1461017a5780635b871d10146101aa5780635c975abb146101c6575b5f80fd5b610148600480360381019061014391906114e7565b6103a0565b604051610155919061152c565b60405180910390f35b61017860048036038101906101739190611715565b6103fc565b005b610194600480360381019061018f91906117a2565b6104ce565b6040516101a191906117dc565b60405180910390f35b6101c460048036038101906101bf91906114e7565b6104eb565b005b6101ce61052e565b6040516101db919061152c565b60405180910390f35b6101fe60048036038101906101f9919061185e565b610542565b005b610208610636565b005b610224600480360381019061021f91906118b8565b610649565b005b610240600480360381019061023b91906117a2565b6109f1565b60405161024d919061152c565b60405180910390f35b610270600480360381019061026b91906114e7565b610a21565b005b61027a610b02565b6040516102879190611917565b60405180910390f35b6102aa60048036038101906102a591906119eb565b610b2a565b005b6102c660048036038101906102c19190611aa6565b610c47565b005b6102e260048036038101906102dd91906114e7565b610d5a565b005b6102fe60048036038101906102f99190611b26565b610e3b565b005b61031a60048036038101906103159190611b80565b610efb565b005b61033660048036038101906103319190611d31565b610fe2565b005b610352600480360381019061034d91906114e7565b611168565b005b61036e600480360381019061036991906114e7565b6111ec565b60405161037b919061152c565b60405180910390f35b61039e600480360381019061039991906117a2565b611248565b005b5f8060075f8473ffffffffffffffffffffffffffffffffffffffff1673ffffffffffffffffffffffffffffffffffffffff1681526020019081526020015f2090505f815f0180546103f090611da5565b90501415915050919050565b6104046112ea565b8160085f8373ffffffffffffffffffffffffffffffffffffffff1673ffffffffffffffffffffffffffffffffffffffff1681526020019081526020015f205f820151815f0190816104559190611f7c565b506020820151816001015f6101000a81548160ff021916908360238111156104805761047f61204b565b5b02179055509050507f2fa5a0920f27f1de71e565721c355263664bfdcd6d929c910beda9c84ad4022d81835f015184602001516040516104c29392919061212e565b60405180910390a15050565b5f60055f8381526020019081526020015f20600301549050919050565b8060015f6101000a81548173ffffffffffffffffffffffffffffffffffffffff021916908373ffffffffffffffffffffffffffffffffffffffff16021790555050565b5f805f9054906101000a900460ff16905090565b61055261054d611371565b6111ec565b610591576040517f08c379a0000000000000000000000000000000000000000000000000000000008152600401610588906121c4565b60405180910390fd5b8160075f8373ffffffffffffffffffffffffffffffffffffffff1673ffffffffffffffffffffffffffffffffffffffff1681526020019081526020015f205f820151815f0190816105e29190611f7c565b50602082015181600101559050507f63e76268d0a955fdb3fdf61ff46fc23b80d4a24790233b174dfac9a29818109b81835f0151846020015160405161062a939291906121e2565b60405180910390a15050565b61063e6112ea565b6106475f611378565b565b61065161143b565b5f60055f8581526020019081526020015f2090505f60065f8573ffffffffffffffffffffffffffffffffffffffff1673ffffffffffffffffffffffffffffffffffffffff1681526020019081526020015f209050806001015f9054906101000a900460ff16156106f6576040517f08c379a00000000000000000000000000000000000000000000000000000000081526004016106ed90612268565b60405180910390fd5b4282600101541061073c576040517f08c379a0000000000000000000000000000000000000000000000000000000008152600401610733906122d0565b60405180910390fd5b4282600201541015610783576040517f08c379a000000000000000000000000000000000000000000000000000000000815260040161077a90612338565b60405180910390fd5b5f600a5f8781526020019081526020015f205f8673ffffffffffffffffffffffffffffffffffffffff1673ffffffffffffffffffffffffffffffffffffffff1681526020019081526020015f205414610811576040517f08c379a0000000000000000000000000000000000000000000000000000000008152600401610808906123a0565b60405180910390fd5b816004015481600301541461085b576040517f08c379a000000000000000000000000000000000000000000000000000000000815260040161085290612408565b60405180910390fd5b610864836109f1565b6108a3576040517f08c379a000000000000000000000000000000000000000000000000000000000815260040161089a90612470565b60405180910390fd5b82600a5f8781526020019081526020015f205f8673ffffffffffffffffffffffffffffffffffffffff1673ffffffffffffffffffffffffffffffffffffffff1681526020019081526020015f2050506001826003015461090391906124bb565b82600301819055505f82600501805461091b90611da5565b9050146109af5760015f9054906101000a900473ffffffffffffffffffffffffffffffffffffffff1673ffffffffffffffffffffffffffffffffffffffff1663d0def52185846005016040518363ffffffff1660e01b8152600401610981929190612581565b5f604051808303815f87803b158015610998575f80fd5b505af11580156109aa573d5f803e3d5ffd5b505050505b7fe7ee74ca1f4bb1b82b14f87794c45b3e59c39e372b862fb97a6316b43355b69e8585856040516109e2939291906125af565b60405180910390a15050505050565b5f8060095f8481526020019081526020015f2090505f815f018054610a1590611da5565b90501415915050919050565b610a31610a2c611371565b6103a0565b610a70576040517f08c379a0000000000000000000000000000000000000000000000000000000008152600401610a67906121c4565b60405180910390fd5b600160065f8373ffffffffffffffffffffffffffffffffffffffff1673ffffffffffffffffffffffffffffffffffffffff1681526020019081526020015f206001015f6101000a81548160ff0219169083151502179055507fb7bcc3f1429e9e01104a9ddc1d004407670c768ec4afa6ee93468a617af2370981604051610af79190611917565b60405180910390a150565b5f8060019054906101000a900473ffffffffffffffffffffffffffffffffffffffff16905090565b610b3a610b35611371565b6103a0565b610b79576040517f08c379a0000000000000000000000000000000000000000000000000000000008152600401610b70906121c4565b60405180910390fd5b8160065f8373ffffffffffffffffffffffffffffffffffffffff1673ffffffffffffffffffffffffffffffffffffffff1681526020019081526020015f205f820151815f019081610bca9190611f7c565b506020820151816001015f6101000a81548160ff02191690831515021790555060408201518160020155606082015181600301559050507fd97d45526d52726ccd696e104f7597764ec430a1110009e207e1ffdcaf1a968c81835f01518460600151604051610c3b939291906121e2565b60405180910390a15050565b610c57610c52611371565b6111ec565b610c96576040517f08c379a0000000000000000000000000000000000000000000000000000000008152600401610c8d906121c4565b60405180910390fd5b610c9e61143b565b8060045f60035481526020019081526020015f205f820151815f015f6101000a81548160ff02191690836023811115610cda57610cd961204b565b5b0217905550602082015181600101556040820151816002015590505060035f815480929190610d08906125e4565b91905055507ffed4a2b8b3685c6ad44d5493ac845c4a3501711ccfa726966dc6e9e1ba50c60a600354825f015183602001518460400151604051610d4f949392919061262b565b60405180910390a150565b610d6a610d65611371565b6103a0565b610da9576040517f08c379a0000000000000000000000000000000000000000000000000000000008152600401610da0906121c4565b60405180910390fd5b600160065f8373ffffffffffffffffffffffffffffffffffffffff1673ffffffffffffffffffffffffffffffffffffffff1681526020019081526020015f206001015f6101000a81548160ff0219169083151502179055507fb7bcc3f1429e9e01104a9ddc1d004407670c768ec4afa6ee93468a617af2370981604051610e309190611917565b60405180910390a150565b610e4b610e46611371565b6111ec565b610e8a576040517f08c379a0000000000000000000000000000000000000000000000000000000008152600401610e81906121c4565b60405180910390fd5b610e9261143b565b8160095f8381526020019081526020015f205f820151815f019081610eb79190611f7c565b509050507f69d650e82226046ae6c611923881402d0b25416e493ef3d46aed213d3be89e4d81835f0151604051610eef92919061266e565b60405180910390a15050565b610f0b610f06611371565b6111ec565b610f4a576040517f08c379a0000000000000000000000000000000000000000000000000000000008152600401610f41906121c4565b60405180910390fd5b428111610f8c576040517f08c379a0000000000000000000000000000000000000000000000000000000008152600401610f83906126e6565b60405180910390fd5b8060055f8481526020019081526020015f20600101819055507f229fc85594800ec48ab3f1ef11b9275bbe2ef32ef63eac3ac3dabe23a548b4d58282604051610fd6929190612704565b60405180910390a15050565b610ff2610fed611371565b6103a0565b611031576040517f08c379a0000000000000000000000000000000000000000000000000000000008152600401611028906121c4565b60405180910390fd5b61103961143b565b8060055f60025481526020019081526020015f205f820151815f0190816110609190611f7c565b506020820151816001015560408201518160020155606082015181600301556080820151816004015560a082015181600501908161109e919061277b565b5090505060025f8154809291906110b4906125e4565b9190505550806080015160075f6110c9611371565b73ffffffffffffffffffffffffffffffffffffffff1673ffffffffffffffffffffffffffffffffffffffff1681526020019081526020015f20600101541461110f575f80fd5b7f28e674ffac5fe6872cfab0b4d9f2bf80baf2bb057bf5b34411e84bf0937d0837600254825f0151836020015184604001518560600151866080015160405161115d9695949392919061284a565b60405180910390a150565b6111706112ea565b5f73ffffffffffffffffffffffffffffffffffffffff168173ffffffffffffffffffffffffffffffffffffffff16036111e0575f6040517f1e4fbdf70000000000000000000000000000000000000000000000000000000081526004016111d79190611917565b60405180910390fd5b6111e981611378565b50565b5f8060085f8473ffffffffffffffffffffffffffffffffffffffff1673ffffffffffffffffffffffffffffffffffffffff1681526020019081526020015f2090505f815f01805461123c90611da5565b90501415915050919050565b611258611253611371565b6111ec565b611297576040517f08c379a000000000000000000000000000000000000000000000000000000000815260040161128e906121c4565b60405180910390fd5b4260055f8381526020019081526020015f20600101819055507f14d4cfc1c2a6f37c8f97ad80fc12bd9d943ea6d4dd7684137850125597ce9bf7816040516112df91906117dc565b60405180910390a150565b6112f2611371565b73ffffffffffffffffffffffffffffffffffffffff16611310610b02565b73ffffffffffffffffffffffffffffffffffffffff161461136f57611333611371565b6040517f118cdaa70000000000000000000000000000000000000000000000000000000081526004016113669190611917565b60405180910390fd5b565b5f33905090565b5f8060019054906101000a900473ffffffffffffffffffffffffffffffffffffffff169050815f60016101000a81548173ffffffffffffffffffffffffffffffffffffffff021916908373ffffffffffffffffffffffffffffffffffffffff1602179055508173ffffffffffffffffffffffffffffffffffffffff168173ffffffffffffffffffffffffffffffffffffffff167f8be0079c531659141344cd1fd0a4f28419497f9722a3daafe3b4186f6b6457e060405160405180910390a35050565b61144361052e565b1561147a576040517fd93c066500000000000000000000000000000000000000000000000000000000815260040160405180910390fd5b565b5f604051905090565b5f80fd5b5f80fd5b5f73ffffffffffffffffffffffffffffffffffffffff82169050919050565b5f6114b68261148d565b9050919050565b6114c6816114ac565b81146114d0575f80fd5b50565b5f813590506114e1816114bd565b92915050565b5f602082840312156114fc576114fb611485565b5b5f611509848285016114d3565b91505092915050565b5f8115159050919050565b61152681611512565b82525050565b5f60208201905061153f5f83018461151d565b92915050565b5f80fd5b5f601f19601f8301169050919050565b7f4e487b71000000000000000000000000000000000000000000000000000000005f52604160045260245ffd5b61158f82611549565b810181811067ffffffffffffffff821117156115ae576115ad611559565b5b80604052505050565b5f6115c061147c565b90506115cc8282611586565b919050565b5f80fd5b5f80fd5b5f80fd5b5f67ffffffffffffffff8211156115f7576115f6611559565b5b61160082611549565b9050602081019050919050565b828183375f83830152505050565b5f61162d611628846115dd565b6115b7565b905082815260208101848484011115611649576116486115d9565b5b61165484828561160d565b509392505050565b5f82601f8301126116705761166f6115d5565b5b813561168084826020860161161b565b91505092915050565b60248110611695575f80fd5b50565b5f813590506116a681611689565b92915050565b5f604082840312156116c1576116c0611545565b5b6116cb60406115b7565b90505f82013567ffffffffffffffff8111156116ea576116e96115d1565b5b6116f68482850161165c565b5f83015250602061170984828501611698565b60208301525092915050565b5f806040838503121561172b5761172a611485565b5b5f83013567ffffffffffffffff81111561174857611747611489565b5b611754858286016116ac565b9250506020611765858286016114d3565b9150509250929050565b5f819050919050565b6117818161176f565b811461178b575f80fd5b50565b5f8135905061179c81611778565b92915050565b5f602082840312156117b7576117b6611485565b5b5f6117c48482850161178e565b91505092915050565b6117d68161176f565b82525050565b5f6020820190506117ef5f8301846117cd565b92915050565b5f6040828403121561180a57611809611545565b5b61181460406115b7565b90505f82013567ffffffffffffffff811115611833576118326115d1565b5b61183f8482850161165c565b5f8301525060206118528482850161178e565b60208301525092915050565b5f806040838503121561187457611873611485565b5b5f83013567ffffffffffffffff81111561189157611890611489565b5b61189d858286016117f5565b92505060206118ae858286016114d3565b9150509250929050565b5f805f606084860312156118cf576118ce611485565b5b5f6118dc8682870161178e565b93505060206118ed868287016114d3565b92505060406118fe8682870161178e565b9150509250925092565b611911816114ac565b82525050565b5f60208201905061192a5f830184611908565b92915050565b61193981611512565b8114611943575f80fd5b50565b5f8135905061195481611930565b92915050565b5f6080828403121561196f5761196e611545565b5b61197960806115b7565b90505f82013567ffffffffffffffff811115611998576119976115d1565b5b6119a48482850161165c565b5f8301525060206119b784828501611946565b60208301525060406119cb8482850161178e565b60408301525060606119df8482850161178e565b60608301525092915050565b5f8060408385031215611a0157611a00611485565b5b5f83013567ffffffffffffffff811115611a1e57611a1d611489565b5b611a2a8582860161195a565b9250506020611a3b858286016114d3565b9150509250929050565b5f60608284031215611a5a57611a59611545565b5b611a6460606115b7565b90505f611a7384828501611698565b5f830152506020611a868482850161178e565b6020830152506040611a9a8482850161178e565b60408301525092915050565b5f60608284031215611abb57611aba611485565b5b5f611ac884828501611a45565b91505092915050565b5f60208284031215611ae657611ae5611545565b5b611af060206115b7565b90505f82013567ffffffffffffffff811115611b0f57611b0e6115d1565b5b611b1b8482850161165c565b5f8301525092915050565b5f8060408385031215611b3c57611b3b611485565b5b5f83013567ffffffffffffffff811115611b5957611b58611489565b5b611b6585828601611ad1565b9250506020611b768582860161178e565b9150509250929050565b5f8060408385031215611b9657611b95611485565b5b5f611ba38582860161178e565b9250506020611bb48582860161178e565b9150509250929050565b5f67ffffffffffffffff821115611bd857611bd7611559565b5b611be182611549565b9050602081019050919050565b5f611c00611bfb84611bbe565b6115b7565b905082815260208101848484011115611c1c57611c1b6115d9565b5b611c2784828561160d565b509392505050565b5f82601f830112611c4357611c426115d5565b5b8135611c53848260208601611bee565b91505092915050565b5f60c08284031215611c7157611c70611545565b5b611c7b60c06115b7565b90505f82013567ffffffffffffffff811115611c9a57611c996115d1565b5b611ca68482850161165c565b5f830152506020611cb98482850161178e565b6020830152506040611ccd8482850161178e565b6040830152506060611ce18482850161178e565b6060830152506080611cf58482850161178e565b60808301525060a082013567ffffffffffffffff811115611d1957611d186115d1565b5b611d2584828501611c2f565b60a08301525092915050565b5f60208284031215611d4657611d45611485565b5b5f82013567ffffffffffffffff811115611d6357611d62611489565b5b611d6f84828501611c5c565b91505092915050565b7f4e487b71000000000000000000000000000000000000000000000000000000005f52602260045260245ffd5b5f6002820490506001821680611dbc57607f821691505b602082108103611dcf57611dce611d78565b5b50919050565b5f81519050919050565b5f819050815f5260205f209050919050565b5f6020601f8301049050919050565b5f82821b905092915050565b5f60088302611e3b7fffffffffffffffffffffffffffffffffffffffffffffffffffffffffffffffff82611e00565b611e458683611e00565b95508019841693508086168417925050509392505050565b5f819050919050565b5f611e80611e7b611e768461176f565b611e5d565b61176f565b9050919050565b5f819050919050565b611e9983611e66565b611ead611ea582611e87565b848454611e0c565b825550505050565b5f90565b611ec1611eb5565b611ecc818484611e90565b505050565b5b81811015611eef57611ee45f82611eb9565b600181019050611ed2565b5050565b601f821115611f3457611f0581611ddf565b611f0e84611df1565b81016020851015611f1d578190505b611f31611f2985611df1565b830182611ed1565b50505b505050565b5f82821c905092915050565b5f611f545f1984600802611f39565b1980831691505092915050565b5f611f6c8383611f45565b9150826002028217905092915050565b611f8582611dd5565b67ffffffffffffffff811115611f9e57611f9d611559565b5b611fa88254611da5565b611fb3828285611ef3565b5f60209050601f831160018114611fe4575f8415611fd2578287015190505b611fdc8582611f61565b865550612043565b601f198416611ff286611ddf565b5f5b8281101561201957848901518255600182019150602085019450602081019050611ff4565b868310156120365784890151612032601f891682611f45565b8355505b6001600288020188555050505b505050505050565b7f4e487b71000000000000000000000000000000000000000000000000000000005f52602160045260245ffd5b5f82825260208201905092915050565b5f5b838110156120a557808201518184015260208101905061208a565b5f8484015250505050565b5f6120ba82611dd5565b6120c48185612078565b93506120d4818560208601612088565b6120dd81611549565b840191505092915050565b602481106120f9576120f861204b565b5b50565b5f819050612109826120e8565b919050565b5f612118826120fc565b9050919050565b6121288161210e565b82525050565b5f6060820190506121415f830186611908565b818103602083015261215381856120b0565b9050612162604083018461211f565b949350505050565b5f82825260208201905092915050565b7f556e417574686f72697a656400000000000000000000000000000000000000005f82015250565b5f6121ae600c8361216a565b91506121b98261217a565b602082019050919050565b5f6020820190508181035f8301526121db816121a2565b9050919050565b5f6060820190506121f55f830186611908565b818103602083015261220781856120b0565b905061221660408301846117cd565b949350505050565b7f566f7465722069732073757370656e64656400000000000000000000000000005f82015250565b5f61225260128361216a565b915061225d8261221e565b602082019050919050565b5f6020820190508181035f83015261227f81612246565b9050919050565b7f506f6c6c2068617320656e6465640000000000000000000000000000000000005f82015250565b5f6122ba600e8361216a565b91506122c582612286565b602082019050919050565b5f6020820190508181035f8301526122e7816122ae565b9050919050565b7f506f6c6c20686173206e6f7420737461727465640000000000000000000000005f82015250565b5f61232260148361216a565b915061232d826122ee565b602082019050919050565b5f6020820190508181035f83015261234f81612316565b9050919050565b7f416c72656164792063617374656420766f7465000000000000000000000000005f82015250565b5f61238a60138361216a565b915061239582612356565b602082019050919050565b5f6020820190508181035f8301526123b78161237e565b9050919050565b7f566f746572206973206e6f7420696e207468697320756e6974000000000000005f82015250565b5f6123f260198361216a565b91506123fd826123be565b602082019050919050565b5f6020820190508181035f83015261241f816123e6565b9050919050565b7f506172747920646f6573206e6f742065786973740000000000000000000000005f82015250565b5f61245a60148361216a565b915061246582612426565b602082019050919050565b5f6020820190508181035f8301526124878161244e565b9050919050565b7f4e487b71000000000000000000000000000000000000000000000000000000005f52601160045260245ffd5b5f6124c58261176f565b91506124d08361176f565b92508282019050808211156124e8576124e761248e565b5b92915050565b5f819050815f5260205f209050919050565b5f815461250c81611da5565b612516818661216a565b9450600182165f8114612530576001811461254657612578565b60ff198316865281151560200286019350612578565b61254f856124ee565b5f5b8381101561257057815481890152600182019150602081019050612551565b808801955050505b50505092915050565b5f6040820190506125945f830185611908565b81810360208301526125a68184612500565b90509392505050565b5f6060820190506125c25f8301866117cd565b6125cf6020830185611908565b6125dc60408301846117cd565b949350505050565b5f6125ee8261176f565b91507fffffffffffffffffffffffffffffffffffffffffffffffffffffffffffffffff82036126205761261f61248e565b5b600182019050919050565b5f60808201905061263e5f8301876117cd565b61264b602083018661211f565b61265860408301856117cd565b61266560608301846117cd565b95945050505050565b5f6040820190506126815f8301856117cd565b818103602083015261269381846120b0565b90509392505050565b7f54696d6520697320696e207468652070617374000000000000000000000000005f82015250565b5f6126d060138361216a565b91506126db8261269c565b602082019050919050565b5f6020820190508181035f8301526126fd816126c4565b9050919050565b5f6040820190506127175f8301856117cd565b61272460208301846117cd565b9392505050565b5f81519050919050565b601f82111561277657612747816124ee565b61275084611df1565b8101602085101561275f578190505b61277361276b85611df1565b830182611ed1565b50505b505050565b6127848261272b565b67ffffffffffffffff81111561279d5761279c611559565b5b6127a78254611da5565b6127b2828285612735565b5f60209050601f8311600181146127e3575f84156127d1578287015190505b6127db8582611f61565b865550612842565b601f1984166127f1866124ee565b5f5b82811015612818578489015182556001820191506020850194506020810190506127f3565b868310156128355784890151612831601f891682611f45565b8355505b6001600288020188555050505b505050505050565b5f60c08201905061285d5f8301896117cd565b818103602083015261286f81886120b0565b905061287e60408301876117cd565b61288b60608301866117cd565b61289860808301856117cd565b6128a560a08301846117cd565b97965050505050505056fea2646970667358221220593b41a1036faef2903961265214be28cb8b50f8d17c1c5d5cdbaa847f8ad0e464736f6c63430008140033",
  "immutableReferences": {},
  "source": "// SPDX-License-Identifier: MIT\r\npragma solidity ^0.8.20;\r\n\r\nimport {IVoteCore} from \"./interfaces/IVoteCore.sol\";\r\nimport {PollingLib} from \"./libraries/PollingLib.sol\";\r\n\r\nimport {Context} from \"@openzeppelin/contracts/utils/Context.sol\";\r\nimport {Ownable} from \"@openzeppelin/contracts/access/Ownable.sol\";\r\nimport {Pausable} from \"@openzeppelin/contracts/utils/Pausable.sol\";\r\n\r\nimport {VoteNft} from \"./VoteNft.sol\";\r\n\r\n/// @title I-Vote Core\r\n/// @author Arogundade Ibrahim\r\n/// @notice A simple replace for traditional elections\r\ncontract VoteCore is IVoteCore, Context, Pausable, Ownable {\r\n    // vote nft\r\n    VoteNft private _voteNft;\r\n\r\n    // Unique Id Trackers\r\n    uint256 private _pollId;\r\n    uint256 private _unitId;\r\n\r\n    // Polling Units: Unit Unique Id => Unit object\r\n    mapping(uint256 => PollingLib.Unit) private _units;\r\n\r\n    // Polls: Poll Unique Id => Poll object\r\n    mapping(uint256 => PollingLib.Poll) private _polls;\r\n\r\n    // Voters: Voter Unique Id => Voter object\r\n    mapping(address => PollingLib.Voter) private _voters;\r\n\r\n    // Agent: Voter Unique Id => Agent object\r\n    mapping(address => PollingLib.Agent) private _agents;\r\n\r\n    // Managers: Manager Unique Id => Manager object\r\n    mapping(address => PollingLib.Manager) private _managers;\r\n\r\n    // Parties: Party Unique Id => Party object\r\n    mapping(uint256 => PollingLib.Party) private _parties;\r\n\r\n    // Votes: Poll Unique Id => Voter Unique Id => Party Unique Id\r\n    mapping(uint256 => mapping(address => uint256)) private _votes;\r\n\r\n    constructor() Ownable(_msgSender()) {}\r\n\r\n    // ============= Voter Functions ============= //\r\n\r\n    function castVote(\r\n        uint256 pollId,\r\n        address voterId,\r\n        uint256 partyId\r\n    ) external override whenNotPaused {\r\n        PollingLib.Poll storage poll = _polls[pollId];\r\n        PollingLib.Voter storage voter = _voters[voterId];\r\n\r\n        // check the voter is not suspended\r\n        require(!voter.suspended, \"Voter is suspended\");\r\n\r\n        // check poll duration\r\n        require(poll.endAt < block.timestamp, \"Poll has ended\");\r\n        require(poll.startAt >= block.timestamp, \"Poll has not started\");\r\n\r\n        // check voter entry\r\n        require(_votes[pollId][voterId] == uint256(0), \"Already casted vote\");\r\n\r\n        // check voter uint is in the poll units\r\n        require(voter.unit == poll.unit, \"Voter is not in this unit\");\r\n\r\n        // check party exists\r\n        require(isParty(partyId), \"Party does not exist\");\r\n\r\n        // otherwise cast vote\r\n        _votes[pollId][voterId] == partyId;\r\n        poll.numOfVotes = poll.numOfVotes + 1;\r\n\r\n        // mint nft to voter --if-exists\r\n        if (bytes(poll.nftUri).length != 0) {\r\n            _voteNft.mint(voterId, poll.nftUri);\r\n        }\r\n\r\n        emit VoteCasted(pollId, voterId, partyId);\r\n    }\r\n\r\n    // ============= View Functions ============= //\r\n\r\n    function votesCount(uint256 pollId) public view override returns (uint256) {\r\n        return _polls[pollId].numOfVotes;\r\n    }\r\n\r\n    function isManager(address lookUpId) public view override returns (bool) {\r\n        PollingLib.Manager storage manager = _managers[lookUpId];\r\n        return manager.data.length != 0;\r\n    }\r\n\r\n    function isAgent(address lookUpId) public view override returns (bool) {\r\n        PollingLib.Agent storage agent = _agents[lookUpId];\r\n        return agent.data.length != 0;\r\n    }\r\n\r\n    function isParty(uint256 lookUpId) public view override returns (bool) {\r\n        PollingLib.Party storage party = _parties[lookUpId];\r\n        return party.data.length != 0;\r\n    }\r\n\r\n    // ============= Agents Functions ============= //\r\n\r\n    function createVoter(\r\n        PollingLib.Voter memory voter,\r\n        address voterId\r\n    ) external override onlyAgent {\r\n        _voters[voterId] = voter;\r\n\r\n        emit VoterCreated(voterId, voter.data, voter.unit);\r\n    }\r\n\r\n    function createPoll(\r\n        PollingLib.Poll memory poll\r\n    ) external override onlyAgent whenNotPaused {\r\n        _polls[_pollId] = poll;\r\n\r\n        // increment Poll Id trackers\r\n        _pollId++;\r\n\r\n        require(_agents[_msgSender()].unit == poll.unit);\r\n\r\n        emit PollCreated(\r\n            _pollId,\r\n            poll.data,\r\n            poll.endAt,\r\n            poll.startAt,\r\n            poll.numOfVotes,\r\n            poll.unit\r\n        );\r\n    }\r\n\r\n    function suspendVoter(address voter) external override onlyAgent {\r\n        _voters[voter].suspended = true;\r\n\r\n        emit VoterSuspended(voter);\r\n    }\r\n\r\n    function unSuspendVoter(address voter) external override onlyAgent {\r\n        _voters[voter].suspended = true;\r\n\r\n        emit VoterSuspended(voter);\r\n    }\r\n\r\n    // ============= Managers Functions ============= //\r\n\r\n    function createUnit(\r\n        PollingLib.Unit memory unit\r\n    ) external override onlyManager whenNotPaused {\r\n        _units[_unitId] = unit;\r\n\r\n        // increment Unit Id trackers\r\n        _unitId++;\r\n\r\n        emit UnitCreated(\r\n            _unitId,\r\n            unit.state,\r\n            unit.localGovernment,\r\n            unit.numOfAccreditedVoters\r\n        );\r\n    }\r\n\r\n    function createParty(\r\n        PollingLib.Party memory party,\r\n        uint256 partyId\r\n    ) external override onlyManager whenNotPaused {\r\n        _parties[partyId] = party;\r\n\r\n        emit PartyCreated(partyId, party.data);\r\n    }\r\n\r\n    function endPoll(uint256 pollId) external onlyManager {\r\n        _polls[pollId].endAt = block.timestamp;\r\n\r\n        emit PollEnded(pollId);\r\n    }\r\n\r\n    function resumePoll(\r\n        uint256 pollId,\r\n        uint256 newEndAt\r\n    ) external override onlyManager {\r\n        require(newEndAt > block.timestamp, \"Time is in the past\");\r\n        _polls[pollId].endAt = newEndAt;\r\n\r\n        emit PollResumed(pollId, newEndAt);\r\n    }\r\n\r\n    function createAgent(\r\n        PollingLib.Agent memory agent,\r\n        address agentId\r\n    ) external override onlyManager {\r\n        _agents[agentId] = agent;\r\n\r\n        emit AgentCreated(agentId, agent.data, agent.unit);\r\n    }\r\n\r\n    // ============= Creator Functions ============= //\r\n\r\n    function createManager(\r\n        PollingLib.Manager memory manager,\r\n        address managerId\r\n    ) external override onlyOwner {\r\n        _managers[managerId] = manager;\r\n\r\n        emit ManagerCreated(managerId, manager.data, manager.state);\r\n    }\r\n\r\n    function setVoteNft(address voteNft) external {\r\n        _voteNft = VoteNft(voteNft);\r\n    }\r\n\r\n    // ============= Modifiers ============= //\r\n\r\n    modifier onlyManager() {\r\n        require(isManager(_msgSender()), \"UnAuthorized\");\r\n        _;\r\n    }\r\n\r\n    modifier onlyAgent() {\r\n        require(isAgent(_msgSender()), \"UnAuthorized\");\r\n        _;\r\n    }\r\n}\r\n",
  "sourcePath": "C:\\Users\\DELL\\Documents\\i-vote\\solidity\\contracts\\VoteCore.sol",
  "compiler": {
    "name": "solc",
    "version": "0.8.20+commit.a1b79de6.Emscripten.clang"
  },
  "schemaVersion": "3.4.11",
  "updatedAt": "2023-11-25T11:55:56.540Z",
  "networkType": "ethereum",
  "devdoc": {
    "author": "Arogundade Ibrahim",
    "errors": {
      "EnforcedPause()": [
        {
          "details": "The operation failed because the contract is paused."
        }
      ],
      "ExpectedPause()": [
        {
          "details": "The operation failed because the contract is not paused."
        }
      ],
      "OwnableInvalidOwner(address)": [
        {
          "details": "The owner is not a valid owner account. (eg. `address(0)`)"
        }
      ],
      "OwnableUnauthorizedAccount(address)": [
        {
          "details": "The caller account is not authorized to perform an operation."
        }
      ]
    },
    "events": {
      "Paused(address)": {
        "details": "Emitted when the pause is triggered by `account`."
      },
      "Unpaused(address)": {
        "details": "Emitted when the pause is lifted by `account`."
      }
    },
    "kind": "dev",
    "methods": {
      "owner()": {
        "details": "Returns the address of the current owner."
      },
      "paused()": {
        "details": "Returns true if the contract is paused, and false otherwise."
      },
      "renounceOwnership()": {
        "details": "Leaves the contract without owner. It will not be possible to call `onlyOwner` functions. Can only be called by the current owner. NOTE: Renouncing ownership will leave the contract without an owner, thereby disabling any functionality that is only available to the owner."
      },
      "transferOwnership(address)": {
        "details": "Transfers ownership of the contract to a new account (`newOwner`). Can only be called by the current owner."
      }
    },
    "title": "I-Vote Core",
    "version": 1
  },
  "userdoc": {
    "kind": "user",
    "methods": {},
    "notice": "A simple replace for traditional elections",
    "version": 1
  }
}