{
  "contractName": "VoteNft",
  "abi": [
    {
      "inputs": [
        {
          "internalType": "address",
          "name": "voteCore",
          "type": "address"
        }
      ],
      "stateMutability": "nonpayable",
      "type": "constructor"
    },
    {
      "inputs": [
        {
          "internalType": "address",
          "name": "sender",
          "type": "address"
        },
        {
          "internalType": "uint256",
          "name": "tokenId",
          "type": "uint256"
        },
        {
          "internalType": "address",
          "name": "owner",
          "type": "address"
        }
      ],
      "name": "ERC721IncorrectOwner",
      "type": "error"
    },
    {
      "inputs": [
        {
          "internalType": "address",
          "name": "operator",
          "type": "address"
        },
        {
          "internalType": "uint256",
          "name": "tokenId",
          "type": "uint256"
        }
      ],
      "name": "ERC721InsufficientApproval",
      "type": "error"
    },
    {
      "inputs": [
        {
          "internalType": "address",
          "name": "approver",
          "type": "address"
        }
      ],
      "name": "ERC721InvalidApprover",
      "type": "error"
    },
    {
      "inputs": [
        {
          "internalType": "address",
          "name": "operator",
          "type": "address"
        }
      ],
      "name": "ERC721InvalidOperator",
      "type": "error"
    },
    {
      "inputs": [
        {
          "internalType": "address",
          "name": "owner",
          "type": "address"
        }
      ],
      "name": "ERC721InvalidOwner",
      "type": "error"
    },
    {
      "inputs": [
        {
          "internalType": "address",
          "name": "receiver",
          "type": "address"
        }
      ],
      "name": "ERC721InvalidReceiver",
      "type": "error"
    },
    {
      "inputs": [
        {
          "internalType": "address",
          "name": "sender",
          "type": "address"
        }
      ],
      "name": "ERC721InvalidSender",
      "type": "error"
    },
    {
      "inputs": [
        {
          "internalType": "uint256",
          "name": "tokenId",
          "type": "uint256"
        }
      ],
      "name": "ERC721NonexistentToken",
      "type": "error"
    },
    {
      "inputs": [
        {
          "internalType": "address",
          "name": "owner",
          "type": "address"
        }
      ],
      "name": "OwnableInvalidOwner",
      "type": "error"
    },
    {
      "inputs": [
        {
          "internalType": "address",
          "name": "account",
          "type": "address"
        }
      ],
      "name": "OwnableUnauthorizedAccount",
      "type": "error"
    },
    {
      "anonymous": false,
      "inputs": [
        {
          "indexed": true,
          "internalType": "address",
          "name": "owner",
          "type": "address"
        },
        {
          "indexed": true,
          "internalType": "address",
          "name": "approved",
          "type": "address"
        },
        {
          "indexed": true,
          "internalType": "uint256",
          "name": "tokenId",
          "type": "uint256"
        }
      ],
      "name": "Approval",
      "type": "event"
    },
    {
      "anonymous": false,
      "inputs": [
        {
          "indexed": true,
          "internalType": "address",
          "name": "owner",
          "type": "address"
        },
        {
          "indexed": true,
          "internalType": "address",
          "name": "operator",
          "type": "address"
        },
        {
          "indexed": false,
          "internalType": "bool",
          "name": "approved",
          "type": "bool"
        }
      ],
      "name": "ApprovalForAll",
      "type": "event"
    },
    {
      "anonymous": false,
      "inputs": [
        {
          "indexed": true,
          "internalType": "address",
          "name": "previousOwner",
          "type": "address"
        },
        {
          "indexed": true,
          "internalType": "address",
          "name": "newOwner",
          "type": "address"
        }
      ],
      "name": "OwnershipTransferred",
      "type": "event"
    },
    {
      "anonymous": false,
      "inputs": [
        {
          "indexed": true,
          "internalType": "address",
          "name": "from",
          "type": "address"
        },
        {
          "indexed": true,
          "internalType": "address",
          "name": "to",
          "type": "address"
        },
        {
          "indexed": true,
          "internalType": "uint256",
          "name": "tokenId",
          "type": "uint256"
        }
      ],
      "name": "Transfer",
      "type": "event"
    },
    {
      "inputs": [
        {
          "internalType": "address",
          "name": "to",
          "type": "address"
        },
        {
          "internalType": "uint256",
          "name": "tokenId",
          "type": "uint256"
        }
      ],
      "name": "approve",
      "outputs": [],
      "stateMutability": "nonpayable",
      "type": "function"
    },
    {
      "inputs": [
        {
          "internalType": "address",
          "name": "owner",
          "type": "address"
        }
      ],
      "name": "balanceOf",
      "outputs": [
        {
          "internalType": "uint256",
          "name": "",
          "type": "uint256"
        }
      ],
      "stateMutability": "view",
      "type": "function",
      "constant": true
    },
    {
      "inputs": [
        {
          "internalType": "uint256",
          "name": "tokenId",
          "type": "uint256"
        }
      ],
      "name": "getApproved",
      "outputs": [
        {
          "internalType": "address",
          "name": "",
          "type": "address"
        }
      ],
      "stateMutability": "view",
      "type": "function",
      "constant": true
    },
    {
      "inputs": [
        {
          "internalType": "address",
          "name": "owner",
          "type": "address"
        },
        {
          "internalType": "address",
          "name": "operator",
          "type": "address"
        }
      ],
      "name": "isApprovedForAll",
      "outputs": [
        {
          "internalType": "bool",
          "name": "",
          "type": "bool"
        }
      ],
      "stateMutability": "view",
      "type": "function",
      "constant": true
    },
    {
      "inputs": [],
      "name": "name",
      "outputs": [
        {
          "internalType": "string",
          "name": "",
          "type": "string"
        }
      ],
      "stateMutability": "view",
      "type": "function",
      "constant": true
    },
    {
      "inputs": [],
      "name": "owner",
      "outputs": [
        {
          "internalType": "address",
          "name": "",
          "type": "address"
        }
      ],
      "stateMutability": "view",
      "type": "function",
      "constant": true
    },
    {
      "inputs": [
        {
          "internalType": "uint256",
          "name": "tokenId",
          "type": "uint256"
        }
      ],
      "name": "ownerOf",
      "outputs": [
        {
          "internalType": "address",
          "name": "",
          "type": "address"
        }
      ],
      "stateMutability": "view",
      "type": "function",
      "constant": true
    },
    {
      "inputs": [],
      "name": "renounceOwnership",
      "outputs": [],
      "stateMutability": "nonpayable",
      "type": "function"
    },
    {
      "inputs": [
        {
          "internalType": "address",
          "name": "from",
          "type": "address"
        },
        {
          "internalType": "address",
          "name": "to",
          "type": "address"
        },
        {
          "internalType": "uint256",
          "name": "tokenId",
          "type": "uint256"
        }
      ],
      "name": "safeTransferFrom",
      "outputs": [],
      "stateMutability": "nonpayable",
      "type": "function"
    },
    {
      "inputs": [
        {
          "internalType": "address",
          "name": "from",
          "type": "address"
        },
        {
          "internalType": "address",
          "name": "to",
          "type": "address"
        },
        {
          "internalType": "uint256",
          "name": "tokenId",
          "type": "uint256"
        },
        {
          "internalType": "bytes",
          "name": "data",
          "type": "bytes"
        }
      ],
      "name": "safeTransferFrom",
      "outputs": [],
      "stateMutability": "nonpayable",
      "type": "function"
    },
    {
      "inputs": [
        {
          "internalType": "address",
          "name": "operator",
          "type": "address"
        },
        {
          "internalType": "bool",
          "name": "approved",
          "type": "bool"
        }
      ],
      "name": "setApprovalForAll",
      "outputs": [],
      "stateMutability": "nonpayable",
      "type": "function"
    },
    {
      "inputs": [
        {
          "internalType": "bytes4",
          "name": "interfaceId",
          "type": "bytes4"
        }
      ],
      "name": "supportsInterface",
      "outputs": [
        {
          "internalType": "bool",
          "name": "",
          "type": "bool"
        }
      ],
      "stateMutability": "view",
      "type": "function",
      "constant": true
    },
    {
      "inputs": [],
      "name": "symbol",
      "outputs": [
        {
          "internalType": "string",
          "name": "",
          "type": "string"
        }
      ],
      "stateMutability": "view",
      "type": "function",
      "constant": true
    },
    {
      "inputs": [
        {
          "internalType": "address",
          "name": "from",
          "type": "address"
        },
        {
          "internalType": "address",
          "name": "to",
          "type": "address"
        },
        {
          "internalType": "uint256",
          "name": "tokenId",
          "type": "uint256"
        }
      ],
      "name": "transferFrom",
      "outputs": [],
      "stateMutability": "nonpayable",
      "type": "function"
    },
    {
      "inputs": [
        {
          "internalType": "address",
          "name": "newOwner",
          "type": "address"
        }
      ],
      "name": "transferOwnership",
      "outputs": [],
      "stateMutability": "nonpayable",
      "type": "function"
    },
    {
      "inputs": [
        {
          "internalType": "address",
          "name": "to",
          "type": "address"
        },
        {
          "internalType": "string",
          "name": "uri",
          "type": "string"
        }
      ],
      "name": "mint",
      "outputs": [],
      "stateMutability": "nonpayable",
      "type": "function"
    },
    {
      "inputs": [
        {
          "internalType": "uint256",
          "name": "tokenId",
          "type": "uint256"
        }
      ],
      "name": "tokenURI",
      "outputs": [
        {
          "internalType": "string",
          "name": "",
          "type": "string"
        }
      ],
      "stateMutability": "view",
      "type": "function",
      "constant": true
    }
  ],
  "bytecode": "0x6080604052600160075534801562000015575f80fd5b50604051620027513803806200275183398181016040528101906200003b919062000281565b806040518060400160405280600881526020017f49566f74654e66740000000000000000000000000000000000000000000000008152506040518060400160405280600381526020017f4956540000000000000000000000000000000000000000000000000000000000815250815f9081620000b8919062000515565b508060019081620000ca919062000515565b5050505f73ffffffffffffffffffffffffffffffffffffffff168173ffffffffffffffffffffffffffffffffffffffff160362000140575f6040517f1e4fbdf70000000000000000000000000000000000000000000000000000000081526004016200013791906200060a565b60405180910390fd5b62000151816200015960201b60201c565b505062000625565b5f60065f9054906101000a900473ffffffffffffffffffffffffffffffffffffffff1690508160065f6101000a81548173ffffffffffffffffffffffffffffffffffffffff021916908373ffffffffffffffffffffffffffffffffffffffff1602179055508173ffffffffffffffffffffffffffffffffffffffff168173ffffffffffffffffffffffffffffffffffffffff167f8be0079c531659141344cd1fd0a4f28419497f9722a3daafe3b4186f6b6457e060405160405180910390a35050565b5f80fd5b5f73ffffffffffffffffffffffffffffffffffffffff82169050919050565b5f6200024b8262000220565b9050919050565b6200025d816200023f565b811462000268575f80fd5b50565b5f815190506200027b8162000252565b92915050565b5f602082840312156200029957620002986200021c565b5b5f620002a8848285016200026b565b91505092915050565b5f81519050919050565b7f4e487b71000000000000000000000000000000000000000000000000000000005f52604160045260245ffd5b7f4e487b71000000000000000000000000000000000000000000000000000000005f52602260045260245ffd5b5f60028204905060018216806200032d57607f821691505b602082108103620003435762000342620002e8565b5b50919050565b5f819050815f5260205f209050919050565b5f6020601f8301049050919050565b5f82821b905092915050565b5f60088302620003a77fffffffffffffffffffffffffffffffffffffffffffffffffffffffffffffffff826200036a565b620003b386836200036a565b95508019841693508086168417925050509392505050565b5f819050919050565b5f819050919050565b5f620003fd620003f7620003f184620003cb565b620003d4565b620003cb565b9050919050565b5f819050919050565b6200041883620003dd565b62000430620004278262000404565b84845462000376565b825550505050565b5f90565b6200044662000438565b620004538184846200040d565b505050565b5b818110156200047a576200046e5f826200043c565b60018101905062000459565b5050565b601f821115620004c957620004938162000349565b6200049e846200035b565b81016020851015620004ae578190505b620004c6620004bd856200035b565b83018262000458565b50505b505050565b5f82821c905092915050565b5f620004eb5f1984600802620004ce565b1980831691505092915050565b5f620005058383620004da565b9150826002028217905092915050565b6200052082620002b1565b67ffffffffffffffff8111156200053c576200053b620002bb565b5b62000548825462000315565b620005558282856200047e565b5f60209050601f8311600181146200058b575f841562000576578287015190505b620005828582620004f8565b865550620005f1565b601f1984166200059b8662000349565b5f5b82811015620005c4578489015182556001820191506020850194506020810190506200059d565b86831015620005e45784890151620005e0601f891682620004da565b8355505b6001600288020188555050505b505050505050565b62000604816200023f565b82525050565b5f6020820190506200061f5f830184620005f9565b92915050565b61211e80620006335f395ff3fe608060405234801561000f575f80fd5b5060043610610109575f3560e01c8063715018a6116100a0578063b88d4fde1161006f578063b88d4fde146102a1578063c87b56dd146102bd578063d0def521146102ed578063e985e9c514610309578063f2fde38b1461033957610109565b8063715018a61461023f5780638da5cb5b1461024957806395d89b4114610267578063a22cb4651461028557610109565b806323b872dd116100dc57806323b872dd146101a757806342842e0e146101c35780636352211e146101df57806370a082311461020f57610109565b806301ffc9a71461010d57806306fdde031461013d578063081812fc1461015b578063095ea7b31461018b575b5f80fd5b61012760048036038101906101229190611661565b610355565b60405161013491906116a6565b60405180910390f35b610145610436565b6040516101529190611749565b60405180910390f35b6101756004803603810190610170919061179c565b6104c5565b6040516101829190611806565b60405180910390f35b6101a560048036038101906101a09190611849565b6104e0565b005b6101c160048036038101906101bc9190611887565b6104f6565b005b6101dd60048036038101906101d89190611887565b6105f5565b005b6101f960048036038101906101f4919061179c565b610614565b6040516102069190611806565b60405180910390f35b610229600480360381019061022491906118d7565b610625565b6040516102369190611911565b60405180910390f35b6102476106db565b005b6102516106ee565b60405161025e9190611806565b60405180910390f35b61026f610716565b60405161027c9190611749565b60405180910390f35b61029f600480360381019061029a9190611954565b6107a6565b005b6102bb60048036038101906102b69190611abe565b6107bc565b005b6102d760048036038101906102d2919061179c565b6107d9565b6040516102e49190611749565b60405180910390f35b61030760048036038101906103029190611bdc565b61087a565b005b610323600480360381019061031e9190611c36565b6108ca565b60405161033091906116a6565b60405180910390f35b610353600480360381019061034e91906118d7565b610958565b005b5f7f80ac58cd000000000000000000000000000000000000000000000000000000007bffffffffffffffffffffffffffffffffffffffffffffffffffffffff1916827bffffffffffffffffffffffffffffffffffffffffffffffffffffffff1916148061041f57507f5b5e139f000000000000000000000000000000000000000000000000000000007bffffffffffffffffffffffffffffffffffffffffffffffffffffffff1916827bffffffffffffffffffffffffffffffffffffffffffffffffffffffff1916145b8061042f575061042e826109dc565b5b9050919050565b60605f805461044490611ca1565b80601f016020809104026020016040519081016040528092919081815260200182805461047090611ca1565b80156104bb5780601f10610492576101008083540402835291602001916104bb565b820191905f5260205f20905b81548152906001019060200180831161049e57829003601f168201915b5050505050905090565b5f6104cf82610a45565b506104d982610acb565b9050919050565b6104f282826104ed610b04565b610b0b565b5050565b5f73ffffffffffffffffffffffffffffffffffffffff168273ffffffffffffffffffffffffffffffffffffffff1603610566575f6040517f64a0ae9200000000000000000000000000000000000000000000000000000000815260040161055d9190611806565b60405180910390fd5b5f6105798383610574610b04565b610b1d565b90508373ffffffffffffffffffffffffffffffffffffffff168173ffffffffffffffffffffffffffffffffffffffff16146105ef578382826040517f64283d7b0000000000000000000000000000000000000000000000000000000081526004016105e693929190611cd1565b60405180910390fd5b50505050565b61060f83838360405180602001604052805f8152506107bc565b505050565b5f61061e82610a45565b9050919050565b5f8073ffffffffffffffffffffffffffffffffffffffff168273ffffffffffffffffffffffffffffffffffffffff1603610696575f6040517f89c62b6400000000000000000000000000000000000000000000000000000000815260040161068d9190611806565b60405180910390fd5b60035f8373ffffffffffffffffffffffffffffffffffffffff1673ffffffffffffffffffffffffffffffffffffffff1681526020019081526020015f20549050919050565b6106e3610d28565b6106ec5f610daf565b565b5f60065f9054906101000a900473ffffffffffffffffffffffffffffffffffffffff16905090565b60606001805461072590611ca1565b80601f016020809104026020016040519081016040528092919081815260200182805461075190611ca1565b801561079c5780601f106107735761010080835404028352916020019161079c565b820191905f5260205f20905b81548152906001019060200180831161077f57829003601f168201915b5050505050905090565b6107b86107b1610b04565b8383610e72565b5050565b6107c78484846104f6565b6107d384848484610fdb565b50505050565b606060085f8381526020019081526020015f2080546107f790611ca1565b80601f016020809104026020016040519081016040528092919081815260200182805461082390611ca1565b801561086e5780601f106108455761010080835404028352916020019161086e565b820191905f5260205f20905b81548152906001019060200180831161085157829003601f168201915b50505050509050919050565b610882610d28565b61088e8260075461118d565b8060085f60075481526020019081526020015f2090816108ae9190611ea3565b5060075f8154809291906108c190611f9f565b91905055505050565b5f60055f8473ffffffffffffffffffffffffffffffffffffffff1673ffffffffffffffffffffffffffffffffffffffff1681526020019081526020015f205f8373ffffffffffffffffffffffffffffffffffffffff1673ffffffffffffffffffffffffffffffffffffffff1681526020019081526020015f205f9054906101000a900460ff16905092915050565b610960610d28565b5f73ffffffffffffffffffffffffffffffffffffffff168173ffffffffffffffffffffffffffffffffffffffff16036109d0575f6040517f1e4fbdf70000000000000000000000000000000000000000000000000000000081526004016109c79190611806565b60405180910390fd5b6109d981610daf565b50565b5f7f01ffc9a7000000000000000000000000000000000000000000000000000000007bffffffffffffffffffffffffffffffffffffffffffffffffffffffff1916827bffffffffffffffffffffffffffffffffffffffffffffffffffffffff1916149050919050565b5f80610a5083611280565b90505f73ffffffffffffffffffffffffffffffffffffffff168173ffffffffffffffffffffffffffffffffffffffff1603610ac257826040517f7e273289000000000000000000000000000000000000000000000000000000008152600401610ab99190611911565b60405180910390fd5b80915050919050565b5f60045f8381526020019081526020015f205f9054906101000a900473ffffffffffffffffffffffffffffffffffffffff169050919050565b5f33905090565b610b1883838360016112b9565b505050565b5f80610b2884611280565b90505f73ffffffffffffffffffffffffffffffffffffffff168373ffffffffffffffffffffffffffffffffffffffff1614610b6957610b68818486611478565b5b5f73ffffffffffffffffffffffffffffffffffffffff168173ffffffffffffffffffffffffffffffffffffffff1614610bf457610ba85f855f806112b9565b600160035f8373ffffffffffffffffffffffffffffffffffffffff1673ffffffffffffffffffffffffffffffffffffffff1681526020019081526020015f205f82825403925050819055505b5f73ffffffffffffffffffffffffffffffffffffffff168573ffffffffffffffffffffffffffffffffffffffff1614610c7357600160035f8773ffffffffffffffffffffffffffffffffffffffff1673ffffffffffffffffffffffffffffffffffffffff1681526020019081526020015f205f82825401925050819055505b8460025f8681526020019081526020015f205f6101000a81548173ffffffffffffffffffffffffffffffffffffffff021916908373ffffffffffffffffffffffffffffffffffffffff160217905550838573ffffffffffffffffffffffffffffffffffffffff168273ffffffffffffffffffffffffffffffffffffffff167fddf252ad1be2c89b69c2b068fc378daa952ba7f163c4a11628f55a4df523b3ef60405160405180910390a4809150509392505050565b610d30610b04565b73ffffffffffffffffffffffffffffffffffffffff16610d4e6106ee565b73ffffffffffffffffffffffffffffffffffffffff1614610dad57610d71610b04565b6040517f118cdaa7000000000000000000000000000000000000000000000000000000008152600401610da49190611806565b60405180910390fd5b565b5f60065f9054906101000a900473ffffffffffffffffffffffffffffffffffffffff1690508160065f6101000a81548173ffffffffffffffffffffffffffffffffffffffff021916908373ffffffffffffffffffffffffffffffffffffffff1602179055508173ffffffffffffffffffffffffffffffffffffffff168173ffffffffffffffffffffffffffffffffffffffff167f8be0079c531659141344cd1fd0a4f28419497f9722a3daafe3b4186f6b6457e060405160405180910390a35050565b5f73ffffffffffffffffffffffffffffffffffffffff168273ffffffffffffffffffffffffffffffffffffffff1603610ee257816040517f5b08ba18000000000000000000000000000000000000000000000000000000008152600401610ed99190611806565b60405180910390fd5b8060055f8573ffffffffffffffffffffffffffffffffffffffff1673ffffffffffffffffffffffffffffffffffffffff1681526020019081526020015f205f8473ffffffffffffffffffffffffffffffffffffffff1673ffffffffffffffffffffffffffffffffffffffff1681526020019081526020015f205f6101000a81548160ff0219169083151502179055508173ffffffffffffffffffffffffffffffffffffffff168373ffffffffffffffffffffffffffffffffffffffff167f17307eab39ab6107e8899845ad3d59bd9653f200f220920489ca2b5937696c3183604051610fce91906116a6565b60405180910390a3505050565b5f8373ffffffffffffffffffffffffffffffffffffffff163b1115611187578273ffffffffffffffffffffffffffffffffffffffff1663150b7a0261101e610b04565b8685856040518563ffffffff1660e01b81526004016110409493929190612038565b6020604051808303815f875af192505050801561107b57506040513d601f19601f820116820180604052508101906110789190612096565b60015b6110fc573d805f81146110a9576040519150601f19603f3d011682016040523d82523d5f602084013e6110ae565b606091505b505f8151036110f457836040517f64a0ae920000000000000000000000000000000000000000000000000000000081526004016110eb9190611806565b60405180910390fd5b805181602001fd5b63150b7a0260e01b7bffffffffffffffffffffffffffffffffffffffffffffffffffffffff1916817bffffffffffffffffffffffffffffffffffffffffffffffffffffffff19161461118557836040517f64a0ae9200000000000000000000000000000000000000000000000000000000815260040161117c9190611806565b60405180910390fd5b505b50505050565b5f73ffffffffffffffffffffffffffffffffffffffff168273ffffffffffffffffffffffffffffffffffffffff16036111fd575f6040517f64a0ae920000000000000000000000000000000000000000000000000000000081526004016111f49190611806565b60405180910390fd5b5f61120983835f610b1d565b90505f73ffffffffffffffffffffffffffffffffffffffff168173ffffffffffffffffffffffffffffffffffffffff161461127b575f6040517f73c6ac6e0000000000000000000000000000000000000000000000000000000081526004016112729190611806565b60405180910390fd5b505050565b5f60025f8381526020019081526020015f205f9054906101000a900473ffffffffffffffffffffffffffffffffffffffff169050919050565b80806112f157505f73ffffffffffffffffffffffffffffffffffffffff168273ffffffffffffffffffffffffffffffffffffffff1614155b15611423575f61130084610a45565b90505f73ffffffffffffffffffffffffffffffffffffffff168373ffffffffffffffffffffffffffffffffffffffff161415801561136a57508273ffffffffffffffffffffffffffffffffffffffff168173ffffffffffffffffffffffffffffffffffffffff1614155b801561137d575061137b81846108ca565b155b156113bf57826040517fa9fbf51f0000000000000000000000000000000000000000000000000000000081526004016113b69190611806565b60405180910390fd5b811561142157838573ffffffffffffffffffffffffffffffffffffffff168273ffffffffffffffffffffffffffffffffffffffff167f8c5be1e5ebec7d5bd14f71427d1e84f3dd0314c0f7b2291e5b200ac8c7c3b92560405160405180910390a45b505b8360045f8581526020019081526020015f205f6101000a81548173ffffffffffffffffffffffffffffffffffffffff021916908373ffffffffffffffffffffffffffffffffffffffff16021790555050505050565b61148383838361153b565b611536575f73ffffffffffffffffffffffffffffffffffffffff168373ffffffffffffffffffffffffffffffffffffffff16036114f757806040517f7e2732890000000000000000000000000000000000000000000000000000000081526004016114ee9190611911565b60405180910390fd5b81816040517f177e802f00000000000000000000000000000000000000000000000000000000815260040161152d9291906120c1565b60405180910390fd5b505050565b5f8073ffffffffffffffffffffffffffffffffffffffff168373ffffffffffffffffffffffffffffffffffffffff16141580156115f257508273ffffffffffffffffffffffffffffffffffffffff168473ffffffffffffffffffffffffffffffffffffffff1614806115b357506115b284846108ca565b5b806115f157508273ffffffffffffffffffffffffffffffffffffffff166115d983610acb565b73ffffffffffffffffffffffffffffffffffffffff16145b5b90509392505050565b5f604051905090565b5f80fd5b5f80fd5b5f7fffffffff0000000000000000000000000000000000000000000000000000000082169050919050565b6116408161160c565b811461164a575f80fd5b50565b5f8135905061165b81611637565b92915050565b5f6020828403121561167657611675611604565b5b5f6116838482850161164d565b91505092915050565b5f8115159050919050565b6116a08161168c565b82525050565b5f6020820190506116b95f830184611697565b92915050565b5f81519050919050565b5f82825260208201905092915050565b5f5b838110156116f65780820151818401526020810190506116db565b5f8484015250505050565b5f601f19601f8301169050919050565b5f61171b826116bf565b61172581856116c9565b93506117358185602086016116d9565b61173e81611701565b840191505092915050565b5f6020820190508181035f8301526117618184611711565b905092915050565b5f819050919050565b61177b81611769565b8114611785575f80fd5b50565b5f8135905061179681611772565b92915050565b5f602082840312156117b1576117b0611604565b5b5f6117be84828501611788565b91505092915050565b5f73ffffffffffffffffffffffffffffffffffffffff82169050919050565b5f6117f0826117c7565b9050919050565b611800816117e6565b82525050565b5f6020820190506118195f8301846117f7565b92915050565b611828816117e6565b8114611832575f80fd5b50565b5f813590506118438161181f565b92915050565b5f806040838503121561185f5761185e611604565b5b5f61186c85828601611835565b925050602061187d85828601611788565b9150509250929050565b5f805f6060848603121561189e5761189d611604565b5b5f6118ab86828701611835565b93505060206118bc86828701611835565b92505060406118cd86828701611788565b9150509250925092565b5f602082840312156118ec576118eb611604565b5b5f6118f984828501611835565b91505092915050565b61190b81611769565b82525050565b5f6020820190506119245f830184611902565b92915050565b6119338161168c565b811461193d575f80fd5b50565b5f8135905061194e8161192a565b92915050565b5f806040838503121561196a57611969611604565b5b5f61197785828601611835565b925050602061198885828601611940565b9150509250929050565b5f80fd5b5f80fd5b7f4e487b71000000000000000000000000000000000000000000000000000000005f52604160045260245ffd5b6119d082611701565b810181811067ffffffffffffffff821117156119ef576119ee61199a565b5b80604052505050565b5f611a016115fb565b9050611a0d82826119c7565b919050565b5f67ffffffffffffffff821115611a2c57611a2b61199a565b5b611a3582611701565b9050602081019050919050565b828183375f83830152505050565b5f611a62611a5d84611a12565b6119f8565b905082815260208101848484011115611a7e57611a7d611996565b5b611a89848285611a42565b509392505050565b5f82601f830112611aa557611aa4611992565b5b8135611ab5848260208601611a50565b91505092915050565b5f805f8060808587031215611ad657611ad5611604565b5b5f611ae387828801611835565b9450506020611af487828801611835565b9350506040611b0587828801611788565b925050606085013567ffffffffffffffff811115611b2657611b25611608565b5b611b3287828801611a91565b91505092959194509250565b5f67ffffffffffffffff821115611b5857611b5761199a565b5b611b6182611701565b9050602081019050919050565b5f611b80611b7b84611b3e565b6119f8565b905082815260208101848484011115611b9c57611b9b611996565b5b611ba7848285611a42565b509392505050565b5f82601f830112611bc357611bc2611992565b5b8135611bd3848260208601611b6e565b91505092915050565b5f8060408385031215611bf257611bf1611604565b5b5f611bff85828601611835565b925050602083013567ffffffffffffffff811115611c2057611c1f611608565b5b611c2c85828601611baf565b9150509250929050565b5f8060408385031215611c4c57611c4b611604565b5b5f611c5985828601611835565b9250506020611c6a85828601611835565b9150509250929050565b7f4e487b71000000000000000000000000000000000000000000000000000000005f52602260045260245ffd5b5f6002820490506001821680611cb857607f821691505b602082108103611ccb57611cca611c74565b5b50919050565b5f606082019050611ce45f8301866117f7565b611cf16020830185611902565b611cfe60408301846117f7565b949350505050565b5f819050815f5260205f209050919050565b5f6020601f8301049050919050565b5f82821b905092915050565b5f60088302611d627fffffffffffffffffffffffffffffffffffffffffffffffffffffffffffffffff82611d27565b611d6c8683611d27565b95508019841693508086168417925050509392505050565b5f819050919050565b5f611da7611da2611d9d84611769565b611d84565b611769565b9050919050565b5f819050919050565b611dc083611d8d565b611dd4611dcc82611dae565b848454611d33565b825550505050565b5f90565b611de8611ddc565b611df3818484611db7565b505050565b5b81811015611e1657611e0b5f82611de0565b600181019050611df9565b5050565b601f821115611e5b57611e2c81611d06565b611e3584611d18565b81016020851015611e44578190505b611e58611e5085611d18565b830182611df8565b50505b505050565b5f82821c905092915050565b5f611e7b5f1984600802611e60565b1980831691505092915050565b5f611e938383611e6c565b9150826002028217905092915050565b611eac826116bf565b67ffffffffffffffff811115611ec557611ec461199a565b5b611ecf8254611ca1565b611eda828285611e1a565b5f60209050601f831160018114611f0b575f8415611ef9578287015190505b611f038582611e88565b865550611f6a565b601f198416611f1986611d06565b5f5b82811015611f4057848901518255600182019150602085019450602081019050611f1b565b86831015611f5d5784890151611f59601f891682611e6c565b8355505b6001600288020188555050505b505050505050565b7f4e487b71000000000000000000000000000000000000000000000000000000005f52601160045260245ffd5b5f611fa982611769565b91507fffffffffffffffffffffffffffffffffffffffffffffffffffffffffffffffff8203611fdb57611fda611f72565b5b600182019050919050565b5f81519050919050565b5f82825260208201905092915050565b5f61200a82611fe6565b6120148185611ff0565b93506120248185602086016116d9565b61202d81611701565b840191505092915050565b5f60808201905061204b5f8301876117f7565b61205860208301866117f7565b6120656040830185611902565b81810360608301526120778184612000565b905095945050505050565b5f8151905061209081611637565b92915050565b5f602082840312156120ab576120aa611604565b5b5f6120b884828501612082565b91505092915050565b5f6040820190506120d45f8301856117f7565b6120e16020830184611902565b939250505056fea2646970667358221220b6483535f5a4f8c724618f9105b6aec3815f3b4e64d8cb163c8616eddf9a588464736f6c63430008140033",
  "immutableReferences": {},
  "source": "// SPDX-License-Identifier: MIT\r\npragma solidity ^0.8.20;\r\n\r\nimport {Ownable} from \"@openzeppelin/contracts/access/Ownable.sol\";\r\nimport {ERC721} from \"@openzeppelin/contracts/token/ERC721/ERC721.sol\";\r\n\r\ncontract VoteNft is ERC721, Ownable {\r\n    uint256 private _tokenId = 1;\r\n    mapping(uint256 => string) private _tokenURIs;\r\n\r\n    constructor(address voteCore) ERC721(\"IVoteNft\", \"IVT\") Ownable(voteCore) {}\r\n\r\n    function mint(address to, string memory uri) external onlyOwner {\r\n        _mint(to, _tokenId);\r\n        _tokenURIs[_tokenId] = uri;\r\n\r\n        _tokenId++;\r\n    }\r\n\r\n    function tokenURI(\r\n        uint256 tokenId\r\n    ) public view virtual override returns (string memory) {\r\n        return _tokenURIs[tokenId];\r\n    }\r\n}\r\n",
  "sourcePath": "C:\\Users\\DELL\\Documents\\i-vote\\solidity\\contracts\\VoteNft.sol",
  "compiler": {
    "name": "solc",
    "version": "0.8.20+commit.a1b79de6.Emscripten.clang"
  },
  "schemaVersion": "3.4.11",
  "updatedAt": "2023-11-25T11:55:56.522Z",
  "networkType": "ethereum",
  "devdoc": {
    "errors": {
      "ERC721IncorrectOwner(address,uint256,address)": [
        {
          "details": "Indicates an error related to the ownership over a particular token. Used in transfers.",
          "params": {
            "owner": "Address of the current owner of a token.",
            "sender": "Address whose tokens are being transferred.",
            "tokenId": "Identifier number of a token."
          }
        }
      ],
      "ERC721InsufficientApproval(address,uint256)": [
        {
          "details": "Indicates a failure with the `operator`s approval. Used in transfers.",
          "params": {
            "operator": "Address that may be allowed to operate on tokens without being their owner.",
            "tokenId": "Identifier number of a token."
          }
        }
      ],
      "ERC721InvalidApprover(address)": [
        {
          "details": "Indicates a failure with the `approver` of a token to be approved. Used in approvals.",
          "params": {
            "approver": "Address initiating an approval operation."
          }
        }
      ],
      "ERC721InvalidOperator(address)": [
        {
          "details": "Indicates a failure with the `operator` to be approved. Used in approvals.",
          "params": {
            "operator": "Address that may be allowed to operate on tokens without being their owner."
          }
        }
      ],
      "ERC721InvalidOwner(address)": [
        {
          "details": "Indicates that an address can't be an owner. For example, `address(0)` is a forbidden owner in EIP-20. Used in balance queries.",
          "params": {
            "owner": "Address of the current owner of a token."
          }
        }
      ],
      "ERC721InvalidReceiver(address)": [
        {
          "details": "Indicates a failure with the token `receiver`. Used in transfers.",
          "params": {
            "receiver": "Address to which tokens are being transferred."
          }
        }
      ],
      "ERC721InvalidSender(address)": [
        {
          "details": "Indicates a failure with the token `sender`. Used in transfers.",
          "params": {
            "sender": "Address whose tokens are being transferred."
          }
        }
      ],
      "ERC721NonexistentToken(uint256)": [
        {
          "details": "Indicates a `tokenId` whose `owner` is the zero address.",
          "params": {
            "tokenId": "Identifier number of a token."
          }
        }
      ],
      "OwnableInvalidOwner(address)": [
        {
          "details": "The owner is not a valid owner account. (eg. `address(0)`)"
        }
      ],
      "OwnableUnauthorizedAccount(address)": [
        {
          "details": "The caller account is not authorized to perform an operation."
        }
      ]
    },
    "events": {
      "Approval(address,address,uint256)": {
        "details": "Emitted when `owner` enables `approved` to manage the `tokenId` token."
      },
      "ApprovalForAll(address,address,bool)": {
        "details": "Emitted when `owner` enables or disables (`approved`) `operator` to manage all of its assets."
      },
      "Transfer(address,address,uint256)": {
        "details": "Emitted when `tokenId` token is transferred from `from` to `to`."
      }
    },
    "kind": "dev",
    "methods": {
      "approve(address,uint256)": {
        "details": "See {IERC721-approve}."
      },
      "balanceOf(address)": {
        "details": "See {IERC721-balanceOf}."
      },
      "getApproved(uint256)": {
        "details": "See {IERC721-getApproved}."
      },
      "isApprovedForAll(address,address)": {
        "details": "See {IERC721-isApprovedForAll}."
      },
      "name()": {
        "details": "See {IERC721Metadata-name}."
      },
      "owner()": {
        "details": "Returns the address of the current owner."
      },
      "ownerOf(uint256)": {
        "details": "See {IERC721-ownerOf}."
      },
      "renounceOwnership()": {
        "details": "Leaves the contract without owner. It will not be possible to call `onlyOwner` functions. Can only be called by the current owner. NOTE: Renouncing ownership will leave the contract without an owner, thereby disabling any functionality that is only available to the owner."
      },
      "safeTransferFrom(address,address,uint256)": {
        "details": "See {IERC721-safeTransferFrom}."
      },
      "safeTransferFrom(address,address,uint256,bytes)": {
        "details": "See {IERC721-safeTransferFrom}."
      },
      "setApprovalForAll(address,bool)": {
        "details": "See {IERC721-setApprovalForAll}."
      },
      "supportsInterface(bytes4)": {
        "details": "See {IERC165-supportsInterface}."
      },
      "symbol()": {
        "details": "See {IERC721Metadata-symbol}."
      },
      "tokenURI(uint256)": {
        "details": "See {IERC721Metadata-tokenURI}."
      },
      "transferFrom(address,address,uint256)": {
        "details": "See {IERC721-transferFrom}."
      },
      "transferOwnership(address)": {
        "details": "Transfers ownership of the contract to a new account (`newOwner`). Can only be called by the current owner."
      }
    },
    "version": 1
  },
  "userdoc": {
    "kind": "user",
    "methods": {},
    "version": 1
  }
}