{
  "contractName": "VoteCore",
  "abi": [
    {
      "inputs": [],
      "stateMutability": "nonpayable",
      "type": "constructor"
    },
    {
      "inputs": [],
      "name": "EnforcedPause",
      "type": "error"
    },
    {
      "inputs": [],
      "name": "ExpectedPause",
      "type": "error"
    },
    {
      "inputs": [
        {
          "internalType": "address",
          "name": "owner",
          "type": "address"
        }
      ],
      "name": "OwnableInvalidOwner",
      "type": "error"
    },
    {
      "inputs": [
        {
          "internalType": "address",
          "name": "account",
          "type": "address"
        }
      ],
      "name": "OwnableUnauthorizedAccount",
      "type": "error"
    },
    {
      "anonymous": false,
      "inputs": [
        {
          "indexed": false,
          "internalType": "address",
          "name": "agentId",
          "type": "address"
        },
        {
          "indexed": false,
          "internalType": "bytes",
          "name": "data",
          "type": "bytes"
        },
        {
          "indexed": false,
          "internalType": "uint256",
          "name": "unit",
          "type": "uint256"
        }
      ],
      "name": "AgentCreated",
      "type": "event"
    },
    {
      "anonymous": false,
      "inputs": [
        {
          "indexed": false,
          "internalType": "address",
          "name": "managerId",
          "type": "address"
        },
        {
          "indexed": false,
          "internalType": "bytes",
          "name": "data",
          "type": "bytes"
        },
        {
          "indexed": false,
          "internalType": "enum PollingLib.State",
          "name": "state",
          "type": "uint8"
        }
      ],
      "name": "ManagerCreated",
      "type": "event"
    },
    {
      "anonymous": false,
      "inputs": [
        {
          "indexed": true,
          "internalType": "address",
          "name": "previousOwner",
          "type": "address"
        },
        {
          "indexed": true,
          "internalType": "address",
          "name": "newOwner",
          "type": "address"
        }
      ],
      "name": "OwnershipTransferred",
      "type": "event"
    },
    {
      "anonymous": false,
      "inputs": [
        {
          "indexed": false,
          "internalType": "uint256",
          "name": "partyId",
          "type": "uint256"
        },
        {
          "indexed": false,
          "internalType": "bytes",
          "name": "data",
          "type": "bytes"
        }
      ],
      "name": "PartyCreated",
      "type": "event"
    },
    {
      "anonymous": false,
      "inputs": [
        {
          "indexed": false,
          "internalType": "address",
          "name": "account",
          "type": "address"
        }
      ],
      "name": "Paused",
      "type": "event"
    },
    {
      "anonymous": false,
      "inputs": [
        {
          "indexed": false,
          "internalType": "bytes",
          "name": "data",
          "type": "bytes"
        },
        {
          "indexed": false,
          "internalType": "uint256",
          "name": "endsAt",
          "type": "uint256"
        },
        {
          "indexed": false,
          "internalType": "uint256",
          "name": "startAt",
          "type": "uint256"
        },
        {
          "indexed": false,
          "internalType": "uint256",
          "name": "numOfVotes",
          "type": "uint256"
        },
        {
          "indexed": false,
          "internalType": "uint256[]",
          "name": "units",
          "type": "uint256[]"
        }
      ],
      "name": "PollCreated",
      "type": "event"
    },
    {
      "anonymous": false,
      "inputs": [
        {
          "indexed": false,
          "internalType": "uint256",
          "name": "pollId",
          "type": "uint256"
        }
      ],
      "name": "PollEnded",
      "type": "event"
    },
    {
      "anonymous": false,
      "inputs": [
        {
          "indexed": false,
          "internalType": "uint256",
          "name": "pollId",
          "type": "uint256"
        },
        {
          "indexed": false,
          "internalType": "uint256",
          "name": "newEndAt",
          "type": "uint256"
        }
      ],
      "name": "PollResumed",
      "type": "event"
    },
    {
      "anonymous": false,
      "inputs": [
        {
          "indexed": false,
          "internalType": "address",
          "name": "account",
          "type": "address"
        }
      ],
      "name": "Unpaused",
      "type": "event"
    },
    {
      "anonymous": false,
      "inputs": [
        {
          "indexed": false,
          "internalType": "uint256",
          "name": "pollId",
          "type": "uint256"
        },
        {
          "indexed": false,
          "internalType": "address",
          "name": "voterId",
          "type": "address"
        },
        {
          "indexed": false,
          "internalType": "uint256",
          "name": "partyId",
          "type": "uint256"
        }
      ],
      "name": "VoteCasted",
      "type": "event"
    },
    {
      "anonymous": false,
      "inputs": [
        {
          "indexed": false,
          "internalType": "address",
          "name": "voterId",
          "type": "address"
        },
        {
          "indexed": false,
          "internalType": "bytes",
          "name": "data",
          "type": "bytes"
        },
        {
          "indexed": false,
          "internalType": "uint256",
          "name": "unit",
          "type": "uint256"
        }
      ],
      "name": "VoterCreated",
      "type": "event"
    },
    {
      "anonymous": false,
      "inputs": [
        {
          "indexed": false,
          "internalType": "address",
          "name": "voterId",
          "type": "address"
        }
      ],
      "name": "VoterSuspended",
      "type": "event"
    },
    {
      "anonymous": false,
      "inputs": [
        {
          "indexed": false,
          "internalType": "address",
          "name": "voterId",
          "type": "address"
        }
      ],
      "name": "VoterUnSuspended",
      "type": "event"
    },
    {
      "inputs": [],
      "name": "owner",
      "outputs": [
        {
          "internalType": "address",
          "name": "",
          "type": "address"
        }
      ],
      "stateMutability": "view",
      "type": "function"
    },
    {
      "inputs": [],
      "name": "paused",
      "outputs": [
        {
          "internalType": "bool",
          "name": "",
          "type": "bool"
        }
      ],
      "stateMutability": "view",
      "type": "function"
    },
    {
      "inputs": [],
      "name": "renounceOwnership",
      "outputs": [],
      "stateMutability": "nonpayable",
      "type": "function"
    },
    {
      "inputs": [
        {
          "internalType": "address",
          "name": "newOwner",
          "type": "address"
        }
      ],
      "name": "transferOwnership",
      "outputs": [],
      "stateMutability": "nonpayable",
      "type": "function"
    },
    {
      "inputs": [
        {
          "internalType": "uint256",
          "name": "pollId",
          "type": "uint256"
        },
        {
          "internalType": "address",
          "name": "voterId",
          "type": "address"
        },
        {
          "internalType": "uint256",
          "name": "partyId",
          "type": "uint256"
        }
      ],
      "name": "castVote",
      "outputs": [],
      "stateMutability": "nonpayable",
      "type": "function"
    },
    {
      "inputs": [
        {
          "internalType": "uint256",
          "name": "pollId",
          "type": "uint256"
        }
      ],
      "name": "votesCount",
      "outputs": [
        {
          "internalType": "uint256",
          "name": "",
          "type": "uint256"
        }
      ],
      "stateMutability": "view",
      "type": "function"
    },
    {
      "inputs": [
        {
          "internalType": "address",
          "name": "lookUpId",
          "type": "address"
        }
      ],
      "name": "isManager",
      "outputs": [
        {
          "internalType": "bool",
          "name": "",
          "type": "bool"
        }
      ],
      "stateMutability": "view",
      "type": "function"
    },
    {
      "inputs": [
        {
          "internalType": "address",
          "name": "lookUpId",
          "type": "address"
        }
      ],
      "name": "isAgent",
      "outputs": [
        {
          "internalType": "bool",
          "name": "",
          "type": "bool"
        }
      ],
      "stateMutability": "view",
      "type": "function"
    },
    {
      "inputs": [
        {
          "internalType": "uint256",
          "name": "lookUpId",
          "type": "uint256"
        }
      ],
      "name": "isParty",
      "outputs": [
        {
          "internalType": "bool",
          "name": "",
          "type": "bool"
        }
      ],
      "stateMutability": "view",
      "type": "function"
    },
    {
      "inputs": [
        {
          "components": [
            {
              "internalType": "bytes",
              "name": "data",
              "type": "bytes"
            },
            {
              "internalType": "bool",
              "name": "suspended",
              "type": "bool"
            },
            {
              "internalType": "uint256",
              "name": "numOfVotes",
              "type": "uint256"
            },
            {
              "internalType": "uint256",
              "name": "unit",
              "type": "uint256"
            }
          ],
          "internalType": "struct PollingLib.Voter",
          "name": "voter",
          "type": "tuple"
        },
        {
          "internalType": "address",
          "name": "voterId",
          "type": "address"
        }
      ],
      "name": "createVoter",
      "outputs": [],
      "stateMutability": "nonpayable",
      "type": "function"
    },
    {
      "inputs": [
        {
          "internalType": "address",
          "name": "voter",
          "type": "address"
        }
      ],
      "name": "suspendVoter",
      "outputs": [],
      "stateMutability": "nonpayable",
      "type": "function"
    },
    {
      "inputs": [
        {
          "internalType": "address",
          "name": "voter",
          "type": "address"
        }
      ],
      "name": "unSuspendVoter",
      "outputs": [],
      "stateMutability": "nonpayable",
      "type": "function"
    },
    {
      "inputs": [
        {
          "components": [
            {
              "internalType": "bytes",
              "name": "data",
              "type": "bytes"
            },
            {
              "internalType": "uint256",
              "name": "endAt",
              "type": "uint256"
            },
            {
              "internalType": "uint256",
              "name": "startAt",
              "type": "uint256"
            },
            {
              "internalType": "uint256",
              "name": "numOfVotes",
              "type": "uint256"
            },
            {
              "internalType": "uint256[]",
              "name": "units",
              "type": "uint256[]"
            },
            {
              "internalType": "string",
              "name": "nftUri",
              "type": "string"
            }
          ],
          "internalType": "struct PollingLib.Poll",
          "name": "poll",
          "type": "tuple"
        }
      ],
      "name": "createPoll",
      "outputs": [],
      "stateMutability": "nonpayable",
      "type": "function"
    },
    {
      "inputs": [
        {
          "components": [
            {
              "internalType": "bytes",
              "name": "data",
              "type": "bytes"
            }
          ],
          "internalType": "struct PollingLib.Party",
          "name": "party",
          "type": "tuple"
        },
        {
          "internalType": "uint256",
          "name": "partyId",
          "type": "uint256"
        }
      ],
      "name": "createParty",
      "outputs": [],
      "stateMutability": "nonpayable",
      "type": "function"
    },
    {
      "inputs": [
        {
          "internalType": "uint256",
          "name": "pollId",
          "type": "uint256"
        }
      ],
      "name": "endPoll",
      "outputs": [],
      "stateMutability": "nonpayable",
      "type": "function"
    },
    {
      "inputs": [
        {
          "internalType": "uint256",
          "name": "pollId",
          "type": "uint256"
        },
        {
          "internalType": "uint256",
          "name": "newEndAt",
          "type": "uint256"
        }
      ],
      "name": "resumePoll",
      "outputs": [],
      "stateMutability": "nonpayable",
      "type": "function"
    },
    {
      "inputs": [
        {
          "components": [
            {
              "internalType": "bytes",
              "name": "data",
              "type": "bytes"
            },
            {
              "internalType": "uint256",
              "name": "unit",
              "type": "uint256"
            }
          ],
          "internalType": "struct PollingLib.Agent",
          "name": "agent",
          "type": "tuple"
        },
        {
          "internalType": "address",
          "name": "agentId",
          "type": "address"
        }
      ],
      "name": "createAgent",
      "outputs": [],
      "stateMutability": "nonpayable",
      "type": "function"
    },
    {
      "inputs": [
        {
          "components": [
            {
              "internalType": "bytes",
              "name": "data",
              "type": "bytes"
            },
            {
              "internalType": "enum PollingLib.State",
              "name": "state",
              "type": "uint8"
            }
          ],
          "internalType": "struct PollingLib.Manager",
          "name": "manager",
          "type": "tuple"
        },
        {
          "internalType": "address",
          "name": "managerId",
          "type": "address"
        }
      ],
      "name": "createManager",
      "outputs": [],
      "stateMutability": "nonpayable",
      "type": "function"
    },
    {
      "inputs": [
        {
          "internalType": "address",
          "name": "voteNft",
          "type": "address"
        }
      ],
      "name": "setVoteNft",
      "outputs": [],
      "stateMutability": "nonpayable",
      "type": "function"
    }
  ],
  "bytecode": "0x608060405234801562000010575f80fd5b5062000021620000c460201b60201c565b5f805f6101000a81548160ff0219169083151502179055505f73ffffffffffffffffffffffffffffffffffffffff168173ffffffffffffffffffffffffffffffffffffffff1603620000ac575f6040517f1e4fbdf7000000000000000000000000000000000000000000000000000000008152600401620000a39190620001d1565b60405180910390fd5b620000bd81620000cb60201b60201c565b50620001ec565b5f33905090565b5f8060019054906101000a900473ffffffffffffffffffffffffffffffffffffffff169050815f60016101000a81548173ffffffffffffffffffffffffffffffffffffffff021916908373ffffffffffffffffffffffffffffffffffffffff1602179055508173ffffffffffffffffffffffffffffffffffffffff168173ffffffffffffffffffffffffffffffffffffffff167f8be0079c531659141344cd1fd0a4f28419497f9722a3daafe3b4186f6b6457e060405160405180910390a35050565b5f73ffffffffffffffffffffffffffffffffffffffff82169050919050565b5f620001b9826200018e565b9050919050565b620001cb81620001ad565b82525050565b5f602082019050620001e65f830184620001c0565b92915050565b61290880620001fa5f395ff3fe608060405234801561000f575f80fd5b506004361061011f575f3560e01c80638c5f9170116100ab578063b7adcdfa1161006f578063b7adcdfa146102d9578063bc0fde43146102f5578063f2fde38b14610311578063f3ae24151461032d578063f43b87781461035d5761011f565b80638c5f9170146102375780638d2e368f146102675780638da5cb5b14610283578063a0cc6a86146102a1578063b1196478146102bd5761011f565b80635c975abb116100f25780635c975abb146101bb5780636d67160c146101d9578063715018a6146101f55780637e77eb23146101ff578063814783b41461021b5761011f565b80631ffbb064146101235780632dc7639d1461015357806350a6491a1461016f5780635b871d101461019f575b5f80fd5b61013d6004803603810190610138919061141b565b610379565b60405161014a9190611460565b60405180910390f35b61016d60048036038101906101689190611649565b6103d5565b005b610189600480360381019061018491906116d6565b6104a7565b6040516101969190611710565b60405180910390f35b6101b960048036038101906101b4919061141b565b6104c4565b005b6101c3610507565b6040516101d09190611460565b60405180910390f35b6101f360048036038101906101ee9190611792565b61051b565b005b6101fd61060f565b005b610219600480360381019061021491906117ec565b610622565b005b61023560048036038101906102309190611a8f565b610a19565b005b610251600480360381019061024c91906116d6565b610b58565b60405161025e9190611460565b60405180910390f35b610281600480360381019061027c919061141b565b610b88565b005b61028b610c69565b6040516102989190611ae5565b60405180910390f35b6102bb60048036038101906102b69190611bb9565b610c91565b005b6102d760048036038101906102d2919061141b565b610dae565b005b6102f360048036038101906102ee9190611c68565b610e8f565b005b61030f600480360381019061030a9190611cc2565b610f4f565b005b61032b6004803603810190610326919061141b565b611036565b005b6103476004803603810190610342919061141b565b6110ba565b6040516103549190611460565b60405180910390f35b610377600480360381019061037291906116d6565b611116565b005b5f8060065f8473ffffffffffffffffffffffffffffffffffffffff1673ffffffffffffffffffffffffffffffffffffffff1681526020019081526020015f2090505f815f0180546103c990611d2d565b90501415915050919050565b6103dd6111b8565b8160075f8373ffffffffffffffffffffffffffffffffffffffff1673ffffffffffffffffffffffffffffffffffffffff1681526020019081526020015f205f820151815f01908161042e9190611f04565b506020820151816001015f6101000a81548160ff0219169083602381111561045957610458611fd3565b5b02179055509050507f2fa5a0920f27f1de71e565721c355263664bfdcd6d929c910beda9c84ad4022d81835f0151846020015160405161049b939291906120b6565b60405180910390a15050565b5f60045f8381526020019081526020015f20600301549050919050565b8060015f6101000a81548173ffffffffffffffffffffffffffffffffffffffff021916908373ffffffffffffffffffffffffffffffffffffffff16021790555050565b5f805f9054906101000a900460ff16905090565b61052b61052661123f565b6110ba565b61056a576040517f08c379a00000000000000000000000000000000000000000000000000000000081526004016105619061214c565b60405180910390fd5b8160065f8373ffffffffffffffffffffffffffffffffffffffff1673ffffffffffffffffffffffffffffffffffffffff1681526020019081526020015f205f820151815f0190816105bb9190611f04565b50602082015181600101559050507f63e76268d0a955fdb3fdf61ff46fc23b80d4a24790233b174dfac9a29818109b81835f015184602001516040516106039392919061216a565b60405180910390a15050565b6106176111b8565b6106205f611246565b565b61062a611309565b5f60045f8581526020019081526020015f2090505f60055f8573ffffffffffffffffffffffffffffffffffffffff1673ffffffffffffffffffffffffffffffffffffffff1681526020019081526020015f209050806001015f9054906101000a900460ff16156106cf576040517f08c379a00000000000000000000000000000000000000000000000000000000081526004016106c6906121f0565b60405180910390fd5b42826001015410610715576040517f08c379a000000000000000000000000000000000000000000000000000000000815260040161070c90612258565b60405180910390fd5b428260020154101561075c576040517f08c379a0000000000000000000000000000000000000000000000000000000008152600401610753906122c0565b60405180910390fd5b5f60095f8781526020019081526020015f205f8673ffffffffffffffffffffffffffffffffffffffff1673ffffffffffffffffffffffffffffffffffffffff1681526020019081526020015f2054146107ea576040517f08c379a00000000000000000000000000000000000000000000000000000000081526004016107e190612328565b60405180910390fd5b5f805b836004018054905081101561084157826003015484600401828154811061081757610816612346565b5b905f5260205f2001540361082e5760019150610841565b8080610839906123a0565b9150506107ed565b5080610882576040517f08c379a000000000000000000000000000000000000000000000000000000000815260040161087990612431565b60405180910390fd5b61088b84610b58565b6108ca576040517f08c379a00000000000000000000000000000000000000000000000000000000081526004016108c190612499565b60405180910390fd5b8360095f8881526020019081526020015f205f8773ffffffffffffffffffffffffffffffffffffffff1673ffffffffffffffffffffffffffffffffffffffff1681526020019081526020015f2050506001836003015461092a91906124b7565b83600301819055505f83600501805461094290611d2d565b9050146109d65760015f9054906101000a900473ffffffffffffffffffffffffffffffffffffffff1673ffffffffffffffffffffffffffffffffffffffff1663d0def52186856005016040518363ffffffff1660e01b81526004016109a892919061257d565b5f604051808303815f87803b1580156109bf575f80fd5b505af11580156109d1573d5f803e3d5ffd5b505050505b7fe7ee74ca1f4bb1b82b14f87794c45b3e59c39e372b862fb97a6316b43355b69e868686604051610a09939291906125ab565b60405180910390a1505050505050565b610a29610a2461123f565b6110ba565b610a68576040517f08c379a0000000000000000000000000000000000000000000000000000000008152600401610a5f9061214c565b60405180910390fd5b610a70611309565b8060045f60025481526020019081526020015f205f820151815f019081610a979190611f04565b506020820151816001015560408201518160020155606082015181600301556080820151816004019080519060200190610ad292919061134a565b5060a0820151816005019081610ae89190612630565b5090505060025f815480929190610afe906123a0565b91905055507f425423c9f3488191cf3d29df3104f6424a318d578c44d324fbe5dc1006580d6d815f01518260200151836040015184606001518560800151604051610b4d9594939291906127b6565b60405180910390a150565b5f8060085f8481526020019081526020015f2090505f815f018054610b7c90611d2d565b90501415915050919050565b610b98610b9361123f565b610379565b610bd7576040517f08c379a0000000000000000000000000000000000000000000000000000000008152600401610bce9061214c565b60405180910390fd5b600160055f8373ffffffffffffffffffffffffffffffffffffffff1673ffffffffffffffffffffffffffffffffffffffff1681526020019081526020015f206001015f6101000a81548160ff0219169083151502179055507fb7bcc3f1429e9e01104a9ddc1d004407670c768ec4afa6ee93468a617af2370981604051610c5e9190611ae5565b60405180910390a150565b5f8060019054906101000a900473ffffffffffffffffffffffffffffffffffffffff16905090565b610ca1610c9c61123f565b610379565b610ce0576040517f08c379a0000000000000000000000000000000000000000000000000000000008152600401610cd79061214c565b60405180910390fd5b8160055f8373ffffffffffffffffffffffffffffffffffffffff1673ffffffffffffffffffffffffffffffffffffffff1681526020019081526020015f205f820151815f019081610d319190611f04565b506020820151816001015f6101000a81548160ff02191690831515021790555060408201518160020155606082015181600301559050507fd97d45526d52726ccd696e104f7597764ec430a1110009e207e1ffdcaf1a968c81835f01518460600151604051610da29392919061216a565b60405180910390a15050565b610dbe610db961123f565b610379565b610dfd576040517f08c379a0000000000000000000000000000000000000000000000000000000008152600401610df49061214c565b60405180910390fd5b600160055f8373ffffffffffffffffffffffffffffffffffffffff1673ffffffffffffffffffffffffffffffffffffffff1681526020019081526020015f206001015f6101000a81548160ff0219169083151502179055507fb7bcc3f1429e9e01104a9ddc1d004407670c768ec4afa6ee93468a617af2370981604051610e849190611ae5565b60405180910390a150565b610e9f610e9a61123f565b6110ba565b610ede576040517f08c379a0000000000000000000000000000000000000000000000000000000008152600401610ed59061214c565b60405180910390fd5b610ee6611309565b8160085f8381526020019081526020015f205f820151815f019081610f0b9190611f04565b509050507f69d650e82226046ae6c611923881402d0b25416e493ef3d46aed213d3be89e4d81835f0151604051610f43929190612815565b60405180910390a15050565b610f5f610f5a61123f565b6110ba565b610f9e576040517f08c379a0000000000000000000000000000000000000000000000000000000008152600401610f959061214c565b60405180910390fd5b428111610fe0576040517f08c379a0000000000000000000000000000000000000000000000000000000008152600401610fd79061288d565b60405180910390fd5b8060045f8481526020019081526020015f20600101819055507f229fc85594800ec48ab3f1ef11b9275bbe2ef32ef63eac3ac3dabe23a548b4d5828260405161102a9291906128ab565b60405180910390a15050565b61103e6111b8565b5f73ffffffffffffffffffffffffffffffffffffffff168173ffffffffffffffffffffffffffffffffffffffff16036110ae575f6040517f1e4fbdf70000000000000000000000000000000000000000000000000000000081526004016110a59190611ae5565b60405180910390fd5b6110b781611246565b50565b5f8060075f8473ffffffffffffffffffffffffffffffffffffffff1673ffffffffffffffffffffffffffffffffffffffff1681526020019081526020015f2090505f815f01805461110a90611d2d565b90501415915050919050565b61112661112161123f565b6110ba565b611165576040517f08c379a000000000000000000000000000000000000000000000000000000000815260040161115c9061214c565b60405180910390fd5b4260045f8381526020019081526020015f20600101819055507f14d4cfc1c2a6f37c8f97ad80fc12bd9d943ea6d4dd7684137850125597ce9bf7816040516111ad9190611710565b60405180910390a150565b6111c061123f565b73ffffffffffffffffffffffffffffffffffffffff166111de610c69565b73ffffffffffffffffffffffffffffffffffffffff161461123d5761120161123f565b6040517f118cdaa70000000000000000000000000000000000000000000000000000000081526004016112349190611ae5565b60405180910390fd5b565b5f33905090565b5f8060019054906101000a900473ffffffffffffffffffffffffffffffffffffffff169050815f60016101000a81548173ffffffffffffffffffffffffffffffffffffffff021916908373ffffffffffffffffffffffffffffffffffffffff1602179055508173ffffffffffffffffffffffffffffffffffffffff168173ffffffffffffffffffffffffffffffffffffffff167f8be0079c531659141344cd1fd0a4f28419497f9722a3daafe3b4186f6b6457e060405160405180910390a35050565b611311610507565b15611348576040517fd93c066500000000000000000000000000000000000000000000000000000000815260040160405180910390fd5b565b828054828255905f5260205f20908101928215611384579160200282015b82811115611383578251825591602001919060010190611368565b5b5090506113919190611395565b5090565b5b808211156113ac575f815f905550600101611396565b5090565b5f604051905090565b5f80fd5b5f80fd5b5f73ffffffffffffffffffffffffffffffffffffffff82169050919050565b5f6113ea826113c1565b9050919050565b6113fa816113e0565b8114611404575f80fd5b50565b5f81359050611415816113f1565b92915050565b5f602082840312156114305761142f6113b9565b5b5f61143d84828501611407565b91505092915050565b5f8115159050919050565b61145a81611446565b82525050565b5f6020820190506114735f830184611451565b92915050565b5f80fd5b5f601f19601f8301169050919050565b7f4e487b71000000000000000000000000000000000000000000000000000000005f52604160045260245ffd5b6114c38261147d565b810181811067ffffffffffffffff821117156114e2576114e161148d565b5b80604052505050565b5f6114f46113b0565b905061150082826114ba565b919050565b5f80fd5b5f80fd5b5f80fd5b5f67ffffffffffffffff82111561152b5761152a61148d565b5b6115348261147d565b9050602081019050919050565b828183375f83830152505050565b5f61156161155c84611511565b6114eb565b90508281526020810184848401111561157d5761157c61150d565b5b611588848285611541565b509392505050565b5f82601f8301126115a4576115a3611509565b5b81356115b484826020860161154f565b91505092915050565b602481106115c9575f80fd5b50565b5f813590506115da816115bd565b92915050565b5f604082840312156115f5576115f4611479565b5b6115ff60406114eb565b90505f82013567ffffffffffffffff81111561161e5761161d611505565b5b61162a84828501611590565b5f83015250602061163d848285016115cc565b60208301525092915050565b5f806040838503121561165f5761165e6113b9565b5b5f83013567ffffffffffffffff81111561167c5761167b6113bd565b5b611688858286016115e0565b925050602061169985828601611407565b9150509250929050565b5f819050919050565b6116b5816116a3565b81146116bf575f80fd5b50565b5f813590506116d0816116ac565b92915050565b5f602082840312156116eb576116ea6113b9565b5b5f6116f8848285016116c2565b91505092915050565b61170a816116a3565b82525050565b5f6020820190506117235f830184611701565b92915050565b5f6040828403121561173e5761173d611479565b5b61174860406114eb565b90505f82013567ffffffffffffffff81111561176757611766611505565b5b61177384828501611590565b5f830152506020611786848285016116c2565b60208301525092915050565b5f80604083850312156117a8576117a76113b9565b5b5f83013567ffffffffffffffff8111156117c5576117c46113bd565b5b6117d185828601611729565b92505060206117e285828601611407565b9150509250929050565b5f805f60608486031215611803576118026113b9565b5b5f611810868287016116c2565b935050602061182186828701611407565b9250506040611832868287016116c2565b9150509250925092565b5f67ffffffffffffffff8211156118565761185561148d565b5b602082029050602081019050919050565b5f80fd5b5f61187d6118788461183c565b6114eb565b905080838252602082019050602084028301858111156118a05761189f611867565b5b835b818110156118c957806118b588826116c2565b8452602084019350506020810190506118a2565b5050509392505050565b5f82601f8301126118e7576118e6611509565b5b81356118f784826020860161186b565b91505092915050565b5f67ffffffffffffffff82111561191a5761191961148d565b5b6119238261147d565b9050602081019050919050565b5f61194261193d84611900565b6114eb565b90508281526020810184848401111561195e5761195d61150d565b5b611969848285611541565b509392505050565b5f82601f83011261198557611984611509565b5b8135611995848260208601611930565b91505092915050565b5f60c082840312156119b3576119b2611479565b5b6119bd60c06114eb565b90505f82013567ffffffffffffffff8111156119dc576119db611505565b5b6119e884828501611590565b5f8301525060206119fb848285016116c2565b6020830152506040611a0f848285016116c2565b6040830152506060611a23848285016116c2565b606083015250608082013567ffffffffffffffff811115611a4757611a46611505565b5b611a53848285016118d3565b60808301525060a082013567ffffffffffffffff811115611a7757611a76611505565b5b611a8384828501611971565b60a08301525092915050565b5f60208284031215611aa457611aa36113b9565b5b5f82013567ffffffffffffffff811115611ac157611ac06113bd565b5b611acd8482850161199e565b91505092915050565b611adf816113e0565b82525050565b5f602082019050611af85f830184611ad6565b92915050565b611b0781611446565b8114611b11575f80fd5b50565b5f81359050611b2281611afe565b92915050565b5f60808284031215611b3d57611b3c611479565b5b611b4760806114eb565b90505f82013567ffffffffffffffff811115611b6657611b65611505565b5b611b7284828501611590565b5f830152506020611b8584828501611b14565b6020830152506040611b99848285016116c2565b6040830152506060611bad848285016116c2565b60608301525092915050565b5f8060408385031215611bcf57611bce6113b9565b5b5f83013567ffffffffffffffff811115611bec57611beb6113bd565b5b611bf885828601611b28565b9250506020611c0985828601611407565b9150509250929050565b5f60208284031215611c2857611c27611479565b5b611c3260206114eb565b90505f82013567ffffffffffffffff811115611c5157611c50611505565b5b611c5d84828501611590565b5f8301525092915050565b5f8060408385031215611c7e57611c7d6113b9565b5b5f83013567ffffffffffffffff811115611c9b57611c9a6113bd565b5b611ca785828601611c13565b9250506020611cb8858286016116c2565b9150509250929050565b5f8060408385031215611cd857611cd76113b9565b5b5f611ce5858286016116c2565b9250506020611cf6858286016116c2565b9150509250929050565b7f4e487b71000000000000000000000000000000000000000000000000000000005f52602260045260245ffd5b5f6002820490506001821680611d4457607f821691505b602082108103611d5757611d56611d00565b5b50919050565b5f81519050919050565b5f819050815f5260205f209050919050565b5f6020601f8301049050919050565b5f82821b905092915050565b5f60088302611dc37fffffffffffffffffffffffffffffffffffffffffffffffffffffffffffffffff82611d88565b611dcd8683611d88565b95508019841693508086168417925050509392505050565b5f819050919050565b5f611e08611e03611dfe846116a3565b611de5565b6116a3565b9050919050565b5f819050919050565b611e2183611dee565b611e35611e2d82611e0f565b848454611d94565b825550505050565b5f90565b611e49611e3d565b611e54818484611e18565b505050565b5b81811015611e7757611e6c5f82611e41565b600181019050611e5a565b5050565b601f821115611ebc57611e8d81611d67565b611e9684611d79565b81016020851015611ea5578190505b611eb9611eb185611d79565b830182611e59565b50505b505050565b5f82821c905092915050565b5f611edc5f1984600802611ec1565b1980831691505092915050565b5f611ef48383611ecd565b9150826002028217905092915050565b611f0d82611d5d565b67ffffffffffffffff811115611f2657611f2561148d565b5b611f308254611d2d565b611f3b828285611e7b565b5f60209050601f831160018114611f6c575f8415611f5a578287015190505b611f648582611ee9565b865550611fcb565b601f198416611f7a86611d67565b5f5b82811015611fa157848901518255600182019150602085019450602081019050611f7c565b86831015611fbe5784890151611fba601f891682611ecd565b8355505b6001600288020188555050505b505050505050565b7f4e487b71000000000000000000000000000000000000000000000000000000005f52602160045260245ffd5b5f82825260208201905092915050565b5f5b8381101561202d578082015181840152602081019050612012565b5f8484015250505050565b5f61204282611d5d565b61204c8185612000565b935061205c818560208601612010565b6120658161147d565b840191505092915050565b6024811061208157612080611fd3565b5b50565b5f81905061209182612070565b919050565b5f6120a082612084565b9050919050565b6120b081612096565b82525050565b5f6060820190506120c95f830186611ad6565b81810360208301526120db8185612038565b90506120ea60408301846120a7565b949350505050565b5f82825260208201905092915050565b7f556e417574686f72697a656400000000000000000000000000000000000000005f82015250565b5f612136600c836120f2565b915061214182612102565b602082019050919050565b5f6020820190508181035f8301526121638161212a565b9050919050565b5f60608201905061217d5f830186611ad6565b818103602083015261218f8185612038565b905061219e6040830184611701565b949350505050565b7f566f7465722069732073757370656e64656400000000000000000000000000005f82015250565b5f6121da6012836120f2565b91506121e5826121a6565b602082019050919050565b5f6020820190508181035f830152612207816121ce565b9050919050565b7f506f6c6c2068617320656e6465640000000000000000000000000000000000005f82015250565b5f612242600e836120f2565b915061224d8261220e565b602082019050919050565b5f6020820190508181035f83015261226f81612236565b9050919050565b7f506f6c6c20686173206e6f7420737461727465640000000000000000000000005f82015250565b5f6122aa6014836120f2565b91506122b582612276565b602082019050919050565b5f6020820190508181035f8301526122d78161229e565b9050919050565b7f416c72656164792063617374656420766f7465000000000000000000000000005f82015250565b5f6123126013836120f2565b915061231d826122de565b602082019050919050565b5f6020820190508181035f83015261233f81612306565b9050919050565b7f4e487b71000000000000000000000000000000000000000000000000000000005f52603260045260245ffd5b7f4e487b71000000000000000000000000000000000000000000000000000000005f52601160045260245ffd5b5f6123aa826116a3565b91507fffffffffffffffffffffffffffffffffffffffffffffffffffffffffffffffff82036123dc576123db612373565b5b600182019050919050565b7f566f74657220756e6974206e6f7420696e2074686520706f6c6c20756e6974735f82015250565b5f61241b6020836120f2565b9150612426826123e7565b602082019050919050565b5f6020820190508181035f8301526124488161240f565b9050919050565b7f506172747920646f6573206e6f742065786973740000000000000000000000005f82015250565b5f6124836014836120f2565b915061248e8261244f565b602082019050919050565b5f6020820190508181035f8301526124b081612477565b9050919050565b5f6124c1826116a3565b91506124cc836116a3565b92508282019050808211156124e4576124e3612373565b5b92915050565b5f819050815f5260205f209050919050565b5f815461250881611d2d565b61251281866120f2565b9450600182165f811461252c576001811461254257612574565b60ff198316865281151560200286019350612574565b61254b856124ea565b5f5b8381101561256c5781548189015260018201915060208101905061254d565b808801955050505b50505092915050565b5f6040820190506125905f830185611ad6565b81810360208301526125a281846124fc565b90509392505050565b5f6060820190506125be5f830186611701565b6125cb6020830185611ad6565b6125d86040830184611701565b949350505050565b5f81519050919050565b601f82111561262b576125fc816124ea565b61260584611d79565b81016020851015612614578190505b61262861262085611d79565b830182611e59565b50505b505050565b612639826125e0565b67ffffffffffffffff8111156126525761265161148d565b5b61265c8254611d2d565b6126678282856125ea565b5f60209050601f831160018114612698575f8415612686578287015190505b6126908582611ee9565b8655506126f7565b601f1984166126a6866124ea565b5f5b828110156126cd578489015182556001820191506020850194506020810190506126a8565b868310156126ea57848901516126e6601f891682611ecd565b8355505b6001600288020188555050505b505050505050565b5f81519050919050565b5f82825260208201905092915050565b5f819050602082019050919050565b612731816116a3565b82525050565b5f6127428383612728565b60208301905092915050565b5f602082019050919050565b5f612764826126ff565b61276e8185612709565b935061277983612719565b805f5b838110156127a95781516127908882612737565b975061279b8361274e565b92505060018101905061277c565b5085935050505092915050565b5f60a0820190508181035f8301526127ce8188612038565b90506127dd6020830187611701565b6127ea6040830186611701565b6127f76060830185611701565b8181036080830152612809818461275a565b90509695505050505050565b5f6040820190506128285f830185611701565b818103602083015261283a8184612038565b90509392505050565b7f54696d6520697320696e207468652070617374000000000000000000000000005f82015250565b5f6128776013836120f2565b915061288282612843565b602082019050919050565b5f6020820190508181035f8301526128a48161286b565b9050919050565b5f6040820190506128be5f830185611701565b6128cb6020830184611701565b939250505056fea26469706673582212205f462d331ebe0975e98268e9a325124e839ecc3848d944997f4037f3df5e5de664736f6c63430008140033",
  "immutableReferences": {},
  "source": "// SPDX-License-Identifier: MIT\r\npragma solidity ^0.8.20;\r\n\r\nimport {IVoteCore} from \"./interfaces/IVoteCore.sol\";\r\nimport {PollingLib} from \"./libraries/PollingLib.sol\";\r\n\r\nimport {Context} from \"@openzeppelin/contracts/utils/Context.sol\";\r\nimport {Ownable} from \"@openzeppelin/contracts/access/Ownable.sol\";\r\nimport {Pausable} from \"@openzeppelin/contracts/utils/Pausable.sol\";\r\n\r\nimport {VoteNft} from \"./VoteNft.sol\";\r\n\r\n/// @title I-Vote Core\r\n/// @author Arogundade Ibrahim\r\n/// @notice A simple replace for traditional elections\r\ncontract VoteCore is IVoteCore, Context, Pausable, Ownable {\r\n    // vote nft\r\n    VoteNft private _voteNft;\r\n\r\n    // Unique Id Trackers\r\n    uint256 private _pollId;\r\n\r\n    // Polling Units: Unit Unique Id => Unit object\r\n    mapping(uint256 => PollingLib.Uint) private _units;\r\n\r\n    // Polls: Poll Unique Id => Poll object\r\n    mapping(uint256 => PollingLib.Poll) private _polls;\r\n\r\n    // Voters: Voter Unique Id => Voter object\r\n    mapping(address => PollingLib.Voter) private _voters;\r\n\r\n    // Agent: Voter Unique Id => Agent object\r\n    mapping(address => PollingLib.Agent) private _agents;\r\n\r\n    // Managers: Manager Unique Id => Manager object\r\n    mapping(address => PollingLib.Manager) private _managers;\r\n\r\n    // Parties: Party Unique Id => Party object\r\n    mapping(uint256 => PollingLib.Party) private _parties;\r\n\r\n    // Votes: Poll Unique Id => Voter Unique Id => Party Unique Id\r\n    mapping(uint256 => mapping(address => uint256)) private _votes;\r\n\r\n    constructor() Ownable(_msgSender()) {}\r\n\r\n    // ============= Voter Functions ============= //\r\n\r\n    function castVote(\r\n        uint256 pollId,\r\n        address voterId,\r\n        uint256 partyId\r\n    ) external override whenNotPaused {\r\n        PollingLib.Poll storage poll = _polls[pollId];\r\n        PollingLib.Voter storage voter = _voters[voterId];\r\n\r\n        // check the voter is not suspended\r\n        require(!voter.suspended, \"Voter is suspended\");\r\n\r\n        // check poll duration\r\n        require(poll.endAt < block.timestamp, \"Poll has ended\");\r\n        require(poll.startAt >= block.timestamp, \"Poll has not started\");\r\n\r\n        // check voter entry\r\n        require(_votes[pollId][voterId] == uint256(0), \"Already casted vote\");\r\n\r\n        // check voter uint is in the poll units\r\n        bool isInUint = false;\r\n        for (uint256 index = 0; index < poll.units.length; index++) {\r\n            if (poll.units[index] == voter.unit) {\r\n                isInUint = true;\r\n                break;\r\n            }\r\n        }\r\n        require(isInUint, \"Voter unit not in the poll units\");\r\n\r\n        // check party exists\r\n        require(isParty(partyId), \"Party does not exist\");\r\n\r\n        // otherwise cast vote\r\n        _votes[pollId][voterId] == partyId;\r\n        poll.numOfVotes = poll.numOfVotes + 1;\r\n\r\n        // mint nft to voter --if-exists\r\n        if (bytes(poll.nftUri).length != 0) {\r\n            _voteNft.mint(voterId, poll.nftUri);\r\n        }\r\n\r\n        emit VoteCasted(pollId, voterId, partyId);\r\n    }\r\n\r\n    // ============= View Functions ============= //\r\n\r\n    function votesCount(uint256 pollId) public view override returns (uint256) {\r\n        return _polls[pollId].numOfVotes;\r\n    }\r\n\r\n    function isManager(address lookUpId) public view override returns (bool) {\r\n        PollingLib.Manager storage manager = _managers[lookUpId];\r\n        return manager.data.length != 0;\r\n    }\r\n\r\n    function isAgent(address lookUpId) public view override returns (bool) {\r\n        PollingLib.Agent storage agent = _agents[lookUpId];\r\n        return agent.data.length != 0;\r\n    }\r\n\r\n    function isParty(uint256 lookUpId) public view override returns (bool) {\r\n        PollingLib.Party storage party = _parties[lookUpId];\r\n        return party.data.length != 0;\r\n    }\r\n\r\n    // ============= Agents Functions ============= //\r\n\r\n    function createVoter(\r\n        PollingLib.Voter memory voter,\r\n        address voterId\r\n    ) external override onlyAgent {\r\n        _voters[voterId] = voter;\r\n\r\n        emit VoterCreated(voterId, voter.data, voter.unit);\r\n    }\r\n\r\n    function suspendVoter(address voter) external override onlyAgent {\r\n        _voters[voter].suspended = true;\r\n\r\n        emit VoterSuspended(voter);\r\n    }\r\n\r\n    function unSuspendVoter(address voter) external override onlyAgent {\r\n        _voters[voter].suspended = true;\r\n\r\n        emit VoterSuspended(voter);\r\n    }\r\n\r\n    // ============= Managers Functions ============= //\r\n\r\n    function createPoll(\r\n        PollingLib.Poll memory poll\r\n    ) external override onlyManager whenNotPaused {\r\n        _polls[_pollId] = poll;\r\n\r\n        // increment Poll Id trackers\r\n        _pollId++;\r\n\r\n        emit PollCreated(\r\n            poll.data,\r\n            poll.endAt,\r\n            poll.startAt,\r\n            poll.numOfVotes,\r\n            poll.units\r\n        );\r\n    }\r\n\r\n    function createParty(\r\n        PollingLib.Party memory party,\r\n        uint256 partyId\r\n    ) external override onlyManager whenNotPaused {\r\n        _parties[partyId] = party;\r\n\r\n        emit PartyCreated(partyId, party.data);\r\n    }\r\n\r\n    function endPoll(uint256 pollId) external onlyManager {\r\n        _polls[pollId].endAt = block.timestamp;\r\n\r\n        emit PollEnded(pollId);\r\n    }\r\n\r\n    function resumePoll(\r\n        uint256 pollId,\r\n        uint256 newEndAt\r\n    ) external override onlyManager {\r\n        require(newEndAt > block.timestamp, \"Time is in the past\");\r\n        _polls[pollId].endAt = newEndAt;\r\n\r\n        emit PollResumed(pollId, newEndAt);\r\n    }\r\n\r\n    function createAgent(\r\n        PollingLib.Agent memory agent,\r\n        address agentId\r\n    ) external override onlyManager {\r\n        _agents[agentId] = agent;\r\n\r\n        emit AgentCreated(agentId, agent.data, agent.unit);\r\n    }\r\n\r\n    // ============= Creator Functions ============= //\r\n\r\n    function createManager(\r\n        PollingLib.Manager memory manager,\r\n        address managerId\r\n    ) external override onlyOwner {\r\n        _managers[managerId] = manager;\r\n\r\n        emit ManagerCreated(managerId, manager.data, manager.state);\r\n    }\r\n\r\n    function setVoteNft(address voteNft) external {\r\n        _voteNft = VoteNft(voteNft);\r\n    }\r\n\r\n    // ============= Modifiers ============= //\r\n\r\n    modifier onlyManager() {\r\n        require(isManager(_msgSender()), \"UnAuthorized\");\r\n        _;\r\n    }\r\n\r\n    modifier onlyAgent() {\r\n        require(isAgent(_msgSender()), \"UnAuthorized\");\r\n        _;\r\n    }\r\n}\r\n",
  "sourcePath": "C:\\Users\\DELL\\Documents\\i-vote\\solidity\\contracts\\VoteCore.sol",
  "compiler": {
    "name": "solc",
    "version": "0.8.20+commit.a1b79de6.Emscripten.clang"
  },
  "schemaVersion": "3.4.11",
  "updatedAt": "2023-11-19T16:22:39.483Z",
  "devdoc": {
    "author": "Arogundade Ibrahim",
    "errors": {
      "EnforcedPause()": [
        {
          "details": "The operation failed because the contract is paused."
        }
      ],
      "ExpectedPause()": [
        {
          "details": "The operation failed because the contract is not paused."
        }
      ],
      "OwnableInvalidOwner(address)": [
        {
          "details": "The owner is not a valid owner account. (eg. `address(0)`)"
        }
      ],
      "OwnableUnauthorizedAccount(address)": [
        {
          "details": "The caller account is not authorized to perform an operation."
        }
      ]
    },
    "events": {
      "Paused(address)": {
        "details": "Emitted when the pause is triggered by `account`."
      },
      "Unpaused(address)": {
        "details": "Emitted when the pause is lifted by `account`."
      }
    },
    "kind": "dev",
    "methods": {
      "owner()": {
        "details": "Returns the address of the current owner."
      },
      "paused()": {
        "details": "Returns true if the contract is paused, and false otherwise."
      },
      "renounceOwnership()": {
        "details": "Leaves the contract without owner. It will not be possible to call `onlyOwner` functions. Can only be called by the current owner. NOTE: Renouncing ownership will leave the contract without an owner, thereby disabling any functionality that is only available to the owner."
      },
      "transferOwnership(address)": {
        "details": "Transfers ownership of the contract to a new account (`newOwner`). Can only be called by the current owner."
      }
    },
    "title": "I-Vote Core",
    "version": 1
  },
  "userdoc": {
    "kind": "user",
    "methods": {},
    "notice": "A simple replace for traditional elections",
    "version": 1
  }
}