{
  "contractName": "VoteCore",
  "abi": [
    {
      "inputs": [],
      "stateMutability": "nonpayable",
      "type": "constructor"
    },
    {
      "inputs": [],
      "name": "EnforcedPause",
      "type": "error"
    },
    {
      "inputs": [],
      "name": "ExpectedPause",
      "type": "error"
    },
    {
      "inputs": [
        {
          "internalType": "address",
          "name": "owner",
          "type": "address"
        }
      ],
      "name": "OwnableInvalidOwner",
      "type": "error"
    },
    {
      "inputs": [
        {
          "internalType": "address",
          "name": "account",
          "type": "address"
        }
      ],
      "name": "OwnableUnauthorizedAccount",
      "type": "error"
    },
    {
      "anonymous": false,
      "inputs": [
        {
          "indexed": false,
          "internalType": "address",
          "name": "agentId",
          "type": "address"
        },
        {
          "indexed": false,
          "internalType": "bytes",
          "name": "data",
          "type": "bytes"
        },
        {
          "indexed": false,
          "internalType": "uint256",
          "name": "unit",
          "type": "uint256"
        }
      ],
      "name": "AgentCreated",
      "type": "event"
    },
    {
      "anonymous": false,
      "inputs": [
        {
          "indexed": false,
          "internalType": "address",
          "name": "managerId",
          "type": "address"
        },
        {
          "indexed": false,
          "internalType": "bytes",
          "name": "data",
          "type": "bytes"
        },
        {
          "indexed": false,
          "internalType": "enum PollingLib.State",
          "name": "state",
          "type": "uint8"
        }
      ],
      "name": "ManagerCreated",
      "type": "event"
    },
    {
      "anonymous": false,
      "inputs": [
        {
          "indexed": true,
          "internalType": "address",
          "name": "previousOwner",
          "type": "address"
        },
        {
          "indexed": true,
          "internalType": "address",
          "name": "newOwner",
          "type": "address"
        }
      ],
      "name": "OwnershipTransferred",
      "type": "event"
    },
    {
      "anonymous": false,
      "inputs": [
        {
          "indexed": false,
          "internalType": "uint256",
          "name": "partyId",
          "type": "uint256"
        },
        {
          "indexed": false,
          "internalType": "bytes",
          "name": "data",
          "type": "bytes"
        }
      ],
      "name": "PartyCreated",
      "type": "event"
    },
    {
      "anonymous": false,
      "inputs": [
        {
          "indexed": false,
          "internalType": "address",
          "name": "account",
          "type": "address"
        }
      ],
      "name": "Paused",
      "type": "event"
    },
    {
      "anonymous": false,
      "inputs": [
        {
          "indexed": false,
          "internalType": "uint256",
          "name": "pollId",
          "type": "uint256"
        },
        {
          "indexed": false,
          "internalType": "bytes",
          "name": "data",
          "type": "bytes"
        },
        {
          "indexed": false,
          "internalType": "uint256",
          "name": "endsAt",
          "type": "uint256"
        },
        {
          "indexed": false,
          "internalType": "uint256",
          "name": "startAt",
          "type": "uint256"
        },
        {
          "indexed": false,
          "internalType": "uint256",
          "name": "numOfVotes",
          "type": "uint256"
        },
        {
          "indexed": false,
          "internalType": "uint256",
          "name": "unit",
          "type": "uint256"
        }
      ],
      "name": "PollCreated",
      "type": "event"
    },
    {
      "anonymous": false,
      "inputs": [
        {
          "indexed": false,
          "internalType": "uint256",
          "name": "pollId",
          "type": "uint256"
        }
      ],
      "name": "PollEnded",
      "type": "event"
    },
    {
      "anonymous": false,
      "inputs": [
        {
          "indexed": false,
          "internalType": "uint256",
          "name": "pollId",
          "type": "uint256"
        },
        {
          "indexed": false,
          "internalType": "uint256",
          "name": "newEndAt",
          "type": "uint256"
        }
      ],
      "name": "PollResumed",
      "type": "event"
    },
    {
      "anonymous": false,
      "inputs": [
        {
          "indexed": false,
          "internalType": "uint256",
          "name": "unitId",
          "type": "uint256"
        },
        {
          "indexed": false,
          "internalType": "enum PollingLib.State",
          "name": "state",
          "type": "uint8"
        },
        {
          "indexed": false,
          "internalType": "uint256",
          "name": "localGovernment",
          "type": "uint256"
        },
        {
          "indexed": false,
          "internalType": "uint256",
          "name": "numOfAccreditedVoters",
          "type": "uint256"
        }
      ],
      "name": "UnitCreated",
      "type": "event"
    },
    {
      "anonymous": false,
      "inputs": [
        {
          "indexed": false,
          "internalType": "address",
          "name": "account",
          "type": "address"
        }
      ],
      "name": "Unpaused",
      "type": "event"
    },
    {
      "anonymous": false,
      "inputs": [
        {
          "indexed": false,
          "internalType": "uint256",
          "name": "pollId",
          "type": "uint256"
        },
        {
          "indexed": false,
          "internalType": "address",
          "name": "voterId",
          "type": "address"
        },
        {
          "indexed": false,
          "internalType": "uint256",
          "name": "partyId",
          "type": "uint256"
        }
      ],
      "name": "VoteCasted",
      "type": "event"
    },
    {
      "anonymous": false,
      "inputs": [
        {
          "indexed": false,
          "internalType": "address",
          "name": "voterId",
          "type": "address"
        },
        {
          "indexed": false,
          "internalType": "bytes",
          "name": "data",
          "type": "bytes"
        },
        {
          "indexed": false,
          "internalType": "uint256",
          "name": "unit",
          "type": "uint256"
        },
        {
          "indexed": false,
          "internalType": "uint256",
          "name": "cardNumber",
          "type": "uint256"
        }
      ],
      "name": "VoterCreated",
      "type": "event"
    },
    {
      "anonymous": false,
      "inputs": [
        {
          "indexed": false,
          "internalType": "address",
          "name": "voterId",
          "type": "address"
        }
      ],
      "name": "VoterSuspended",
      "type": "event"
    },
    {
      "anonymous": false,
      "inputs": [
        {
          "indexed": false,
          "internalType": "address",
          "name": "voterId",
          "type": "address"
        }
      ],
      "name": "VoterUnSuspended",
      "type": "event"
    },
    {
      "inputs": [],
      "name": "owner",
      "outputs": [
        {
          "internalType": "address",
          "name": "",
          "type": "address"
        }
      ],
      "stateMutability": "view",
      "type": "function",
      "constant": true
    },
    {
      "inputs": [],
      "name": "paused",
      "outputs": [
        {
          "internalType": "bool",
          "name": "",
          "type": "bool"
        }
      ],
      "stateMutability": "view",
      "type": "function",
      "constant": true
    },
    {
      "inputs": [],
      "name": "renounceOwnership",
      "outputs": [],
      "stateMutability": "nonpayable",
      "type": "function"
    },
    {
      "inputs": [
        {
          "internalType": "address",
          "name": "newOwner",
          "type": "address"
        }
      ],
      "name": "transferOwnership",
      "outputs": [],
      "stateMutability": "nonpayable",
      "type": "function"
    },
    {
      "inputs": [
        {
          "internalType": "uint256",
          "name": "pollId",
          "type": "uint256"
        },
        {
          "internalType": "address",
          "name": "voterId",
          "type": "address"
        },
        {
          "internalType": "uint256",
          "name": "partyId",
          "type": "uint256"
        }
      ],
      "name": "castVote",
      "outputs": [],
      "stateMutability": "nonpayable",
      "type": "function"
    },
    {
      "inputs": [
        {
          "internalType": "uint256",
          "name": "pollId",
          "type": "uint256"
        }
      ],
      "name": "votesCount",
      "outputs": [
        {
          "internalType": "uint256",
          "name": "",
          "type": "uint256"
        }
      ],
      "stateMutability": "view",
      "type": "function",
      "constant": true
    },
    {
      "inputs": [
        {
          "internalType": "address",
          "name": "lookUpId",
          "type": "address"
        }
      ],
      "name": "isManager",
      "outputs": [
        {
          "internalType": "bool",
          "name": "",
          "type": "bool"
        }
      ],
      "stateMutability": "view",
      "type": "function",
      "constant": true
    },
    {
      "inputs": [
        {
          "internalType": "address",
          "name": "lookUpId",
          "type": "address"
        }
      ],
      "name": "isAgent",
      "outputs": [
        {
          "internalType": "bool",
          "name": "",
          "type": "bool"
        }
      ],
      "stateMutability": "view",
      "type": "function",
      "constant": true
    },
    {
      "inputs": [
        {
          "internalType": "uint256",
          "name": "lookUpId",
          "type": "uint256"
        }
      ],
      "name": "isParty",
      "outputs": [
        {
          "internalType": "bool",
          "name": "",
          "type": "bool"
        }
      ],
      "stateMutability": "view",
      "type": "function",
      "constant": true
    },
    {
      "inputs": [
        {
          "components": [
            {
              "internalType": "bytes",
              "name": "data",
              "type": "bytes"
            },
            {
              "internalType": "bool",
              "name": "suspended",
              "type": "bool"
            },
            {
              "internalType": "uint256",
              "name": "numOfVotes",
              "type": "uint256"
            },
            {
              "internalType": "uint256",
              "name": "unit",
              "type": "uint256"
            }
          ],
          "internalType": "struct PollingLib.Voter",
          "name": "voter",
          "type": "tuple"
        },
        {
          "internalType": "address",
          "name": "voterId",
          "type": "address"
        },
        {
          "internalType": "uint256",
          "name": "cardNumber",
          "type": "uint256"
        }
      ],
      "name": "createVoter",
      "outputs": [],
      "stateMutability": "nonpayable",
      "type": "function"
    },
    {
      "inputs": [
        {
          "components": [
            {
              "internalType": "bytes",
              "name": "data",
              "type": "bytes"
            },
            {
              "internalType": "uint256",
              "name": "endAt",
              "type": "uint256"
            },
            {
              "internalType": "uint256",
              "name": "startAt",
              "type": "uint256"
            },
            {
              "internalType": "uint256",
              "name": "numOfVotes",
              "type": "uint256"
            },
            {
              "internalType": "uint256",
              "name": "unit",
              "type": "uint256"
            },
            {
              "internalType": "string",
              "name": "nftUri",
              "type": "string"
            }
          ],
          "internalType": "struct PollingLib.Poll",
          "name": "poll",
          "type": "tuple"
        }
      ],
      "name": "createPoll",
      "outputs": [],
      "stateMutability": "nonpayable",
      "type": "function"
    },
    {
      "inputs": [
        {
          "internalType": "address",
          "name": "voter",
          "type": "address"
        }
      ],
      "name": "suspendVoter",
      "outputs": [],
      "stateMutability": "nonpayable",
      "type": "function"
    },
    {
      "inputs": [
        {
          "internalType": "address",
          "name": "voter",
          "type": "address"
        }
      ],
      "name": "unSuspendVoter",
      "outputs": [],
      "stateMutability": "nonpayable",
      "type": "function"
    },
    {
      "inputs": [
        {
          "components": [
            {
              "internalType": "enum PollingLib.State",
              "name": "state",
              "type": "uint8"
            },
            {
              "internalType": "uint256",
              "name": "localGovernment",
              "type": "uint256"
            },
            {
              "internalType": "uint256",
              "name": "numOfAccreditedVoters",
              "type": "uint256"
            }
          ],
          "internalType": "struct PollingLib.Unit",
          "name": "unit",
          "type": "tuple"
        }
      ],
      "name": "createUnit",
      "outputs": [],
      "stateMutability": "nonpayable",
      "type": "function"
    },
    {
      "inputs": [
        {
          "components": [
            {
              "internalType": "bytes",
              "name": "data",
              "type": "bytes"
            }
          ],
          "internalType": "struct PollingLib.Party",
          "name": "party",
          "type": "tuple"
        },
        {
          "internalType": "uint256",
          "name": "partyId",
          "type": "uint256"
        }
      ],
      "name": "createParty",
      "outputs": [],
      "stateMutability": "nonpayable",
      "type": "function"
    },
    {
      "inputs": [
        {
          "internalType": "uint256",
          "name": "pollId",
          "type": "uint256"
        }
      ],
      "name": "endPoll",
      "outputs": [],
      "stateMutability": "nonpayable",
      "type": "function"
    },
    {
      "inputs": [
        {
          "internalType": "uint256",
          "name": "pollId",
          "type": "uint256"
        },
        {
          "internalType": "uint256",
          "name": "newEndAt",
          "type": "uint256"
        }
      ],
      "name": "resumePoll",
      "outputs": [],
      "stateMutability": "nonpayable",
      "type": "function"
    },
    {
      "inputs": [
        {
          "components": [
            {
              "internalType": "bytes",
              "name": "data",
              "type": "bytes"
            },
            {
              "internalType": "uint256",
              "name": "unit",
              "type": "uint256"
            }
          ],
          "internalType": "struct PollingLib.Agent",
          "name": "agent",
          "type": "tuple"
        },
        {
          "internalType": "address",
          "name": "agentId",
          "type": "address"
        }
      ],
      "name": "createAgent",
      "outputs": [],
      "stateMutability": "nonpayable",
      "type": "function"
    },
    {
      "inputs": [
        {
          "components": [
            {
              "internalType": "bytes",
              "name": "data",
              "type": "bytes"
            },
            {
              "internalType": "enum PollingLib.State",
              "name": "state",
              "type": "uint8"
            }
          ],
          "internalType": "struct PollingLib.Manager",
          "name": "manager",
          "type": "tuple"
        },
        {
          "internalType": "address",
          "name": "managerId",
          "type": "address"
        }
      ],
      "name": "createManager",
      "outputs": [],
      "stateMutability": "nonpayable",
      "type": "function"
    },
    {
      "inputs": [
        {
          "internalType": "address",
          "name": "voteNft",
          "type": "address"
        }
      ],
      "name": "setVoteNft",
      "outputs": [],
      "stateMutability": "nonpayable",
      "type": "function"
    }
  ],
  "bytecode": "0x608060405234801562000010575f80fd5b5062000021620000c460201b60201c565b5f805f6101000a81548160ff0219169083151502179055505f73ffffffffffffffffffffffffffffffffffffffff168173ffffffffffffffffffffffffffffffffffffffff1603620000ac575f6040517f1e4fbdf7000000000000000000000000000000000000000000000000000000008152600401620000a39190620001d1565b60405180910390fd5b620000bd81620000cb60201b60201c565b50620001ec565b5f33905090565b5f8060019054906101000a900473ffffffffffffffffffffffffffffffffffffffff169050815f60016101000a81548173ffffffffffffffffffffffffffffffffffffffff021916908373ffffffffffffffffffffffffffffffffffffffff1602179055508173ffffffffffffffffffffffffffffffffffffffff168173ffffffffffffffffffffffffffffffffffffffff167f8be0079c531659141344cd1fd0a4f28419497f9722a3daafe3b4186f6b6457e060405160405180910390a35050565b5f73ffffffffffffffffffffffffffffffffffffffff82169050919050565b5f620001b9826200018e565b9050919050565b620001cb81620001ad565b82525050565b5f602082019050620001e65f830184620001c0565b92915050565b61294580620001fa5f395ff3fe608060405234801561000f575f80fd5b506004361061012a575f3560e01c80638da5cb5b116100ab578063c79383c51161006f578063c79383c514610300578063f2fde38b1461031c578063f3ae241514610338578063f43b877814610368578063f88b62da146103845761012a565b80638da5cb5b14610272578063a852f80d14610290578063b1196478146102ac578063b7adcdfa146102c8578063bc0fde43146102e45761012a565b80636d67160c116100f25780636d67160c146101e4578063715018a6146102005780637e77eb231461020a5780638c5f9170146102265780638d2e368f146102565761012a565b80631ffbb0641461012e5780632dc7639d1461015e57806350a6491a1461017a5780635b871d10146101aa5780635c975abb146101c6575b5f80fd5b610148600480360381019061014391906114ea565b6103a0565b604051610155919061152f565b60405180910390f35b61017860048036038101906101739190611718565b6103fc565b005b610194600480360381019061018f91906117a5565b6104ce565b6040516101a191906117df565b60405180910390f35b6101c460048036038101906101bf91906114ea565b6104eb565b005b6101ce61052e565b6040516101db919061152f565b60405180910390f35b6101fe60048036038101906101f99190611861565b610542565b005b610208610636565b005b610224600480360381019061021f91906118bb565b610649565b005b610240600480360381019061023b91906117a5565b6109f1565b60405161024d919061152f565b60405180910390f35b610270600480360381019061026b91906114ea565b610a21565b005b61027a610b02565b604051610287919061191a565b60405180910390f35b6102aa60048036038101906102a59190611994565b610b2a565b005b6102c660048036038101906102c191906114ea565b610c3d565b005b6102e260048036038101906102dd9190611a14565b610d1e565b005b6102fe60048036038101906102f99190611a6e565b610dde565b005b61031a60048036038101906103159190611c1f565b610ec5565b005b610336600480360381019061033191906114ea565b61104b565b005b610352600480360381019061034d91906114ea565b6110cf565b60405161035f919061152f565b60405180910390f35b610382600480360381019061037d91906117a5565b61112b565b005b61039e60048036038101906103999190611d21565b6111cd565b005b5f8060075f8473ffffffffffffffffffffffffffffffffffffffff1673ffffffffffffffffffffffffffffffffffffffff1681526020019081526020015f2090505f815f0180546103f090611dba565b90501415915050919050565b6104046112ed565b8160085f8373ffffffffffffffffffffffffffffffffffffffff1673ffffffffffffffffffffffffffffffffffffffff1681526020019081526020015f205f820151815f0190816104559190611f91565b506020820151816001015f6101000a81548160ff021916908360238111156104805761047f612060565b5b02179055509050507f2fa5a0920f27f1de71e565721c355263664bfdcd6d929c910beda9c84ad4022d81835f015184602001516040516104c293929190612143565b60405180910390a15050565b5f60055f8381526020019081526020015f20600301549050919050565b8060015f6101000a81548173ffffffffffffffffffffffffffffffffffffffff021916908373ffffffffffffffffffffffffffffffffffffffff16021790555050565b5f805f9054906101000a900460ff16905090565b61055261054d611374565b6110cf565b610591576040517f08c379a0000000000000000000000000000000000000000000000000000000008152600401610588906121d9565b60405180910390fd5b8160075f8373ffffffffffffffffffffffffffffffffffffffff1673ffffffffffffffffffffffffffffffffffffffff1681526020019081526020015f205f820151815f0190816105e29190611f91565b50602082015181600101559050507f63e76268d0a955fdb3fdf61ff46fc23b80d4a24790233b174dfac9a29818109b81835f0151846020015160405161062a939291906121f7565b60405180910390a15050565b61063e6112ed565b6106475f61137b565b565b61065161143e565b5f60055f8581526020019081526020015f2090505f60065f8573ffffffffffffffffffffffffffffffffffffffff1673ffffffffffffffffffffffffffffffffffffffff1681526020019081526020015f209050806001015f9054906101000a900460ff16156106f6576040517f08c379a00000000000000000000000000000000000000000000000000000000081526004016106ed9061227d565b60405180910390fd5b816002015442101561073d576040517f08c379a0000000000000000000000000000000000000000000000000000000008152600401610734906122e5565b60405180910390fd5b81600101544210610783576040517f08c379a000000000000000000000000000000000000000000000000000000000815260040161077a9061234d565b60405180910390fd5b5f600a5f8781526020019081526020015f205f8673ffffffffffffffffffffffffffffffffffffffff1673ffffffffffffffffffffffffffffffffffffffff1681526020019081526020015f205414610811576040517f08c379a0000000000000000000000000000000000000000000000000000000008152600401610808906123b5565b60405180910390fd5b816004015481600301541461085b576040517f08c379a00000000000000000000000000000000000000000000000000000000081526004016108529061241d565b60405180910390fd5b610864836109f1565b6108a3576040517f08c379a000000000000000000000000000000000000000000000000000000000815260040161089a90612485565b60405180910390fd5b82600a5f8781526020019081526020015f205f8673ffffffffffffffffffffffffffffffffffffffff1673ffffffffffffffffffffffffffffffffffffffff1681526020019081526020015f2050506001826003015461090391906124d0565b82600301819055505f82600501805461091b90611dba565b9050146109af5760015f9054906101000a900473ffffffffffffffffffffffffffffffffffffffff1673ffffffffffffffffffffffffffffffffffffffff1663d0def52185846005016040518363ffffffff1660e01b8152600401610981929190612596565b5f604051808303815f87803b158015610998575f80fd5b505af11580156109aa573d5f803e3d5ffd5b505050505b7fe7ee74ca1f4bb1b82b14f87794c45b3e59c39e372b862fb97a6316b43355b69e8585856040516109e2939291906125c4565b60405180910390a15050505050565b5f8060095f8481526020019081526020015f2090505f815f018054610a1590611dba565b90501415915050919050565b610a31610a2c611374565b6103a0565b610a70576040517f08c379a0000000000000000000000000000000000000000000000000000000008152600401610a67906121d9565b60405180910390fd5b600160065f8373ffffffffffffffffffffffffffffffffffffffff1673ffffffffffffffffffffffffffffffffffffffff1681526020019081526020015f206001015f6101000a81548160ff0219169083151502179055507fb7bcc3f1429e9e01104a9ddc1d004407670c768ec4afa6ee93468a617af2370981604051610af7919061191a565b60405180910390a150565b5f8060019054906101000a900473ffffffffffffffffffffffffffffffffffffffff16905090565b610b3a610b35611374565b6110cf565b610b79576040517f08c379a0000000000000000000000000000000000000000000000000000000008152600401610b70906121d9565b60405180910390fd5b610b8161143e565b60035f815480929190610b93906125f9565b91905055508060045f60035481526020019081526020015f205f820151815f015f6101000a81548160ff02191690836023811115610bd457610bd3612060565b5b021790555060208201518160010155604082015181600201559050507ffed4a2b8b3685c6ad44d5493ac845c4a3501711ccfa726966dc6e9e1ba50c60a600354825f015183602001518460400151604051610c329493929190612640565b60405180910390a150565b610c4d610c48611374565b6103a0565b610c8c576040517f08c379a0000000000000000000000000000000000000000000000000000000008152600401610c83906121d9565b60405180910390fd5b600160065f8373ffffffffffffffffffffffffffffffffffffffff1673ffffffffffffffffffffffffffffffffffffffff1681526020019081526020015f206001015f6101000a81548160ff0219169083151502179055507fb7bcc3f1429e9e01104a9ddc1d004407670c768ec4afa6ee93468a617af2370981604051610d13919061191a565b60405180910390a150565b610d2e610d29611374565b6110cf565b610d6d576040517f08c379a0000000000000000000000000000000000000000000000000000000008152600401610d64906121d9565b60405180910390fd5b610d7561143e565b8160095f8381526020019081526020015f205f820151815f019081610d9a9190611f91565b509050507f69d650e82226046ae6c611923881402d0b25416e493ef3d46aed213d3be89e4d81835f0151604051610dd2929190612683565b60405180910390a15050565b610dee610de9611374565b6110cf565b610e2d576040517f08c379a0000000000000000000000000000000000000000000000000000000008152600401610e24906121d9565b60405180910390fd5b428111610e6f576040517f08c379a0000000000000000000000000000000000000000000000000000000008152600401610e66906126fb565b60405180910390fd5b8060055f8481526020019081526020015f20600101819055507f229fc85594800ec48ab3f1ef11b9275bbe2ef32ef63eac3ac3dabe23a548b4d58282604051610eb9929190612719565b60405180910390a15050565b610ed5610ed0611374565b6103a0565b610f14576040517f08c379a0000000000000000000000000000000000000000000000000000000008152600401610f0b906121d9565b60405180910390fd5b610f1c61143e565b60025f815480929190610f2e906125f9565b91905055508060055f60025481526020019081526020015f205f820151815f019081610f5a9190611f91565b506020820151816001015560408201518160020155606082015181600301556080820151816004015560a0820151816005019081610f989190612790565b50905050806080015160075f610fac611374565b73ffffffffffffffffffffffffffffffffffffffff1673ffffffffffffffffffffffffffffffffffffffff1681526020019081526020015f206001015414610ff2575f80fd5b7f28e674ffac5fe6872cfab0b4d9f2bf80baf2bb057bf5b34411e84bf0937d0837600254825f015183602001518460400151856060015186608001516040516110409695949392919061285f565b60405180910390a150565b6110536112ed565b5f73ffffffffffffffffffffffffffffffffffffffff168173ffffffffffffffffffffffffffffffffffffffff16036110c3575f6040517f1e4fbdf70000000000000000000000000000000000000000000000000000000081526004016110ba919061191a565b60405180910390fd5b6110cc8161137b565b50565b5f8060085f8473ffffffffffffffffffffffffffffffffffffffff1673ffffffffffffffffffffffffffffffffffffffff1681526020019081526020015f2090505f815f01805461111f90611dba565b90501415915050919050565b61113b611136611374565b6110cf565b61117a576040517f08c379a0000000000000000000000000000000000000000000000000000000008152600401611171906121d9565b60405180910390fd5b4260055f8381526020019081526020015f20600101819055507f14d4cfc1c2a6f37c8f97ad80fc12bd9d943ea6d4dd7684137850125597ce9bf7816040516111c291906117df565b60405180910390a150565b6111dd6111d8611374565b6103a0565b61121c576040517f08c379a0000000000000000000000000000000000000000000000000000000008152600401611213906121d9565b60405180910390fd5b8260065f8473ffffffffffffffffffffffffffffffffffffffff1673ffffffffffffffffffffffffffffffffffffffff1681526020019081526020015f205f820151815f01908161126d9190611f91565b506020820151816001015f6101000a81548160ff02191690831515021790555060408201518160020155606082015181600301559050507f3c8ae23656015d55e53887041c34678c2ab0e8865ed9144d4493a06d1aa9403482845f01518560600151846040516112e094939291906128c5565b60405180910390a1505050565b6112f5611374565b73ffffffffffffffffffffffffffffffffffffffff16611313610b02565b73ffffffffffffffffffffffffffffffffffffffff161461137257611336611374565b6040517f118cdaa7000000000000000000000000000000000000000000000000000000008152600401611369919061191a565b60405180910390fd5b565b5f33905090565b5f8060019054906101000a900473ffffffffffffffffffffffffffffffffffffffff169050815f60016101000a81548173ffffffffffffffffffffffffffffffffffffffff021916908373ffffffffffffffffffffffffffffffffffffffff1602179055508173ffffffffffffffffffffffffffffffffffffffff168173ffffffffffffffffffffffffffffffffffffffff167f8be0079c531659141344cd1fd0a4f28419497f9722a3daafe3b4186f6b6457e060405160405180910390a35050565b61144661052e565b1561147d576040517fd93c066500000000000000000000000000000000000000000000000000000000815260040160405180910390fd5b565b5f604051905090565b5f80fd5b5f80fd5b5f73ffffffffffffffffffffffffffffffffffffffff82169050919050565b5f6114b982611490565b9050919050565b6114c9816114af565b81146114d3575f80fd5b50565b5f813590506114e4816114c0565b92915050565b5f602082840312156114ff576114fe611488565b5b5f61150c848285016114d6565b91505092915050565b5f8115159050919050565b61152981611515565b82525050565b5f6020820190506115425f830184611520565b92915050565b5f80fd5b5f601f19601f8301169050919050565b7f4e487b71000000000000000000000000000000000000000000000000000000005f52604160045260245ffd5b6115928261154c565b810181811067ffffffffffffffff821117156115b1576115b061155c565b5b80604052505050565b5f6115c361147f565b90506115cf8282611589565b919050565b5f80fd5b5f80fd5b5f80fd5b5f67ffffffffffffffff8211156115fa576115f961155c565b5b6116038261154c565b9050602081019050919050565b828183375f83830152505050565b5f61163061162b846115e0565b6115ba565b90508281526020810184848401111561164c5761164b6115dc565b5b611657848285611610565b509392505050565b5f82601f830112611673576116726115d8565b5b813561168384826020860161161e565b91505092915050565b60248110611698575f80fd5b50565b5f813590506116a98161168c565b92915050565b5f604082840312156116c4576116c3611548565b5b6116ce60406115ba565b90505f82013567ffffffffffffffff8111156116ed576116ec6115d4565b5b6116f98482850161165f565b5f83015250602061170c8482850161169b565b60208301525092915050565b5f806040838503121561172e5761172d611488565b5b5f83013567ffffffffffffffff81111561174b5761174a61148c565b5b611757858286016116af565b9250506020611768858286016114d6565b9150509250929050565b5f819050919050565b61178481611772565b811461178e575f80fd5b50565b5f8135905061179f8161177b565b92915050565b5f602082840312156117ba576117b9611488565b5b5f6117c784828501611791565b91505092915050565b6117d981611772565b82525050565b5f6020820190506117f25f8301846117d0565b92915050565b5f6040828403121561180d5761180c611548565b5b61181760406115ba565b90505f82013567ffffffffffffffff811115611836576118356115d4565b5b6118428482850161165f565b5f83015250602061185584828501611791565b60208301525092915050565b5f806040838503121561187757611876611488565b5b5f83013567ffffffffffffffff8111156118945761189361148c565b5b6118a0858286016117f8565b92505060206118b1858286016114d6565b9150509250929050565b5f805f606084860312156118d2576118d1611488565b5b5f6118df86828701611791565b93505060206118f0868287016114d6565b925050604061190186828701611791565b9150509250925092565b611914816114af565b82525050565b5f60208201905061192d5f83018461190b565b92915050565b5f6060828403121561194857611947611548565b5b61195260606115ba565b90505f6119618482850161169b565b5f83015250602061197484828501611791565b602083015250604061198884828501611791565b60408301525092915050565b5f606082840312156119a9576119a8611488565b5b5f6119b684828501611933565b91505092915050565b5f602082840312156119d4576119d3611548565b5b6119de60206115ba565b90505f82013567ffffffffffffffff8111156119fd576119fc6115d4565b5b611a098482850161165f565b5f8301525092915050565b5f8060408385031215611a2a57611a29611488565b5b5f83013567ffffffffffffffff811115611a4757611a4661148c565b5b611a53858286016119bf565b9250506020611a6485828601611791565b9150509250929050565b5f8060408385031215611a8457611a83611488565b5b5f611a9185828601611791565b9250506020611aa285828601611791565b9150509250929050565b5f67ffffffffffffffff821115611ac657611ac561155c565b5b611acf8261154c565b9050602081019050919050565b5f611aee611ae984611aac565b6115ba565b905082815260208101848484011115611b0a57611b096115dc565b5b611b15848285611610565b509392505050565b5f82601f830112611b3157611b306115d8565b5b8135611b41848260208601611adc565b91505092915050565b5f60c08284031215611b5f57611b5e611548565b5b611b6960c06115ba565b90505f82013567ffffffffffffffff811115611b8857611b876115d4565b5b611b948482850161165f565b5f830152506020611ba784828501611791565b6020830152506040611bbb84828501611791565b6040830152506060611bcf84828501611791565b6060830152506080611be384828501611791565b60808301525060a082013567ffffffffffffffff811115611c0757611c066115d4565b5b611c1384828501611b1d565b60a08301525092915050565b5f60208284031215611c3457611c33611488565b5b5f82013567ffffffffffffffff811115611c5157611c5061148c565b5b611c5d84828501611b4a565b91505092915050565b611c6f81611515565b8114611c79575f80fd5b50565b5f81359050611c8a81611c66565b92915050565b5f60808284031215611ca557611ca4611548565b5b611caf60806115ba565b90505f82013567ffffffffffffffff811115611cce57611ccd6115d4565b5b611cda8482850161165f565b5f830152506020611ced84828501611c7c565b6020830152506040611d0184828501611791565b6040830152506060611d1584828501611791565b60608301525092915050565b5f805f60608486031215611d3857611d37611488565b5b5f84013567ffffffffffffffff811115611d5557611d5461148c565b5b611d6186828701611c90565b9350506020611d72868287016114d6565b9250506040611d8386828701611791565b9150509250925092565b7f4e487b71000000000000000000000000000000000000000000000000000000005f52602260045260245ffd5b5f6002820490506001821680611dd157607f821691505b602082108103611de457611de3611d8d565b5b50919050565b5f81519050919050565b5f819050815f5260205f209050919050565b5f6020601f8301049050919050565b5f82821b905092915050565b5f60088302611e507fffffffffffffffffffffffffffffffffffffffffffffffffffffffffffffffff82611e15565b611e5a8683611e15565b95508019841693508086168417925050509392505050565b5f819050919050565b5f611e95611e90611e8b84611772565b611e72565b611772565b9050919050565b5f819050919050565b611eae83611e7b565b611ec2611eba82611e9c565b848454611e21565b825550505050565b5f90565b611ed6611eca565b611ee1818484611ea5565b505050565b5b81811015611f0457611ef95f82611ece565b600181019050611ee7565b5050565b601f821115611f4957611f1a81611df4565b611f2384611e06565b81016020851015611f32578190505b611f46611f3e85611e06565b830182611ee6565b50505b505050565b5f82821c905092915050565b5f611f695f1984600802611f4e565b1980831691505092915050565b5f611f818383611f5a565b9150826002028217905092915050565b611f9a82611dea565b67ffffffffffffffff811115611fb357611fb261155c565b5b611fbd8254611dba565b611fc8828285611f08565b5f60209050601f831160018114611ff9575f8415611fe7578287015190505b611ff18582611f76565b865550612058565b601f19841661200786611df4565b5f5b8281101561202e57848901518255600182019150602085019450602081019050612009565b8683101561204b5784890151612047601f891682611f5a565b8355505b6001600288020188555050505b505050505050565b7f4e487b71000000000000000000000000000000000000000000000000000000005f52602160045260245ffd5b5f82825260208201905092915050565b5f5b838110156120ba57808201518184015260208101905061209f565b5f8484015250505050565b5f6120cf82611dea565b6120d9818561208d565b93506120e981856020860161209d565b6120f28161154c565b840191505092915050565b6024811061210e5761210d612060565b5b50565b5f81905061211e826120fd565b919050565b5f61212d82612111565b9050919050565b61213d81612123565b82525050565b5f6060820190506121565f83018661190b565b818103602083015261216881856120c5565b90506121776040830184612134565b949350505050565b5f82825260208201905092915050565b7f556e417574686f72697a656400000000000000000000000000000000000000005f82015250565b5f6121c3600c8361217f565b91506121ce8261218f565b602082019050919050565b5f6020820190508181035f8301526121f0816121b7565b9050919050565b5f60608201905061220a5f83018661190b565b818103602083015261221c81856120c5565b905061222b60408301846117d0565b949350505050565b7f566f7465722069732073757370656e64656400000000000000000000000000005f82015250565b5f61226760128361217f565b915061227282612233565b602082019050919050565b5f6020820190508181035f8301526122948161225b565b9050919050565b7f506f6c6c20686173206e6f7420737461727465640000000000000000000000005f82015250565b5f6122cf60148361217f565b91506122da8261229b565b602082019050919050565b5f6020820190508181035f8301526122fc816122c3565b9050919050565b7f506f6c6c2068617320656e6465640000000000000000000000000000000000005f82015250565b5f612337600e8361217f565b915061234282612303565b602082019050919050565b5f6020820190508181035f8301526123648161232b565b9050919050565b7f416c72656164792063617374656420766f7465000000000000000000000000005f82015250565b5f61239f60138361217f565b91506123aa8261236b565b602082019050919050565b5f6020820190508181035f8301526123cc81612393565b9050919050565b7f566f746572206973206e6f7420696e207468697320756e6974000000000000005f82015250565b5f61240760198361217f565b9150612412826123d3565b602082019050919050565b5f6020820190508181035f830152612434816123fb565b9050919050565b7f506172747920646f6573206e6f742065786973740000000000000000000000005f82015250565b5f61246f60148361217f565b915061247a8261243b565b602082019050919050565b5f6020820190508181035f83015261249c81612463565b9050919050565b7f4e487b71000000000000000000000000000000000000000000000000000000005f52601160045260245ffd5b5f6124da82611772565b91506124e583611772565b92508282019050808211156124fd576124fc6124a3565b5b92915050565b5f819050815f5260205f209050919050565b5f815461252181611dba565b61252b818661217f565b9450600182165f8114612545576001811461255b5761258d565b60ff19831686528115156020028601935061258d565b61256485612503565b5f5b8381101561258557815481890152600182019150602081019050612566565b808801955050505b50505092915050565b5f6040820190506125a95f83018561190b565b81810360208301526125bb8184612515565b90509392505050565b5f6060820190506125d75f8301866117d0565b6125e4602083018561190b565b6125f160408301846117d0565b949350505050565b5f61260382611772565b91507fffffffffffffffffffffffffffffffffffffffffffffffffffffffffffffffff8203612635576126346124a3565b5b600182019050919050565b5f6080820190506126535f8301876117d0565b6126606020830186612134565b61266d60408301856117d0565b61267a60608301846117d0565b95945050505050565b5f6040820190506126965f8301856117d0565b81810360208301526126a881846120c5565b90509392505050565b7f54696d6520697320696e207468652070617374000000000000000000000000005f82015250565b5f6126e560138361217f565b91506126f0826126b1565b602082019050919050565b5f6020820190508181035f830152612712816126d9565b9050919050565b5f60408201905061272c5f8301856117d0565b61273960208301846117d0565b9392505050565b5f81519050919050565b601f82111561278b5761275c81612503565b61276584611e06565b81016020851015612774578190505b61278861278085611e06565b830182611ee6565b50505b505050565b61279982612740565b67ffffffffffffffff8111156127b2576127b161155c565b5b6127bc8254611dba565b6127c782828561274a565b5f60209050601f8311600181146127f8575f84156127e6578287015190505b6127f08582611f76565b865550612857565b601f19841661280686612503565b5f5b8281101561282d57848901518255600182019150602085019450602081019050612808565b8683101561284a5784890151612846601f891682611f5a565b8355505b6001600288020188555050505b505050505050565b5f60c0820190506128725f8301896117d0565b818103602083015261288481886120c5565b905061289360408301876117d0565b6128a060608301866117d0565b6128ad60808301856117d0565b6128ba60a08301846117d0565b979650505050505050565b5f6080820190506128d85f83018761190b565b81810360208301526128ea81866120c5565b90506128f960408301856117d0565b61290660608301846117d0565b9594505050505056fea264697066735822122039b2f0c8e9263a37a1a69b6154c501dc6ddc20f7e8e280af8c6a45f518a7ced464736f6c63430008140033",
  "immutableReferences": {},
  "source": "// SPDX-License-Identifier: MIT\r\npragma solidity ^0.8.20;\r\n\r\nimport {IVoteCore} from \"./interfaces/IVoteCore.sol\";\r\nimport {PollingLib} from \"./libraries/PollingLib.sol\";\r\n\r\nimport {Context} from \"@openzeppelin/contracts/utils/Context.sol\";\r\nimport {Ownable} from \"@openzeppelin/contracts/access/Ownable.sol\";\r\nimport {Pausable} from \"@openzeppelin/contracts/utils/Pausable.sol\";\r\n\r\nimport {VoteNft} from \"./VoteNft.sol\";\r\n\r\n/// @title I-Vote Core\r\n/// @author Arogundade Ibrahim\r\n/// @notice A simple replace for traditional elections\r\ncontract VoteCore is IVoteCore, Context, Pausable, Ownable {\r\n    // vote nft\r\n    VoteNft private _voteNft;\r\n\r\n    // Unique Id Trackers\r\n    uint256 private _pollId;\r\n    uint256 private _unitId;\r\n\r\n    // Polling Units: Unit Unique Id => Unit object\r\n    mapping(uint256 => PollingLib.Unit) private _units;\r\n\r\n    // Polls: Poll Unique Id => Poll object\r\n    mapping(uint256 => PollingLib.Poll) private _polls;\r\n\r\n    // Voters: Voter Unique Id => Voter object\r\n    mapping(address => PollingLib.Voter) private _voters;\r\n\r\n    // Agent: Voter Unique Id => Agent object\r\n    mapping(address => PollingLib.Agent) private _agents;\r\n\r\n    // Managers: Manager Unique Id => Manager object\r\n    mapping(address => PollingLib.Manager) private _managers;\r\n\r\n    // Parties: Party Unique Id => Party object\r\n    mapping(uint256 => PollingLib.Party) private _parties;\r\n\r\n    // Votes: Poll Unique Id => Voter Unique Id => Party Unique Id\r\n    mapping(uint256 => mapping(address => uint256)) private _votes;\r\n\r\n    constructor() Ownable(_msgSender()) {}\r\n\r\n    // ============= Voter Functions ============= //\r\n\r\n    function castVote(\r\n        uint256 pollId,\r\n        address voterId,\r\n        uint256 partyId\r\n    ) external override whenNotPaused {\r\n        PollingLib.Poll storage poll = _polls[pollId];\r\n        PollingLib.Voter storage voter = _voters[voterId];\r\n\r\n        // check the voter is not suspended\r\n        require(!voter.suspended, \"Voter is suspended\");\r\n\r\n        // check poll duration\r\n        require(block.timestamp >= poll.startAt, \"Poll has not started\");\r\n        require(block.timestamp < poll.endAt, \"Poll has ended\");\r\n\r\n        // check voter entry\r\n        require(_votes[pollId][voterId] == uint256(0), \"Already casted vote\");\r\n\r\n        // check voter uint is in the poll units\r\n        require(voter.unit == poll.unit, \"Voter is not in this unit\");\r\n\r\n        // check party exists\r\n        require(isParty(partyId), \"Party does not exist\");\r\n\r\n        // otherwise cast vote\r\n        _votes[pollId][voterId] == partyId;\r\n        poll.numOfVotes = poll.numOfVotes + 1;\r\n\r\n        // mint nft to voter --if-exists\r\n        if (bytes(poll.nftUri).length != 0) {\r\n            _voteNft.mint(voterId, poll.nftUri);\r\n        }\r\n\r\n        emit VoteCasted(pollId, voterId, partyId);\r\n    }\r\n\r\n    // ============= View Functions ============= //\r\n\r\n    function votesCount(uint256 pollId) public view override returns (uint256) {\r\n        return _polls[pollId].numOfVotes;\r\n    }\r\n\r\n    function isManager(address lookUpId) public view override returns (bool) {\r\n        PollingLib.Manager storage manager = _managers[lookUpId];\r\n        return manager.data.length != 0;\r\n    }\r\n\r\n    function isAgent(address lookUpId) public view override returns (bool) {\r\n        PollingLib.Agent storage agent = _agents[lookUpId];\r\n        return agent.data.length != 0;\r\n    }\r\n\r\n    function isParty(uint256 lookUpId) public view override returns (bool) {\r\n        PollingLib.Party storage party = _parties[lookUpId];\r\n        return party.data.length != 0;\r\n    }\r\n\r\n    // ============= Agents Functions ============= //\r\n\r\n    function createVoter(\r\n        PollingLib.Voter memory voter,\r\n        address voterId,\r\n        uint256 cardNumber\r\n    ) external override onlyAgent {\r\n        _voters[voterId] = voter;\r\n\r\n        emit VoterCreated(voterId, voter.data, voter.unit, cardNumber);\r\n    }\r\n\r\n    function createPoll(\r\n        PollingLib.Poll memory poll\r\n    ) external override onlyAgent whenNotPaused {\r\n        // increment Poll Id trackers\r\n        _pollId++;\r\n\r\n        _polls[_pollId] = poll;\r\n\r\n        require(_agents[_msgSender()].unit == poll.unit);\r\n\r\n        emit PollCreated(\r\n            _pollId,\r\n            poll.data,\r\n            poll.endAt,\r\n            poll.startAt,\r\n            poll.numOfVotes,\r\n            poll.unit\r\n        );\r\n    }\r\n\r\n    function suspendVoter(address voter) external override onlyAgent {\r\n        _voters[voter].suspended = true;\r\n\r\n        emit VoterSuspended(voter);\r\n    }\r\n\r\n    function unSuspendVoter(address voter) external override onlyAgent {\r\n        _voters[voter].suspended = true;\r\n\r\n        emit VoterSuspended(voter);\r\n    }\r\n\r\n    // ============= Managers Functions ============= //\r\n\r\n    function createUnit(\r\n        PollingLib.Unit memory unit\r\n    ) external override onlyManager whenNotPaused {\r\n        // increment Unit Id trackers\r\n        _unitId++;\r\n\r\n        _units[_unitId] = unit;\r\n\r\n        emit UnitCreated(\r\n            _unitId,\r\n            unit.state,\r\n            unit.localGovernment,\r\n            unit.numOfAccreditedVoters\r\n        );\r\n    }\r\n\r\n    function createParty(\r\n        PollingLib.Party memory party,\r\n        uint256 partyId\r\n    ) external override onlyManager whenNotPaused {\r\n        _parties[partyId] = party;\r\n\r\n        emit PartyCreated(partyId, party.data);\r\n    }\r\n\r\n    function endPoll(uint256 pollId) external onlyManager {\r\n        _polls[pollId].endAt = block.timestamp;\r\n\r\n        emit PollEnded(pollId);\r\n    }\r\n\r\n    function resumePoll(\r\n        uint256 pollId,\r\n        uint256 newEndAt\r\n    ) external override onlyManager {\r\n        require(newEndAt > block.timestamp, \"Time is in the past\");\r\n        _polls[pollId].endAt = newEndAt;\r\n\r\n        emit PollResumed(pollId, newEndAt);\r\n    }\r\n\r\n    function createAgent(\r\n        PollingLib.Agent memory agent,\r\n        address agentId\r\n    ) external override onlyManager {\r\n        _agents[agentId] = agent;\r\n\r\n        emit AgentCreated(agentId, agent.data, agent.unit);\r\n    }\r\n\r\n    // ============= Creator Functions ============= //\r\n\r\n    function createManager(\r\n        PollingLib.Manager memory manager,\r\n        address managerId\r\n    ) external override onlyOwner {\r\n        _managers[managerId] = manager;\r\n\r\n        emit ManagerCreated(managerId, manager.data, manager.state);\r\n    }\r\n\r\n    function setVoteNft(address voteNft) external {\r\n        _voteNft = VoteNft(voteNft);\r\n    }\r\n\r\n    // ============= Modifiers ============= //\r\n\r\n    modifier onlyManager() {\r\n        require(isManager(_msgSender()), \"UnAuthorized\");\r\n        _;\r\n    }\r\n\r\n    modifier onlyAgent() {\r\n        require(isAgent(_msgSender()), \"UnAuthorized\");\r\n        _;\r\n    }\r\n}\r\n",
  "sourcePath": "C:\\Users\\DELL\\Documents\\i-vote\\solidity\\contracts\\VoteCore.sol",
  "compiler": {
    "name": "solc",
    "version": "0.8.20+commit.a1b79de6.Emscripten.clang"
  },
  "schemaVersion": "3.4.11",
  "updatedAt": "2023-11-28T17:08:12.203Z",
  "networkType": "ethereum",
  "devdoc": {
    "author": "Arogundade Ibrahim",
    "errors": {
      "EnforcedPause()": [
        {
          "details": "The operation failed because the contract is paused."
        }
      ],
      "ExpectedPause()": [
        {
          "details": "The operation failed because the contract is not paused."
        }
      ],
      "OwnableInvalidOwner(address)": [
        {
          "details": "The owner is not a valid owner account. (eg. `address(0)`)"
        }
      ],
      "OwnableUnauthorizedAccount(address)": [
        {
          "details": "The caller account is not authorized to perform an operation."
        }
      ]
    },
    "events": {
      "Paused(address)": {
        "details": "Emitted when the pause is triggered by `account`."
      },
      "Unpaused(address)": {
        "details": "Emitted when the pause is lifted by `account`."
      }
    },
    "kind": "dev",
    "methods": {
      "owner()": {
        "details": "Returns the address of the current owner."
      },
      "paused()": {
        "details": "Returns true if the contract is paused, and false otherwise."
      },
      "renounceOwnership()": {
        "details": "Leaves the contract without owner. It will not be possible to call `onlyOwner` functions. Can only be called by the current owner. NOTE: Renouncing ownership will leave the contract without an owner, thereby disabling any functionality that is only available to the owner."
      },
      "transferOwnership(address)": {
        "details": "Transfers ownership of the contract to a new account (`newOwner`). Can only be called by the current owner."
      }
    },
    "title": "I-Vote Core",
    "version": 1
  },
  "userdoc": {
    "kind": "user",
    "methods": {},
    "notice": "A simple replace for traditional elections",
    "version": 1
  }
}